{
  "contractName": "Shelter",
  "abi": [
    {
      "constant": false,
      "inputs": [],
      "name": "unpause",
      "outputs": [],
      "payable": false,
      "stateMutability": "nonpayable",
      "type": "function"
    },
    {
      "constant": true,
      "inputs": [],
      "name": "paused",
      "outputs": [
        {
          "name": "",
          "type": "bool"
        }
      ],
      "payable": false,
      "stateMutability": "view",
      "type": "function"
    },
    {
      "constant": false,
      "inputs": [],
      "name": "renounceOwnership",
      "outputs": [],
      "payable": false,
      "stateMutability": "nonpayable",
      "type": "function"
    },
    {
      "constant": false,
      "inputs": [],
      "name": "pause",
      "outputs": [],
      "payable": false,
      "stateMutability": "nonpayable",
      "type": "function"
    },
    {
      "constant": true,
      "inputs": [],
      "name": "owner",
      "outputs": [
        {
          "name": "",
          "type": "address"
        }
      ],
      "payable": false,
      "stateMutability": "view",
      "type": "function"
    },
    {
      "constant": false,
      "inputs": [
        {
          "name": "_newOwner",
          "type": "address"
        }
      ],
      "name": "transferOwnership",
      "outputs": [],
      "payable": false,
      "stateMutability": "nonpayable",
      "type": "function"
    },
    {
      "anonymous": false,
      "inputs": [
        {
          "indexed": true,
          "name": "owner",
          "type": "address"
        },
        {
          "indexed": false,
          "name": "name",
          "type": "string"
        },
        {
          "indexed": false,
          "name": "country",
          "type": "string"
        },
        {
          "indexed": false,
          "name": "city",
          "type": "string"
        },
        {
          "indexed": false,
          "name": "ipfs",
          "type": "string"
        },
        {
          "indexed": false,
          "name": "time",
          "type": "uint256"
        },
        {
          "indexed": false,
          "name": "pending",
          "type": "bool"
        },
        {
          "indexed": false,
          "name": "registered",
          "type": "bool"
        }
      ],
      "name": "Register",
      "type": "event"
    },
    {
      "anonymous": false,
      "inputs": [
        {
          "indexed": false,
          "name": "Admin",
          "type": "address"
        },
        {
          "indexed": true,
          "name": "applicant",
          "type": "address"
        },
        {
          "indexed": false,
          "name": "registeredAs",
          "type": "string"
        },
        {
          "indexed": false,
          "name": "status",
          "type": "string"
        },
        {
          "indexed": false,
          "name": "time",
          "type": "uint256"
        },
        {
          "indexed": false,
          "name": "pending",
          "type": "bool"
        },
        {
          "indexed": true,
          "name": "registrationStatus",
          "type": "bool"
        },
        {
          "indexed": false,
          "name": "rating",
          "type": "uint256"
        }
      ],
      "name": "Registration",
      "type": "event"
    },
    {
      "anonymous": false,
      "inputs": [
        {
          "indexed": true,
          "name": "ownerNeed",
          "type": "address"
        },
        {
          "indexed": false,
          "name": "eventId",
          "type": "uint256"
        },
        {
          "indexed": false,
          "name": "name",
          "type": "string"
        },
        {
          "indexed": false,
          "name": "title",
          "type": "string"
        },
        {
          "indexed": false,
          "name": "item",
          "type": "string"
        },
        {
          "indexed": false,
          "name": "amount",
          "type": "uint256"
        },
        {
          "indexed": false,
          "name": "borrow",
          "type": "bool"
        },
        {
          "indexed": false,
          "name": "endDate",
          "type": "uint256"
        },
        {
          "indexed": false,
          "name": "ipfs",
          "type": "string"
        }
      ],
      "name": "NeedAHand",
      "type": "event"
    },
    {
      "anonymous": false,
      "inputs": [
        {
          "indexed": true,
          "name": "ownerGive",
          "type": "address"
        },
        {
          "indexed": false,
          "name": "eventId",
          "type": "uint256"
        },
        {
          "indexed": false,
          "name": "name",
          "type": "string"
        },
        {
          "indexed": false,
          "name": "title",
          "type": "string"
        },
        {
          "indexed": false,
          "name": "item",
          "type": "string"
        },
        {
          "indexed": false,
          "name": "amount",
          "type": "uint256"
        },
        {
          "indexed": false,
          "name": "borrow",
          "type": "bool"
        },
        {
          "indexed": false,
          "name": "endDate",
          "type": "uint256"
        },
        {
          "indexed": false,
          "name": "ipfs",
          "type": "string"
        }
      ],
      "name": "GiveAHand",
      "type": "event"
    },
    {
      "anonymous": false,
      "inputs": [
        {
          "indexed": true,
          "name": "pledgedBy",
          "type": "address"
        },
        {
          "indexed": false,
          "name": "sender",
          "type": "string"
        },
        {
          "indexed": false,
          "name": "receiver",
          "type": "string"
        },
        {
          "indexed": false,
          "name": "date",
          "type": "uint256"
        },
        {
          "indexed": true,
          "name": "eventId",
          "type": "uint256"
        },
        {
          "indexed": false,
          "name": "item",
          "type": "string"
        },
        {
          "indexed": false,
          "name": "committed",
          "type": "uint256"
        },
        {
          "indexed": true,
          "name": "pledgeTo",
          "type": "address"
        },
        {
          "indexed": false,
          "name": "endDate",
          "type": "uint256"
        },
        {
          "indexed": false,
          "name": "borrow",
          "type": "bool"
        },
        {
          "indexed": false,
          "name": "addedRating",
          "type": "uint256"
        }
      ],
      "name": "Pledged",
      "type": "event"
    },
    {
      "anonymous": false,
      "inputs": [
        {
          "indexed": true,
          "name": "takenBy",
          "type": "address"
        },
        {
          "indexed": false,
          "name": "receiver",
          "type": "string"
        },
        {
          "indexed": false,
          "name": "sender",
          "type": "string"
        },
        {
          "indexed": false,
          "name": "date",
          "type": "uint256"
        },
        {
          "indexed": true,
          "name": "eventId",
          "type": "uint256"
        },
        {
          "indexed": false,
          "name": "item",
          "type": "string"
        },
        {
          "indexed": false,
          "name": "received",
          "type": "uint256"
        },
        {
          "indexed": true,
          "name": "tookFrom",
          "type": "address"
        },
        {
          "indexed": false,
          "name": "endDate",
          "type": "uint256"
        },
        {
          "indexed": false,
          "name": "borrow",
          "type": "bool"
        },
        {
          "indexed": false,
          "name": "addedRating",
          "type": "uint256"
        }
      ],
      "name": "Taken",
      "type": "event"
    },
    {
      "anonymous": false,
      "inputs": [],
      "name": "Pause",
      "type": "event"
    },
    {
      "anonymous": false,
      "inputs": [],
      "name": "Unpause",
      "type": "event"
    },
    {
      "anonymous": false,
      "inputs": [
        {
          "indexed": true,
          "name": "previousOwner",
          "type": "address"
        }
      ],
      "name": "OwnershipRenounced",
      "type": "event"
    },
    {
      "anonymous": false,
      "inputs": [
        {
          "indexed": true,
          "name": "previousOwner",
          "type": "address"
        },
        {
          "indexed": true,
          "name": "newOwner",
          "type": "address"
        }
      ],
      "name": "OwnershipTransferred",
      "type": "event"
    },
    {
      "constant": false,
      "inputs": [
        {
          "name": "_name",
          "type": "string"
        },
        {
          "name": "_country",
          "type": "string"
        },
        {
          "name": "_city",
          "type": "string"
        },
        {
          "name": "_ipfs",
          "type": "string"
        }
      ],
      "name": "register",
      "outputs": [],
      "payable": false,
      "stateMutability": "nonpayable",
      "type": "function"
    },
    {
      "constant": false,
      "inputs": [
        {
          "name": "_applicant",
          "type": "address"
        },
        {
          "name": "_accepted",
          "type": "bool"
        }
      ],
      "name": "approval",
      "outputs": [],
      "payable": false,
      "stateMutability": "nonpayable",
      "type": "function"
    },
    {
      "constant": true,
      "inputs": [
        {
          "name": "_owner",
          "type": "address"
        }
      ],
      "name": "getMemberStatus",
      "outputs": [
        {
          "name": "_name",
          "type": "string"
        },
        {
          "name": "_country",
          "type": "string"
        },
        {
          "name": "_city",
          "type": "string"
        },
        {
          "name": "_ipfs",
          "type": "string"
        },
        {
          "name": "_pending",
          "type": "bool"
        },
        {
          "name": "_registered",
          "type": "bool"
        },
        {
          "name": "_time",
          "type": "uint256"
        },
        {
          "name": "_rating",
          "type": "uint256"
        }
      ],
      "payable": false,
      "stateMutability": "view",
      "type": "function"
    },
    {
      "constant": false,
      "inputs": [
        {
          "name": "_title",
          "type": "string"
        },
        {
          "name": "_category",
          "type": "string"
        },
        {
          "name": "_item",
          "type": "string"
        },
        {
          "name": "_amount",
          "type": "uint256"
        },
        {
          "name": "_borrow",
          "type": "bool"
        },
        {
          "name": "_minimumAmount",
          "type": "uint256"
        },
        {
          "name": "_endDate",
          "type": "uint256"
        },
        {
          "name": "_ipfs",
          "type": "string"
        }
      ],
      "name": "callForHelp",
      "outputs": [],
      "payable": false,
      "stateMutability": "nonpayable",
      "type": "function"
    },
    {
      "constant": false,
      "inputs": [
        {
          "name": "_title",
          "type": "string"
        },
        {
          "name": "_category",
          "type": "string"
        },
        {
          "name": "_item",
          "type": "string"
        },
        {
          "name": "_amount",
          "type": "uint256"
        },
        {
          "name": "_borrow",
          "type": "bool"
        },
        {
          "name": "_minimumAmount",
          "type": "uint256"
        },
        {
          "name": "_endDate",
          "type": "uint256"
        },
        {
          "name": "_ipfs",
          "type": "string"
        }
      ],
      "name": "provideAssistance",
      "outputs": [],
      "payable": false,
      "stateMutability": "nonpayable",
      "type": "function"
    },
    {
      "constant": true,
      "inputs": [
        {
          "name": "_id",
          "type": "uint256"
        }
      ],
      "name": "provideAssistanceDetails",
      "outputs": [
        {
          "name": "title",
          "type": "string"
        },
        {
          "name": "category",
          "type": "string"
        },
        {
          "name": "item",
          "type": "string"
        },
        {
          "name": "amount",
          "type": "uint256"
        },
        {
          "name": "committed",
          "type": "uint256"
        },
        {
          "name": "borrow",
          "type": "bool"
        },
        {
          "name": "minimum",
          "type": "uint256"
        },
        {
          "name": "endDate",
          "type": "uint256"
        },
        {
          "name": "ipfs",
          "type": "string"
        },
        {
          "name": "owner",
          "type": "address"
        }
      ],
      "payable": false,
      "stateMutability": "view",
      "type": "function"
    },
    {
      "constant": true,
      "inputs": [
        {
          "name": "_id",
          "type": "uint256"
        }
      ],
      "name": "callForHelpDetails",
      "outputs": [
        {
          "name": "title",
          "type": "string"
        },
        {
          "name": "category",
          "type": "string"
        },
        {
          "name": "item",
          "type": "string"
        },
        {
          "name": "amount",
          "type": "uint256"
        },
        {
          "name": "committed",
          "type": "uint256"
        },
        {
          "name": "borrow",
          "type": "bool"
        },
        {
          "name": "minumum",
          "type": "uint256"
        },
        {
          "name": "endDate",
          "type": "uint256"
        },
        {
          "name": "ipfs",
          "type": "string"
        },
        {
          "name": "owner",
          "type": "address"
        }
      ],
      "payable": false,
      "stateMutability": "view",
      "type": "function"
    },
    {
      "constant": false,
      "inputs": [
        {
          "name": "_eventId",
          "type": "uint256"
        },
        {
          "name": "_commit",
          "type": "uint256"
        }
      ],
      "name": "pledge",
      "outputs": [],
      "payable": false,
      "stateMutability": "nonpayable",
      "type": "function"
    },
    {
      "constant": false,
      "inputs": [
        {
          "name": "_eventId",
          "type": "uint256"
        },
        {
          "name": "_take",
          "type": "uint256"
        }
      ],
      "name": "take",
      "outputs": [],
      "payable": false,
      "stateMutability": "nonpayable",
      "type": "function"
    },
    {
      "constant": true,
      "inputs": [
        {
          "name": "_owner",
          "type": "address"
        }
      ],
      "name": "needsOf",
      "outputs": [
        {
          "name": "",
          "type": "uint256[]"
        }
      ],
      "payable": false,
      "stateMutability": "view",
      "type": "function"
    },
    {
      "constant": true,
      "inputs": [
        {
          "name": "_owner",
          "type": "address"
        }
      ],
      "name": "assistsOf",
      "outputs": [
        {
          "name": "",
          "type": "uint256[]"
        }
      ],
      "payable": false,
      "stateMutability": "view",
      "type": "function"
    },
    {
      "constant": true,
      "inputs": [],
      "name": "getNeededCount",
      "outputs": [
        {
          "name": "",
          "type": "uint256"
        }
      ],
      "payable": false,
      "stateMutability": "view",
      "type": "function"
    },
    {
      "constant": true,
      "inputs": [],
      "name": "getAssistCount",
      "outputs": [
        {
          "name": "",
          "type": "uint256"
        }
      ],
      "payable": false,
      "stateMutability": "view",
      "type": "function"
    }
  ],
  "bytecode": "0x608060405260008060146101000a81548160ff021916908315150217905550336000806101000a81548173ffffffffffffffffffffffffffffffffffffffff021916908373ffffffffffffffffffffffffffffffffffffffff160217905550615fa68061006d6000396000f300608060405260043610610107576000357c0100000000000000000000000000000000000000000000000000000000900463ffffffff168063034821821461010c57806306e3e9fb1461015b5780630e24c52c146101f35780631dd01a361461032e5780633f4ba83a146103595780634a9b5d0514610370578063509a72e9146105b4578063591413c3146107195780635c975abb14610744578063715018a6146107735780638456cb591461078a5780638da5cb5b146107a157806393368902146107f8578063978b7c0214610a3c578063d528343914610a73578063dde8535f14610b0b578063e729779414610d2f578063f2fde38b14610e94578063fde327be14610ed7575b600080fd5b34801561011857600080fd5b50610159600480360381019080803573ffffffffffffffffffffffffffffffffffffffff169060200190929190803515159060200190929190505050610f0e565b005b34801561016757600080fd5b5061019c600480360381019080803573ffffffffffffffffffffffffffffffffffffffff169060200190929190505050611724565b6040518080602001828103825283818151815260200191508051906020019060200280838360005b838110156101df5780820151818401526020810190506101c4565b505050509050019250505060405180910390f35b3480156101ff57600080fd5b5061032c600480360381019080803590602001908201803590602001908080601f0160208091040260200160405190810160405280939291908181526020018383808284378201915050505050509192919290803590602001908201803590602001908080601f0160208091040260200160405190810160405280939291908181526020018383808284378201915050505050509192919290803590602001908201803590602001908080601f0160208091040260200160405190810160405280939291908181526020018383808284378201915050505050509192919290803590602001908201803590602001908080601f01602080910402602001604051908101604052809392919081815260200183838082843782019150505050505091929192905050506117bb565b005b34801561033a57600080fd5b506103436120c7565b6040518082815260200191505060405180910390f35b34801561036557600080fd5b5061036e6120d4565b005b34801561037c57600080fd5b5061039b60048036038101908080359060200190929190505050612192565b604051808060200180602001806020018b81526020018a815260200189151515158152602001888152602001878152602001806020018673ffffffffffffffffffffffffffffffffffffffff1673ffffffffffffffffffffffffffffffffffffffff16815260200185810385528f818151815260200191508051906020019080838360005b8381101561043b578082015181840152602081019050610420565b50505050905090810190601f1680156104685780820380516001836020036101000a031916815260200191505b5085810384528e818151815260200191508051906020019080838360005b838110156104a1578082015181840152602081019050610486565b50505050905090810190601f1680156104ce5780820380516001836020036101000a031916815260200191505b5085810383528d818151815260200191508051906020019080838360005b838110156105075780820151818401526020810190506104ec565b50505050905090810190601f1680156105345780820380516001836020036101000a031916815260200191505b50858103825287818151815260200191508051906020019080838360005b8381101561056d578082015181840152602081019050610552565b50505050905090810190601f16801561059a5780820380516001836020036101000a031916815260200191505b509e50505050505050505050505050505060405180910390f35b3480156105c057600080fd5b50610717600480360381019080803590602001908201803590602001908080601f0160208091040260200160405190810160405280939291908181526020018383808284378201915050505050509192919290803590602001908201803590602001908080601f0160208091040260200160405190810160405280939291908181526020018383808284378201915050505050509192919290803590602001908201803590602001908080601f0160208091040260200160405190810160405280939291908181526020018383808284378201915050505050509192919290803590602001909291908035151590602001909291908035906020019092919080359060200190929190803590602001908201803590602001908080601f0160208091040260200160405190810160405280939291908181526020018383808284378201915050505050509192919290505050612610565b005b34801561072557600080fd5b5061072e612eb0565b6040518082815260200191505060405180910390f35b34801561075057600080fd5b50610759612ebd565b604051808215151515815260200191505060405180910390f35b34801561077f57600080fd5b50610788612ed0565b005b34801561079657600080fd5b5061079f612fd2565b005b3480156107ad57600080fd5b506107b6613092565b604051808273ffffffffffffffffffffffffffffffffffffffff1673ffffffffffffffffffffffffffffffffffffffff16815260200191505060405180910390f35b34801561080457600080fd5b50610823600480360381019080803590602001909291905050506130b7565b604051808060200180602001806020018b81526020018a815260200189151515158152602001888152602001878152602001806020018673ffffffffffffffffffffffffffffffffffffffff1673ffffffffffffffffffffffffffffffffffffffff16815260200185810385528f818151815260200191508051906020019080838360005b838110156108c35780820151818401526020810190506108a8565b50505050905090810190601f1680156108f05780820380516001836020036101000a031916815260200191505b5085810384528e818151815260200191508051906020019080838360005b8381101561092957808201518184015260208101905061090e565b50505050905090810190601f1680156109565780820380516001836020036101000a031916815260200191505b5085810383528d818151815260200191508051906020019080838360005b8381101561098f578082015181840152602081019050610974565b50505050905090810190601f1680156109bc5780820380516001836020036101000a031916815260200191505b50858103825287818151815260200191508051906020019080838360005b838110156109f55780820151818401526020810190506109da565b50505050905090810190601f168015610a225780820380516001836020036101000a031916815260200191505b509e50505050505050505050505050505060405180910390f35b348015610a4857600080fd5b50610a716004803603810190808035906020019092919080359060200190929190505050613535565b005b348015610a7f57600080fd5b50610ab4600480360381019080803573ffffffffffffffffffffffffffffffffffffffff169060200190929190505050614160565b6040518080602001828103825283818151815260200191508051906020019060200280838360005b83811015610af7578082015181840152602081019050610adc565b505050509050019250505060405180910390f35b348015610b1757600080fd5b50610b4c600480360381019080803573ffffffffffffffffffffffffffffffffffffffff1690602001909291905050506141f7565b6040518080602001806020018060200180602001891515151581526020018815151515815260200187815260200186815260200185810385528d818151815260200191508051906020019080838360005b83811015610bb8578082015181840152602081019050610b9d565b50505050905090810190601f168015610be55780820380516001836020036101000a031916815260200191505b5085810384528c818151815260200191508051906020019080838360005b83811015610c1e578082015181840152602081019050610c03565b50505050905090810190601f168015610c4b5780820380516001836020036101000a031916815260200191505b5085810383528b818151815260200191508051906020019080838360005b83811015610c84578082015181840152602081019050610c69565b50505050905090810190601f168015610cb15780820380516001836020036101000a031916815260200191505b5085810382528a818151815260200191508051906020019080838360005b83811015610cea578082015181840152602081019050610ccf565b50505050905090810190601f168015610d175780820380516001836020036101000a031916815260200191505b509c5050505050505050505050505060405180910390f35b348015610d3b57600080fd5b50610e92600480360381019080803590602001908201803590602001908080601f0160208091040260200160405190810160405280939291908181526020018383808284378201915050505050509192919290803590602001908201803590602001908080601f0160208091040260200160405190810160405280939291908181526020018383808284378201915050505050509192919290803590602001908201803590602001908080601f0160208091040260200160405190810160405280939291908181526020018383808284378201915050505050509192919290803590602001909291908035151590602001909291908035906020019092919080359060200190929190803590602001908201803590602001908080601f0160208091040260200160405190810160405280939291908181526020018383808284378201915050505050509192919290505050614675565b005b348015610ea057600080fd5b50610ed5600480360381019080803573ffffffffffffffffffffffffffffffffffffffff169060200190929190505050614f0e565b005b348015610ee357600080fd5b50610f0c6004803603810190808035906020019092919080359060200190929190505050614f75565b005b6000809054906101000a900473ffffffffffffffffffffffffffffffffffffffff1673ffffffffffffffffffffffffffffffffffffffff163373ffffffffffffffffffffffffffffffffffffffff16141515610f6957600080fd5b600060149054906101000a900460ff16151515610f8557600080fd5b801561122557600660008373ffffffffffffffffffffffffffffffffffffffff1673ffffffffffffffffffffffffffffffffffffffff16815260200190815260200160002060070160009054906101000a900460ff16151561104f576040517f08c379a00000000000000000000000000000000000000000000000000000000081526004018080602001828103825260128152602001807f537461747573206e6f742050656e64696e67000000000000000000000000000081525060200191505060405180910390fd5b6040805190810160405280600a81526020017f5265676973746572656400000000000000000000000000000000000000000000815250600660008473ffffffffffffffffffffffffffffffffffffffff1673ffffffffffffffffffffffffffffffffffffffff16815260200190815260200160002060050190805190602001906110da929190615d01565b5042600660008473ffffffffffffffffffffffffffffffffffffffff1673ffffffffffffffffffffffffffffffffffffffff168152602001908152602001600020600601819055506000600660008473ffffffffffffffffffffffffffffffffffffffff1673ffffffffffffffffffffffffffffffffffffffff16815260200190815260200160002060070160006101000a81548160ff0219169083151502179055506001600660008473ffffffffffffffffffffffffffffffffffffffff1673ffffffffffffffffffffffffffffffffffffffff16815260200190815260200160002060070160016101000a81548160ff0219169083151502179055506023600660008473ffffffffffffffffffffffffffffffffffffffff1673ffffffffffffffffffffffffffffffffffffffff168152602001908152602001600020600801819055506113af565b6040805190810160405280600881526020017f52656a6563746564000000000000000000000000000000000000000000000000815250600660008473ffffffffffffffffffffffffffffffffffffffff1673ffffffffffffffffffffffffffffffffffffffff16815260200190815260200160002060050190805190602001906112b0929190615d01565b5042600660008473ffffffffffffffffffffffffffffffffffffffff1673ffffffffffffffffffffffffffffffffffffffff168152602001908152602001600020600601819055506000600660008473ffffffffffffffffffffffffffffffffffffffff1673ffffffffffffffffffffffffffffffffffffffff16815260200190815260200160002060070160006101000a81548160ff0219169083151502179055506000600660008473ffffffffffffffffffffffffffffffffffffffff1673ffffffffffffffffffffffffffffffffffffffff16815260200190815260200160002060070160016101000a81548160ff0219169083151502179055505b600660008373ffffffffffffffffffffffffffffffffffffffff1673ffffffffffffffffffffffffffffffffffffffff16815260200190815260200160002060070160019054906101000a900460ff161515600660008473ffffffffffffffffffffffffffffffffffffffff1673ffffffffffffffffffffffffffffffffffffffff16815260200190815260200160002060000160009054906101000a900473ffffffffffffffffffffffffffffffffffffffff1673ffffffffffffffffffffffffffffffffffffffff167fba36970dcbe5845620db5e75839cf6e99d4c1ee1341d0f4499e16fdf1fa2641d33600660008773ffffffffffffffffffffffffffffffffffffffff1673ffffffffffffffffffffffffffffffffffffffff168152602001908152602001600020600101600660008873ffffffffffffffffffffffffffffffffffffffff1673ffffffffffffffffffffffffffffffffffffffff16815260200190815260200160002060050142600660008a73ffffffffffffffffffffffffffffffffffffffff1673ffffffffffffffffffffffffffffffffffffffff16815260200190815260200160002060070160009054906101000a900460ff16600660008b73ffffffffffffffffffffffffffffffffffffffff1673ffffffffffffffffffffffffffffffffffffffff16815260200190815260200160002060080154604051808773ffffffffffffffffffffffffffffffffffffffff1673ffffffffffffffffffffffffffffffffffffffff1681526020018060200180602001868152602001851515151581526020018481526020018381038352888181546001816001161561010002031660029004815260200191508054600181600116156101000203166002900480156116895780601f1061165e57610100808354040283529160200191611689565b820191906000526020600020905b81548152906001019060200180831161166c57829003601f168201915b505083810382528781815460018160011615610100020316600290048152602001915080546001816001161561010002031660029004801561170c5780601f106116e15761010080835404028352916020019161170c565b820191906000526020600020905b8154815290600101906020018083116116ef57829003601f168201915b50509850505050505050505060405180910390a35050565b6060600460008373ffffffffffffffffffffffffffffffffffffffff1673ffffffffffffffffffffffffffffffffffffffff1681526020019081526020016000208054806020026020016040519081016040528092919081815260200182805480156117af57602002820191906000526020600020905b81548152602001906001019080831161179b575b50505050509050919050565b6117c3615d81565b60008060149054906101000a900460ff161515156117e057600080fd5b60001515600660003373ffffffffffffffffffffffffffffffffffffffff1673ffffffffffffffffffffffffffffffffffffffff16815260200190815260200160002060070160019054906101000a900460ff161515148015611896575060001515600660003373ffffffffffffffffffffffffffffffffffffffff1673ffffffffffffffffffffffffffffffffffffffff16815260200190815260200160002060070160009054906101000a900460ff161515145b1515611930576040517f08c379a000000000000000000000000000000000000000000000000000000000815260040180806020018281038252602f8152602001807f596f75206172652052656769737465726564206f7220686176652070656e646981526020017f6e6720726567697374726174696f6e000000000000000000000000000000000081525060400191505060405180910390fd5b610140604051908101604052803373ffffffffffffffffffffffffffffffffffffffff1681526020018781526020018681526020018581526020018481526020016040805190810160405280600c81526020017f556e726567697374657265640000000000000000000000000000000000000000815250815260200142815260200160011515815260200160001515815260200160008152509150611b3b600180849080600181540180825580915050906001820390600052602060002090600902016000909192909190915060008201518160000160006101000a81548173ffffffffffffffffffffffffffffffffffffffff021916908373ffffffffffffffffffffffffffffffffffffffff1602179055506020820151816001019080519060200190611a60929190615def565b506040820151816002019080519060200190611a7d929190615def565b506060820151816003019080519060200190611a9a929190615def565b506080820151816004019080519060200190611ab7929190615def565b5060a0820151816005019080519060200190611ad4929190615def565b5060c0820151816006015560e08201518160070160006101000a81548160ff0219169083151502179055506101008201518160070160016101000a81548160ff02191690831515021790555061012082015181600801555050615bd290919063ffffffff16565b905033600660003373ffffffffffffffffffffffffffffffffffffffff1673ffffffffffffffffffffffffffffffffffffffff16815260200190815260200160002060000160006101000a81548173ffffffffffffffffffffffffffffffffffffffff021916908373ffffffffffffffffffffffffffffffffffffffff16021790555085600660003373ffffffffffffffffffffffffffffffffffffffff1673ffffffffffffffffffffffffffffffffffffffff1681526020019081526020016000206001019080519060200190611c14929190615d01565b5084600660003373ffffffffffffffffffffffffffffffffffffffff1673ffffffffffffffffffffffffffffffffffffffff1681526020019081526020016000206002019080519060200190611c6b929190615d01565b5083600660003373ffffffffffffffffffffffffffffffffffffffff1673ffffffffffffffffffffffffffffffffffffffff1681526020019081526020016000206003019080519060200190611cc2929190615d01565b5082600660003373ffffffffffffffffffffffffffffffffffffffff1673ffffffffffffffffffffffffffffffffffffffff1681526020019081526020016000206004019080519060200190611d19929190615d01565b506040805190810160405280600c81526020017f556e726567697374657265640000000000000000000000000000000000000000815250600660003373ffffffffffffffffffffffffffffffffffffffff1673ffffffffffffffffffffffffffffffffffffffff1681526020019081526020016000206005019080519060200190611da5929190615d01565b5042600660003373ffffffffffffffffffffffffffffffffffffffff1673ffffffffffffffffffffffffffffffffffffffff168152602001908152602001600020600601819055506001600660003373ffffffffffffffffffffffffffffffffffffffff1673ffffffffffffffffffffffffffffffffffffffff16815260200190815260200160002060070160006101000a81548160ff0219169083151502179055506000600660003373ffffffffffffffffffffffffffffffffffffffff1673ffffffffffffffffffffffffffffffffffffffff16815260200190815260200160002060070160016101000a81548160ff0219169083151502179055503373ffffffffffffffffffffffffffffffffffffffff167f9b8b74a2f9b947c89f25c47ada2bfe5e5a93b7cb093b57c2601d0c316fa33de68787878742600160006040518080602001806020018060200180602001888152602001871515151581526020018615151515815260200185810385528c818151815260200191508051906020019080838360005b83811015611f4a578082015181840152602081019050611f2f565b50505050905090810190601f168015611f775780820380516001836020036101000a031916815260200191505b5085810384528b818151815260200191508051906020019080838360005b83811015611fb0578082015181840152602081019050611f95565b50505050905090810190601f168015611fdd5780820380516001836020036101000a031916815260200191505b5085810383528a818151815260200191508051906020019080838360005b83811015612016578082015181840152602081019050611ffb565b50505050905090810190601f1680156120435780820380516001836020036101000a031916815260200191505b50858103825289818151815260200191508051906020019080838360005b8381101561207c578082015181840152602081019050612061565b50505050905090810190601f1680156120a95780820380516001836020036101000a031916815260200191505b509b50505050505050505050505060405180910390a2505050505050565b6000600380549050905090565b6000809054906101000a900473ffffffffffffffffffffffffffffffffffffffff1673ffffffffffffffffffffffffffffffffffffffff163373ffffffffffffffffffffffffffffffffffffffff1614151561212f57600080fd5b600060149054906101000a900460ff16151561214a57600080fd5b60008060146101000a81548160ff0219169083151502179055507f7805862f689e2f13df9f062ff482ad3ad112aca9e0847911ed832e158c525b3360405160405180910390a1565b60608060606000806000806000606060006121ab615e6f565b6002805490508c1015156121be57600080fd5b60028c8154811015156121cd57fe5b90600052602060002090600b020161016060405190810160405290816000820160009054906101000a900473ffffffffffffffffffffffffffffffffffffffff1673ffffffffffffffffffffffffffffffffffffffff1673ffffffffffffffffffffffffffffffffffffffff168152602001600182018054600181600116156101000203166002900480601f0160208091040260200160405190810160405280929190818152602001828054600181600116156101000203166002900480156122d75780601f106122ac576101008083540402835291602001916122d7565b820191906000526020600020905b8154815290600101906020018083116122ba57829003601f168201915b50505050508152602001600282018054600181600116156101000203166002900480601f0160208091040260200160405190810160405280929190818152602001828054600181600116156101000203166002900480156123795780601f1061234e57610100808354040283529160200191612379565b820191906000526020600020905b81548152906001019060200180831161235c57829003601f168201915b50505050508152602001600382018054600181600116156101000203166002900480601f01602080910402602001604051908101604052809291908181526020018280546001816001161561010002031660029004801561241b5780601f106123f05761010080835404028352916020019161241b565b820191906000526020600020905b8154815290600101906020018083116123fe57829003601f168201915b50505050508152602001600482018054600181600116156101000203166002900480601f0160208091040260200160405190810160405280929190818152602001828054600181600116156101000203166002900480156124bd5780601f10612492576101008083540402835291602001916124bd565b820191906000526020600020905b8154815290600101906020018083116124a057829003601f168201915b5050505050815260200160058201548152602001600682015481526020016007820160009054906101000a900460ff161515151581526020016008820154815260200160098201548152602001600a82018054600181600116156101000203166002900480601f0160208091040260200160405190810160405280929190818152602001828054600181600116156101000203166002900480156125a25780601f10612577576101008083540402835291602001916125a2565b820191906000526020600020905b81548152906001019060200180831161258557829003601f168201915b50505050508152505090508060400151816060015182608001518360a001518460c001518560e0015186610100015187610120015188610140015189600001518999508898508797508191509a509a509a509a509a509a509a509a509a509a50509193959799509193959799565b612618615e6f565b600080600060149054906101000a900460ff1615151561263757600080fd5b60011515600660003373ffffffffffffffffffffffffffffffffffffffff1673ffffffffffffffffffffffffffffffffffffffff16815260200190815260200160002060070160019054906101000a900460ff1615151480156126ed575060001515600660003373ffffffffffffffffffffffffffffffffffffffff1673ffffffffffffffffffffffffffffffffffffffff16815260200190815260200160002060070160009054906101000a900460ff161515145b1515612761576040517f08c379a00000000000000000000000000000000000000000000000000000000081526004018080602001828103825260168152602001807f596f7520617265204e6f7420526567697374657265640000000000000000000081525060200191505060405180910390fd5b844210151561276f57600080fd5b6014600660003373ffffffffffffffffffffffffffffffffffffffff1673ffffffffffffffffffffffffffffffffffffffff168152602001908152602001600020600801541115156127c057600080fd5b6000881180156127d05750878611155b15156127db57600080fd5b610160604051908101604052803373ffffffffffffffffffffffffffffffffffffffff168152602001600660003373ffffffffffffffffffffffffffffffffffffffff1673ffffffffffffffffffffffffffffffffffffffff1681526020019081526020016000206001018054600181600116156101000203166002900480601f0160208091040260200160405190810160405280929190818152602001828054600181600116156101000203166002900480156128da5780601f106128af576101008083540402835291602001916128da565b820191906000526020600020905b8154815290600101906020018083116128bd57829003601f168201915b505050505081526020018c81526020018b81526020018a8152602001898152602001600081526020018815158152602001878152602001868152602001858152509250612a8360016002859080600181540180825580915050906001820390600052602060002090600b02016000909192909190915060008201518160000160006101000a81548173ffffffffffffffffffffffffffffffffffffffff021916908373ffffffffffffffffffffffffffffffffffffffff16021790555060208201518160010190805190602001906129b3929190615def565b5060408201518160020190805190602001906129d0929190615def565b5060608201518160030190805190602001906129ed929190615def565b506080820151816004019080519060200190612a0a929190615def565b5060a0820151816005015560c0820151816006015560e08201518160070160006101000a81548160ff0219169083151502179055506101008201518160080155610120820151816009015561014082015181600a019080519060200190612a72929190615def565b505050615bd290919063ffffffff16565b9150600460003373ffffffffffffffffffffffffffffffffffffffff1673ffffffffffffffffffffffffffffffffffffffff1681526020019081526020016000208290806001815401808255809150509060018203906000526020600020016000909192909190915055506019600660003373ffffffffffffffffffffffffffffffffffffffff1673ffffffffffffffffffffffffffffffffffffffff16815260200190815260200160002060080154101515612b435760059050612b8c565b6014600660003373ffffffffffffffffffffffffffffffffffffffff1673ffffffffffffffffffffffffffffffffffffffff168152602001908152602001600020600801540390505b612be181600660003373ffffffffffffffffffffffffffffffffffffffff1673ffffffffffffffffffffffffffffffffffffffff16815260200190815260200160002060080154615bd290919063ffffffff16565b600660003373ffffffffffffffffffffffffffffffffffffffff1673ffffffffffffffffffffffffffffffffffffffff168152602001908152602001600020600801819055503373ffffffffffffffffffffffffffffffffffffffff167f56af39cd797e1e26bc0c6fe90ddab891bd3b0113b5101670ca7e2249a34790fc83600660003373ffffffffffffffffffffffffffffffffffffffff1673ffffffffffffffffffffffffffffffffffffffff1681526020019081526020016000206001018e8d8d8d8c8c60405180898152602001806020018060200180602001888152602001871515151581526020018681526020018060200185810385528c818154600181600116156101000203166002900481526020019150805460018160011615610100020316600290048015612d595780601f10612d2e57610100808354040283529160200191612d59565b820191906000526020600020905b815481529060010190602001808311612d3c57829003601f168201915b505085810384528b818151815260200191508051906020019080838360005b83811015612d93578082015181840152602081019050612d78565b50505050905090810190601f168015612dc05780820380516001836020036101000a031916815260200191505b5085810383528a818151815260200191508051906020019080838360005b83811015612df9578082015181840152602081019050612dde565b50505050905090810190601f168015612e265780820380516001836020036101000a031916815260200191505b50858103825286818151815260200191508051906020019080838360005b83811015612e5f578082015181840152602081019050612e44565b50505050905090810190601f168015612e8c5780820380516001836020036101000a031916815260200191505b509c5050505050505050505050505060405180910390a25050505050505050505050565b6000600280549050905090565b600060149054906101000a900460ff1681565b6000809054906101000a900473ffffffffffffffffffffffffffffffffffffffff1673ffffffffffffffffffffffffffffffffffffffff163373ffffffffffffffffffffffffffffffffffffffff16141515612f2b57600080fd5b6000809054906101000a900473ffffffffffffffffffffffffffffffffffffffff1673ffffffffffffffffffffffffffffffffffffffff167ff8df31144d9c2f0f6b59d69b8b98abd5459d07f2742c4df920b25aae33c6482060405160405180910390a260008060006101000a81548173ffffffffffffffffffffffffffffffffffffffff021916908373ffffffffffffffffffffffffffffffffffffffff160217905550565b6000809054906101000a900473ffffffffffffffffffffffffffffffffffffffff1673ffffffffffffffffffffffffffffffffffffffff163373ffffffffffffffffffffffffffffffffffffffff1614151561302d57600080fd5b600060149054906101000a900460ff1615151561304957600080fd5b6001600060146101000a81548160ff0219169083151502179055507f6985a02210a168e66602d3235cb6db0e70f92b3ba4d376a33c0f3d9434bff62560405160405180910390a1565b6000809054906101000a900473ffffffffffffffffffffffffffffffffffffffff1681565b60608060606000806000806000606060006130d0615ee2565b6003805490508c1015156130e357600080fd5b60038c8154811015156130f257fe5b90600052602060002090600b020161016060405190810160405290816000820160009054906101000a900473ffffffffffffffffffffffffffffffffffffffff1673ffffffffffffffffffffffffffffffffffffffff1673ffffffffffffffffffffffffffffffffffffffff168152602001600182018054600181600116156101000203166002900480601f0160208091040260200160405190810160405280929190818152602001828054600181600116156101000203166002900480156131fc5780601f106131d1576101008083540402835291602001916131fc565b820191906000526020600020905b8154815290600101906020018083116131df57829003601f168201915b50505050508152602001600282018054600181600116156101000203166002900480601f01602080910402602001604051908101604052809291908181526020018280546001816001161561010002031660029004801561329e5780601f106132735761010080835404028352916020019161329e565b820191906000526020600020905b81548152906001019060200180831161328157829003601f168201915b50505050508152602001600382018054600181600116156101000203166002900480601f0160208091040260200160405190810160405280929190818152602001828054600181600116156101000203166002900480156133405780601f1061331557610100808354040283529160200191613340565b820191906000526020600020905b81548152906001019060200180831161332357829003601f168201915b50505050508152602001600482018054600181600116156101000203166002900480601f0160208091040260200160405190810160405280929190818152602001828054600181600116156101000203166002900480156133e25780601f106133b7576101008083540402835291602001916133e2565b820191906000526020600020905b8154815290600101906020018083116133c557829003601f168201915b5050505050815260200160058201548152602001600682015481526020016007820160009054906101000a900460ff161515151581526020016008820154815260200160098201548152602001600a82018054600181600116156101000203166002900480601f0160208091040260200160405190810160405280929190818152602001828054600181600116156101000203166002900480156134c75780601f1061349c576101008083540402835291602001916134c7565b820191906000526020600020905b8154815290600101906020018083116134aa57829003601f168201915b50505050508152505090508060400151816060015182608001518360a001518460c001518560e0015186610100015187610120015188610140015189600001518999508898508797508191509a509a509a509a509a509a509a509a509a509a50509193959799509193959799565b61353d615ee2565b60008060149054906101000a900460ff1615151561355a57600080fd5b60011515600660003373ffffffffffffffffffffffffffffffffffffffff1673ffffffffffffffffffffffffffffffffffffffff16815260200190815260200160002060070160019054906101000a900460ff161515148015613610575060001515600660003373ffffffffffffffffffffffffffffffffffffffff1673ffffffffffffffffffffffffffffffffffffffff16815260200190815260200160002060070160009054906101000a900460ff161515145b1515613684576040517f08c379a00000000000000000000000000000000000000000000000000000000081526004018080602001828103825260168152602001807f596f7520617265204e6f7420526567697374657265640000000000000000000081525060200191505060405180910390fd5b6003805490508410151561369757600080fd5b6003848154811015156136a657fe5b90600052602060002090600b020161016060405190810160405290816000820160009054906101000a900473ffffffffffffffffffffffffffffffffffffffff1673ffffffffffffffffffffffffffffffffffffffff1673ffffffffffffffffffffffffffffffffffffffff168152602001600182018054600181600116156101000203166002900480601f0160208091040260200160405190810160405280929190818152602001828054600181600116156101000203166002900480156137b05780601f10613785576101008083540402835291602001916137b0565b820191906000526020600020905b81548152906001019060200180831161379357829003601f168201915b50505050508152602001600282018054600181600116156101000203166002900480601f0160208091040260200160405190810160405280929190818152602001828054600181600116156101000203166002900480156138525780601f1061382757610100808354040283529160200191613852565b820191906000526020600020905b81548152906001019060200180831161383557829003601f168201915b50505050508152602001600382018054600181600116156101000203166002900480601f0160208091040260200160405190810160405280929190818152602001828054600181600116156101000203166002900480156138f45780601f106138c9576101008083540402835291602001916138f4565b820191906000526020600020905b8154815290600101906020018083116138d757829003601f168201915b50505050508152602001600482018054600181600116156101000203166002900480601f0160208091040260200160405190810160405280929190818152602001828054600181600116156101000203166002900480156139965780601f1061396b57610100808354040283529160200191613996565b820191906000526020600020905b81548152906001019060200180831161397957829003601f168201915b5050505050815260200160058201548152602001600682015481526020016007820160009054906101000a900460ff161515151581526020016008820154815260200160098201548152602001600a82018054600181600116156101000203166002900480601f016020809104026020016040519081016040528092919081815260200182805460018160011615610100020316600290048015613a7b5780601f10613a5057610100808354040283529160200191613a7b565b820191906000526020600020905b815481529060010190602001808311613a5e57829003601f168201915b5050505050815250509150600a600660003373ffffffffffffffffffffffffffffffffffffffff1673ffffffffffffffffffffffffffffffffffffffff16815260200190815260200160002060080154111515613ad757600080fd5b600083118015613b075750600384815481101515613af157fe5b90600052602060002090600b0201600601548311155b1515613b1257600080fd5b600384815481101515613b2157fe5b90600052602060002090600b020160080154600385815481101515613b4257fe5b90600052602060002090600b020160060154101515613b8b57600384815481101515613b6a57fe5b90600052602060002090600b0201600801548310151515613b8a57600080fd5b5b600384815481101515613b9a57fe5b90600052602060002090600b020160000160009054906101000a900473ffffffffffffffffffffffffffffffffffffffff1673ffffffffffffffffffffffffffffffffffffffff163373ffffffffffffffffffffffffffffffffffffffff1614151515613c0657600080fd5b42600385815481101515613c1657fe5b90600052602060002090600b020160090154111515613c3457600080fd5b613c6783600386815481101515613c4757fe5b90600052602060002090600b020160060154615bd290919063ffffffff16565b600385815481101515613c7657fe5b90600052602060002090600b020160060181905550600d600660003373ffffffffffffffffffffffffffffffffffffffff1673ffffffffffffffffffffffffffffffffffffffff16815260200190815260200160002060080154101515613ce05760039050613d29565b600a600660003373ffffffffffffffffffffffffffffffffffffffff1673ffffffffffffffffffffffffffffffffffffffff168152602001908152602001600020600801540390505b613d7e81600660003373ffffffffffffffffffffffffffffffffffffffff1673ffffffffffffffffffffffffffffffffffffffff16815260200190815260200160002060080154615bd290919063ffffffff16565b600660003373ffffffffffffffffffffffffffffffffffffffff1673ffffffffffffffffffffffffffffffffffffffff16815260200190815260200160002060080181905550600384815481101515613dd357fe5b90600052602060002090600b020160000160009054906101000a900473ffffffffffffffffffffffffffffffffffffffff1673ffffffffffffffffffffffffffffffffffffffff16843373ffffffffffffffffffffffffffffffffffffffff167ff61741ddb770bbec4972ca0d1fc15e1e0645c44a0d1af42552bf97315de2972b600660003373ffffffffffffffffffffffffffffffffffffffff1673ffffffffffffffffffffffffffffffffffffffff1681526020019081526020016000206001016006600060038b815481101515613ea957fe5b90600052602060002090600b020160000160009054906101000a900473ffffffffffffffffffffffffffffffffffffffff1673ffffffffffffffffffffffffffffffffffffffff1673ffffffffffffffffffffffffffffffffffffffff1681526020019081526020016000206001014260038b815481101515613f2857fe5b90600052602060002090600b02016004018a60038d815481101515613f4957fe5b90600052602060002090600b02016009015460038e815481101515613f6a57fe5b90600052602060002090600b020160070160009054906101000a900460ff168b604051808060200180602001898152602001806020018881526020018781526020018615151515815260200185815260200184810384528c81815460018160011615610100020316600290048152602001915080546001816001161561010002031660029004801561403d5780601f106140125761010080835404028352916020019161403d565b820191906000526020600020905b81548152906001019060200180831161402057829003601f168201915b505084810383528b8181546001816001161561010002031660029004815260200191508054600181600116156101000203166002900480156140c05780601f10614095576101008083540402835291602001916140c0565b820191906000526020600020905b8154815290600101906020018083116140a357829003601f168201915b50508481038252898181546001816001161561010002031660029004815260200191508054600181600116156101000203166002900480156141435780601f1061411857610100808354040283529160200191614143565b820191906000526020600020905b81548152906001019060200180831161412657829003601f168201915b50509b50505050505050505050505060405180910390a450505050565b6060600560008373ffffffffffffffffffffffffffffffffffffffff1673ffffffffffffffffffffffffffffffffffffffff1681526020019081526020016000208054806020026020016040519081016040528092919081815260200182805480156141eb57602002820191906000526020600020905b8154815260200190600101908083116141d7575b50505050509050919050565b60608060608060008060008061420b615d81565b600660008b73ffffffffffffffffffffffffffffffffffffffff1673ffffffffffffffffffffffffffffffffffffffff16815260200190815260200160002061014060405190810160405290816000820160009054906101000a900473ffffffffffffffffffffffffffffffffffffffff1673ffffffffffffffffffffffffffffffffffffffff1673ffffffffffffffffffffffffffffffffffffffff168152602001600182018054600181600116156101000203166002900480601f0160208091040260200160405190810160405280929190818152602001828054600181600116156101000203166002900480156143465780601f1061431b57610100808354040283529160200191614346565b820191906000526020600020905b81548152906001019060200180831161432957829003601f168201915b50505050508152602001600282018054600181600116156101000203166002900480601f0160208091040260200160405190810160405280929190818152602001828054600181600116156101000203166002900480156143e85780601f106143bd576101008083540402835291602001916143e8565b820191906000526020600020905b8154815290600101906020018083116143cb57829003601f168201915b50505050508152602001600382018054600181600116156101000203166002900480601f01602080910402602001604051908101604052809291908181526020018280546001816001161561010002031660029004801561448a5780601f1061445f5761010080835404028352916020019161448a565b820191906000526020600020905b81548152906001019060200180831161446d57829003601f168201915b50505050508152602001600482018054600181600116156101000203166002900480601f01602080910402602001604051908101604052809291908181526020018280546001816001161561010002031660029004801561452c5780601f106145015761010080835404028352916020019161452c565b820191906000526020600020905b81548152906001019060200180831161450f57829003601f168201915b50505050508152602001600582018054600181600116156101000203166002900480601f0160208091040260200160405190810160405280929190818152602001828054600181600116156101000203166002900480156145ce5780601f106145a3576101008083540402835291602001916145ce565b820191906000526020600020905b8154815290600101906020018083116145b157829003601f168201915b50505050508152602001600682015481526020016007820160009054906101000a900460ff161515151581526020016007820160019054906101000a900460ff16151515158152602001600882015481525050905080602001518160400151826060015183608001518460e001518561010001518660c001518761012001518797508696508595508494509850985098509850985098509850985050919395975091939597565b61467d615ee2565b600080600060149054906101000a900460ff1615151561469c57600080fd5b60011515600660003373ffffffffffffffffffffffffffffffffffffffff1673ffffffffffffffffffffffffffffffffffffffff16815260200190815260200160002060070160019054906101000a900460ff161515148015614752575060001515600660003373ffffffffffffffffffffffffffffffffffffffff1673ffffffffffffffffffffffffffffffffffffffff16815260200190815260200160002060070160009054906101000a900460ff161515145b15156147c6576040517f08c379a00000000000000000000000000000000000000000000000000000000081526004018080602001828103825260168152602001807f596f7520617265204e6f7420526567697374657265640000000000000000000081525060200191505060405180910390fd5b84421015156147d457600080fd5b6000881180156147e45750878611155b15156147ef57600080fd5b610160604051908101604052803373ffffffffffffffffffffffffffffffffffffffff168152602001600660003373ffffffffffffffffffffffffffffffffffffffff1673ffffffffffffffffffffffffffffffffffffffff1681526020019081526020016000206001018054600181600116156101000203166002900480601f0160208091040260200160405190810160405280929190818152602001828054600181600116156101000203166002900480156148ee5780601f106148c3576101008083540402835291602001916148ee565b820191906000526020600020905b8154815290600101906020018083116148d157829003601f168201915b505050505081526020018c81526020018b81526020018a81526020018981526020018981526020018815158152602001878152602001868152602001858152509250614a9660016003859080600181540180825580915050906001820390600052602060002090600b02016000909192909190915060008201518160000160006101000a81548173ffffffffffffffffffffffffffffffffffffffff021916908373ffffffffffffffffffffffffffffffffffffffff16021790555060208201518160010190805190602001906149c6929190615def565b5060408201518160020190805190602001906149e3929190615def565b506060820151816003019080519060200190614a00929190615def565b506080820151816004019080519060200190614a1d929190615def565b5060a0820151816005015560c0820151816006015560e08201518160070160006101000a81548160ff0219169083151502179055506101008201518160080155610120820151816009015561014082015181600a019080519060200190614a85929190615def565b505050615bd290919063ffffffff16565b9150600560003373ffffffffffffffffffffffffffffffffffffffff1673ffffffffffffffffffffffffffffffffffffffff1681526020019081526020016000208290806001815401808255809150509060018203906000526020600020016000909192909190915055506037600660003373ffffffffffffffffffffffffffffffffffffffff1673ffffffffffffffffffffffffffffffffffffffff168152602001908152602001600020600801541015614b555760059050614b9e565b600660003373ffffffffffffffffffffffffffffffffffffffff1673ffffffffffffffffffffffffffffffffffffffff16815260200190815260200160002060080154603c0390505b603c600660003373ffffffffffffffffffffffffffffffffffffffff1673ffffffffffffffffffffffffffffffffffffffff168152602001908152602001600020600801541015614c8557614c3e81600660003373ffffffffffffffffffffffffffffffffffffffff1673ffffffffffffffffffffffffffffffffffffffff16815260200190815260200160002060080154615beb90919063ffffffff16565b600660003373ffffffffffffffffffffffffffffffffffffffff1673ffffffffffffffffffffffffffffffffffffffff168152602001908152602001600020600801819055505b3373ffffffffffffffffffffffffffffffffffffffff167fe72779d9c6807bcad06971a8b4add3191f8990da751249876fa6b4d49080dd5183600660003373ffffffffffffffffffffffffffffffffffffffff1673ffffffffffffffffffffffffffffffffffffffff1681526020019081526020016000206001018e8d8d8d8c8c60405180898152602001806020018060200180602001888152602001871515151581526020018681526020018060200185810385528c818154600181600116156101000203166002900481526020019150805460018160011615610100020316600290048015614db75780601f10614d8c57610100808354040283529160200191614db7565b820191906000526020600020905b815481529060010190602001808311614d9a57829003601f168201915b505085810384528b818151815260200191508051906020019080838360005b83811015614df1578082015181840152602081019050614dd6565b50505050905090810190601f168015614e1e5780820380516001836020036101000a031916815260200191505b5085810383528a818151815260200191508051906020019080838360005b83811015614e57578082015181840152602081019050614e3c565b50505050905090810190601f168015614e845780820380516001836020036101000a031916815260200191505b50858103825286818151815260200191508051906020019080838360005b83811015614ebd578082015181840152602081019050614ea2565b50505050905090810190601f168015614eea5780820380516001836020036101000a031916815260200191505b509c5050505050505050505050505060405180910390a25050505050505050505050565b6000809054906101000a900473ffffffffffffffffffffffffffffffffffffffff1673ffffffffffffffffffffffffffffffffffffffff163373ffffffffffffffffffffffffffffffffffffffff16141515614f6957600080fd5b614f7281615c07565b50565b614f7d615e6f565b60008060149054906101000a900460ff16151515614f9a57600080fd5b60011515600660003373ffffffffffffffffffffffffffffffffffffffff1673ffffffffffffffffffffffffffffffffffffffff16815260200190815260200160002060070160019054906101000a900460ff161515148015615050575060001515600660003373ffffffffffffffffffffffffffffffffffffffff1673ffffffffffffffffffffffffffffffffffffffff16815260200190815260200160002060070160009054906101000a900460ff161515145b15156150c4576040517f08c379a00000000000000000000000000000000000000000000000000000000081526004018080602001828103825260168152602001807f596f7520617265204e6f7420526567697374657265640000000000000000000081525060200191505060405180910390fd5b600280549050841015156150d757600080fd5b6002848154811015156150e657fe5b90600052602060002090600b020161016060405190810160405290816000820160009054906101000a900473ffffffffffffffffffffffffffffffffffffffff1673ffffffffffffffffffffffffffffffffffffffff1673ffffffffffffffffffffffffffffffffffffffff168152602001600182018054600181600116156101000203166002900480601f0160208091040260200160405190810160405280929190818152602001828054600181600116156101000203166002900480156151f05780601f106151c5576101008083540402835291602001916151f0565b820191906000526020600020905b8154815290600101906020018083116151d357829003601f168201915b50505050508152602001600282018054600181600116156101000203166002900480601f0160208091040260200160405190810160405280929190818152602001828054600181600116156101000203166002900480156152925780601f1061526757610100808354040283529160200191615292565b820191906000526020600020905b81548152906001019060200180831161527557829003601f168201915b50505050508152602001600382018054600181600116156101000203166002900480601f0160208091040260200160405190810160405280929190818152602001828054600181600116156101000203166002900480156153345780601f1061530957610100808354040283529160200191615334565b820191906000526020600020905b81548152906001019060200180831161531757829003601f168201915b50505050508152602001600482018054600181600116156101000203166002900480601f0160208091040260200160405190810160405280929190818152602001828054600181600116156101000203166002900480156153d65780601f106153ab576101008083540402835291602001916153d6565b820191906000526020600020905b8154815290600101906020018083116153b957829003601f168201915b5050505050815260200160058201548152602001600682015481526020016007820160009054906101000a900460ff161515151581526020016008820154815260200160098201548152602001600a82018054600181600116156101000203166002900480601f0160208091040260200160405190810160405280929190818152602001828054600181600116156101000203166002900480156154bb5780601f10615490576101008083540402835291602001916154bb565b820191906000526020600020905b81548152906001019060200180831161549e57829003601f168201915b50505050508152505091506000831115156154d557600080fd5b6002848154811015156154e457fe5b90600052602060002090600b0201600501548311158015615557575061555360028581548110151561551257fe5b90600052602060002090600b02016006015460028681548110151561553357fe5b90600052602060002090600b020160050154615bd290919063ffffffff16565b8311155b151561556257600080fd5b60028481548110151561557157fe5b90600052602060002090600b02016008015460028581548110151561559257fe5b90600052602060002090600b0201600601546002868154811015156155b357fe5b90600052602060002090600b020160050154031015156155fd576002848154811015156155dc57fe5b90600052602060002090600b02016008015483101515156155fc57600080fd5b5b60028481548110151561560c57fe5b90600052602060002090600b020160000160009054906101000a900473ffffffffffffffffffffffffffffffffffffffff1673ffffffffffffffffffffffffffffffffffffffff163373ffffffffffffffffffffffffffffffffffffffff161415151561567857600080fd5b4260028581548110151561568857fe5b90600052602060002090600b0201600901541115156156a657600080fd5b6156d9836002868154811015156156b957fe5b90600052602060002090600b020160060154615beb90919063ffffffff16565b6002858154811015156156e857fe5b90600052602060002090600b0201600601819055506039600660003373ffffffffffffffffffffffffffffffffffffffff1673ffffffffffffffffffffffffffffffffffffffff16815260200190815260200160002060080154111515615752576003905061579b565b600660003373ffffffffffffffffffffffffffffffffffffffff1673ffffffffffffffffffffffffffffffffffffffff16815260200190815260200160002060080154603c0390505b6157f081600660003373ffffffffffffffffffffffffffffffffffffffff1673ffffffffffffffffffffffffffffffffffffffff16815260200190815260200160002060080154615beb90919063ffffffff16565b600660003373ffffffffffffffffffffffffffffffffffffffff1673ffffffffffffffffffffffffffffffffffffffff1681526020019081526020016000206008018190555060028481548110151561584557fe5b90600052602060002090600b020160000160009054906101000a900473ffffffffffffffffffffffffffffffffffffffff1673ffffffffffffffffffffffffffffffffffffffff16843373ffffffffffffffffffffffffffffffffffffffff167f2f07d9686181cfbdde1b89e2a9bdb55a4bb0eeae84f593facb7e08cde73fdb9b600660003373ffffffffffffffffffffffffffffffffffffffff1673ffffffffffffffffffffffffffffffffffffffff1681526020019081526020016000206001016006600060028b81548110151561591b57fe5b90600052602060002090600b020160000160009054906101000a900473ffffffffffffffffffffffffffffffffffffffff1673ffffffffffffffffffffffffffffffffffffffff1673ffffffffffffffffffffffffffffffffffffffff1681526020019081526020016000206001014260028b81548110151561599a57fe5b90600052602060002090600b02016004018a60028d8154811015156159bb57fe5b90600052602060002090600b02016009015460028e8154811015156159dc57fe5b90600052602060002090600b020160070160009054906101000a900460ff168b604051808060200180602001898152602001806020018881526020018781526020018615151515815260200185815260200184810384528c818154600181600116156101000203166002900481526020019150805460018160011615610100020316600290048015615aaf5780601f10615a8457610100808354040283529160200191615aaf565b820191906000526020600020905b815481529060010190602001808311615a9257829003601f168201915b505084810383528b818154600181600116156101000203166002900481526020019150805460018160011615610100020316600290048015615b325780601f10615b0757610100808354040283529160200191615b32565b820191906000526020600020905b815481529060010190602001808311615b1557829003601f168201915b5050848103825289818154600181600116156101000203166002900481526020019150805460018160011615610100020316600290048015615bb55780601f10615b8a57610100808354040283529160200191615bb5565b820191906000526020600020905b815481529060010190602001808311615b9857829003601f168201915b50509b50505050505050505050505060405180910390a450505050565b6000828211151515615be057fe5b818303905092915050565b60008183019050828110151515615bfe57fe5b80905092915050565b600073ffffffffffffffffffffffffffffffffffffffff168173ffffffffffffffffffffffffffffffffffffffff1614151515615c4357600080fd5b8073ffffffffffffffffffffffffffffffffffffffff166000809054906101000a900473ffffffffffffffffffffffffffffffffffffffff1673ffffffffffffffffffffffffffffffffffffffff167f8be0079c531659141344cd1fd0a4f28419497f9722a3daafe3b4186f6b6457e060405160405180910390a3806000806101000a81548173ffffffffffffffffffffffffffffffffffffffff021916908373ffffffffffffffffffffffffffffffffffffffff16021790555050565b828054600181600116156101000203166002900490600052602060002090601f016020900481019282601f10615d4257805160ff1916838001178555615d70565b82800160010185558215615d70579182015b82811115615d6f578251825591602001919060010190615d54565b5b509050615d7d9190615f55565b5090565b61014060405190810160405280600073ffffffffffffffffffffffffffffffffffffffff168152602001606081526020016060815260200160608152602001606081526020016060815260200160008152602001600015158152602001600015158152602001600081525090565b828054600181600116156101000203166002900490600052602060002090601f016020900481019282601f10615e3057805160ff1916838001178555615e5e565b82800160010185558215615e5e579182015b82811115615e5d578251825591602001919060010190615e42565b5b509050615e6b9190615f55565b5090565b61016060405190810160405280600073ffffffffffffffffffffffffffffffffffffffff1681526020016060815260200160608152602001606081526020016060815260200160008152602001600081526020016000151581526020016000815260200160008152602001606081525090565b61016060405190810160405280600073ffffffffffffffffffffffffffffffffffffffff1681526020016060815260200160608152602001606081526020016060815260200160008152602001600081526020016000151581526020016000815260200160008152602001606081525090565b615f7791905b80821115615f73576000816000905550600101615f5b565b5090565b905600a165627a7a723058205e5729d565633b982fcc7a6942f0d94a5b2c46c03933c6db5058571ce08b5a140029",
  "source": "pragma solidity ^0.4.24;\n    \nimport 'openzeppelin-solidity/contracts/lifecycle/Pausable.sol';\nimport 'openzeppelin-solidity/contracts/math/SafeMath.sol';\n\n\n/**\n* @title Shelter\n* @dev Is a platform that people escpecially refugees & victims of war in Ukraine could utilize to look for help, connect & form alliance with other members.\n* Members in Shelter could call for help & post/borrow essential items that they need at the moment or will be needing in the near future.\n* Member that has extra essential items could form a pool and post/give items that they think will be helpful to other members.\n* Every registered mambers of Shelter has a rating that corresponds to their actions on the platform.\n* Some features/functions will be unavailable to a registered member if their rating drops a certain point.\n*/\n\ncontract Shelter is Pausable {\n\tusing SafeMath for uint;\n\n\tstruct Member {\n\t    address owner;\n\t    string name;\n\t    string country;\n\t    string city;\n\t    string ipfs;\n\t    string status;\n\t    uint time;\n\t    bool pending;\n\t    bool registered;\n\t    uint rating;\n\t}\n\t\n\n\tstruct NeedHelp {\n\t\taddress owner;\n\t\tstring name;\n\t\tstring title;\n\t\tstring category;\n\t\tstring item;\n\t\tuint amount;\n\t\tuint committed;\n\t\tbool borrow;\n\t\tuint minimum;\n\t\tuint endDate;\n\t\tstring ipfs;\n\t}\n\t\n\tstruct GiveHelp {\n\t\taddress owner;\n\t\tstring name;\n\t\tstring title;\n\t\tstring category;\n\t\tstring item;\n\t\tuint amount;\n\t\tuint committed;\n\t\tbool borrow;\n\t\tuint minimum;\n\t\tuint endDate;\n\t\tstring ipfs;\n\t\n\t}\n\t\n    Member[] private member;\n\tNeedHelp[] private needHelp;\n\tGiveHelp[] private giveHelp;\n\t\n\tmapping(address => uint256[]) private neededEvents;\n\tmapping(address => uint256[]) private givenEvents;\n\tmapping(address => Member) private registered;\n\n\n\t\t\n    event Register(address indexed owner, string name, string country, string city, string ipfs, uint time, bool pending, bool registered);\t\n\t\n\tevent Registration(address Admin, address indexed applicant, string registeredAs, string status, uint time, bool pending, bool indexed registrationStatus, uint rating);\n\n\tevent NeedAHand(address indexed ownerNeed, uint eventId, string name,string title,string item, uint amount, bool borrow, uint endDate, string ipfs);\n\tevent GiveAHand(address indexed ownerGive, uint eventId, string name,string title, string item, uint amount, bool borrow, uint endDate, string ipfs);\n\n    event Pledged(address indexed pledgedBy, string sender , string receiver,uint date, uint indexed eventId, string item, uint committed, address indexed pledgeTo,uint endDate,bool borrow, uint addedRating);\n    event Taken(address indexed takenBy, string receiver , string sender,uint date, uint indexed eventId,string item,uint received, address indexed tookFrom,uint endDate,bool borrow, uint addedRating);\n\n\n    /**\n\t* @dev Function Request Registration.\n\t* @param _name string - Name of regisrant.\n\t* @param _country string - The country where the requester is located.\n\t* @param _city string - The city where the  requester is located.\n\t* @param _ipfs - The IPFS hash containing additional information about the  requester.\n\n\t* @notice Requires that the contract is not paused.\n\t* @notice Requires that the applicant address is not yet registered & does not have a pending registration.\n\t*/\n    \n\tfunction register(\n\t\tstring _name,\n\t    string _country,\n\t    string _city,\n\t    string _ipfs\n    \t)\n        whenNotPaused()\n\t\tpublic\n\t\t\n\t{\n\t    require(registered[msg.sender].registered == false && registered[msg.sender].pending == false, \"You are Registered or have pending registration\");\n\t    \n\t\tMember memory _registerMember = Member({\n\t\t\towner: msg.sender,\n\t\t\tname: _name,\n\t\t    country: _country,\n\t\t\tcity: _city,\n\t\t\tipfs: _ipfs,\n\t\t\tstatus: \"Unregistered\",\n\t\t\ttime: now,\n\t\t\tpending: true,\n\t\t\tregistered: false,\n\t\t\trating:0\n\t\t\t\n\t\t});\n\t\tuint _memberID = member.push(_registerMember).sub(1);\n\t\tregistered[msg.sender].owner = msg.sender;\n\t\tregistered[msg.sender].name = _name;\n\t\tregistered[msg.sender].country = _country;\n\t\tregistered[msg.sender].city = _city;\n\t\tregistered[msg.sender].ipfs = _ipfs;\n\t\tregistered[msg.sender].status = \"Unregistered\";\n\t\tregistered[msg.sender].time = now;\n\t\tregistered[msg.sender].pending = true;\n\t\tregistered[msg.sender].registered = false;\n\t\temit Register(msg.sender, _name, _country, _city, _ipfs, now, true, false);\n\t}\n\t\n\t/**\n\t* @dev Function to Accept/Reject or Revoke Registration .\n\t* @param _applicant address - The Ethereum Address of the applicant.\n\t* @param _accepted - If true Ethereum Address Registration is accepted.\n\n\t* @notice Requires that the contract is not paused.\n\t* @notice Requires that the approver is the owner of contract.\n\t* @notice Requires that the applicant address does not have a pending registration.\n\t*/\n\t\n    function approval(address _applicant, bool _accepted)\n\t\tpublic\n\t\tonlyOwner()\n\t\twhenNotPaused()\n\n\t{\n\t    if(_accepted){\n\t    require(registered[_applicant].pending , \"Status not Pending\");\n        registered[_applicant].status = \"Registered\";\n\t\tregistered[_applicant].time = now;\n        registered[_applicant].pending = false;\n        registered[_applicant].registered = true;\n        registered[_applicant].rating = 35;\n\t    }\n        \n        else{\n        registered[_applicant].status = \"Rejected\";\n\t\tregistered[_applicant].time = now;\n        registered[_applicant].pending = false;\n        registered[_applicant].registered = false;\n  \n        }\n        emit Registration(msg.sender, registered[_applicant].owner,registered[_applicant].name,registered[_applicant].status,now,registered[_applicant].pending,registered[_applicant].registered,registered[_applicant].rating);\n\t}\n\t\n\t/**\n\t* @dev Function to show information about the member.\n\t* @param _owner address - The Ethereum Address of the member.\n\t* @return _name string - The name of the member.\n\t* @return _country string - The country where the member is located.\n\t* @return _city string - The city where the member is located.\n\t* @return _ipfs string - The IPFS hash containing additional information about event.\n\t* @return _pending bool - If true account has a pending registration.\n\t* @return _registered bool - If true account is registered.\n\t* @return _time uint - time of registration.\n\t* @return _rating uint - The rating of the account.\n\n\t*/\n\t\n\n\tfunction getMemberStatus(address _owner)\n\t    public\n\t    view\n\t    returns(\n\t        string _name,\n\t        string _country,\n\t        string _city,\n\t        string _ipfs,\n\t        bool _pending, \n\t        bool _registered,\n\t        uint _time,\n\t        uint _rating\n\t    ){\n\t   Member memory _registermember = registered[_owner];\n\t    return(\n\n\t\t    _registermember.name,\n\t\t\t_registermember.country,\n\t\t\t_registermember.city,\n\t\t\t_registermember.ipfs,\n\t\t\t_registermember.pending,\n\t\t\t_registermember.registered,\n\t\t\t_registermember.time,\n\t\t\t_registermember.rating\n\t\t\t\n\t\t);\n\t}\n\t\n\t\n    /**\n\t* @dev Function creates the event to Call For Help.\n\t* @param _title string - The title of the event.\n\t* @param _category string - The category of the item.\n\t* @param _item string - The name of item.\n\t* @param _amount uint - The total amount of items needed.\n\t* @param _borrow bool - True if the items is expected to be returned in the future.\n\t* @param _minimumAmount - minimum amount to pledge.\n\t* @param _endDate - End date of the event.\n\t* @param _ipfs - The IPFS hash containing additional information about the event.\n\n\t* @notice Requires that the contract is not paused.\n    * @notice Requires that the sender is registered.\n\t* @notice Requires that the event time is in the future.\n\t* @notice Requires that the sender rating is greater than or equal to 20.\n    * @notice Requires that the amount is greater than 0.\n\t*/\n\t\n\tfunction callForHelp(\n\t\tstring _title,\n\t\tstring _category,\n\t\tstring _item,\n\t\tuint _amount,\n\t\tbool _borrow,\n\t\tuint _minimumAmount,\n\t\tuint _endDate,\n\t\tstring _ipfs\n\t\n\t)\n    whenNotPaused()\n\t\tpublic\n\t{\n\t    require(registered[msg.sender].registered == true && registered[msg.sender].pending == false, \"You are Not Registered\");\n\t    require(now < _endDate);\n\t    require(registered[msg.sender].rating > 20);\n\t    require(_amount > 0 && _minimumAmount <= _amount);\n   \n\t\tNeedHelp memory _event = NeedHelp({\n\t\t\towner: msg.sender,\n\t\t\tname: registered[msg.sender].name,\n\t\t\ttitle: _title,\n\t\t\tcategory: _category,\n\t\t\titem: _item,\n\t\t\tamount: _amount,\n\t\t\tcommitted:0,\n\t\t\tborrow: _borrow,\n\t\t\tminimum: _minimumAmount,\n\t\t\tendDate: _endDate,\n\t\t\tipfs: _ipfs\n\t\t\t\n\t\t\t\n\t\t});\n      \tuint _eventId = needHelp.push(_event).sub(1);\n\t\tneededEvents[msg.sender].push(_eventId);\n\t\t\n\t\tif(registered[msg.sender].rating >= 25){\n\t\t    uint _subtractedRating = 5;\n\t\t    \n\t\t}\n\t\telse {\n\t\t    _subtractedRating = registered[msg.sender].rating - 20;\n\t\t   \n\t\t}\n\t    \n\t\tregistered[msg.sender].rating = registered[msg.sender].rating.sub(_subtractedRating);\n\t\temit NeedAHand(msg.sender, _eventId,registered[msg.sender].name,_title,_item, _amount, _borrow,_endDate,_ipfs); \n\n\t}\n\t\n\t/**\n\t* @dev Function creates the event to Provide Assistance.\n\t* @param _title string - The title of the event.\n\t* @param _category string - The category of the item.\n\t* @param _item string - The name of item.\n\t* @param _amount uint - The total amount of items to be given.\n\t* @param _borrow bool - True if the items is expected to be returned in the future.\n\t* @param _minimumAmount - minimum amount to take.\n\t* @param _endDate - End date of the event.\n\t* @param _ipfs - The IPFS hash containing additional information about the event.\n\n\t* @notice Requires that the contract is not paused.\n    * @notice Requires that the sender is registered.\n\t* @notice Requires that the event time is in the future.\n    * @notice Requires that the amount is greater than 0.\n\t*/\n\t\n\tfunction provideAssistance(\n\t\tstring _title,\n\t\tstring _category,\n\t\tstring _item,\n\t\tuint _amount,\n\t\tbool _borrow,\n\t\tuint _minimumAmount,\n\t\tuint _endDate,\n\t\tstring _ipfs\n\t\n\t)\n    whenNotPaused()\n\t\tpublic\n\t{\n\t    require(registered[msg.sender].registered == true && registered[msg.sender].pending == false, \"You are Not Registered\");\n\t    require(now < _endDate);\n\t    require(_amount > 0 && _minimumAmount <= _amount);\n   \n\t\tGiveHelp memory _event = GiveHelp({\n\t\t\towner: msg.sender,\n\t\t\tname: registered[msg.sender].name,\n\t\t\ttitle: _title,\n\t\t\tcategory: _category,\n\t\t\titem: _item,\n\t\t\tamount: _amount,\n\t\t\tcommitted:_amount,\n\t\t\tborrow: _borrow,\n\t\t    minimum: _minimumAmount,\n\t\t\tendDate: _endDate,\n\t\t\tipfs: _ipfs\n\t\t\t\n\t\t});\n      \tuint _eventId = giveHelp.push(_event).sub(1);\n\t\tgivenEvents[msg.sender].push(_eventId);\n\t\tif(registered[msg.sender].rating < 55){\n\t\t    uint _addedRating = 5;\n\t\t    \n\t\t}\n\t\telse {\n\t\t    _addedRating = 60 - registered[msg.sender].rating;\n\t\t    \n\t\t}\n\t    \n\t\tif(registered[msg.sender].rating < 60){\n\t\tregistered[msg.sender].rating = registered[msg.sender].rating.add(_addedRating);}\n\t\t\n\t\temit GiveAHand(msg.sender, _eventId,registered[msg.sender].name,_title,_item, _amount, _borrow,_endDate,_ipfs);  \n  \n\t}\n\t\n\t/**\n\t* @dev Function to show information about give assitance event.\n\t* @param _id uint - Event ID.\n\t* @return title string - The title of the event.\n\t* @return category string - The category of needed item.\n\t* @return item string - The name of the item.\n\t* @return amount uint - The total amount of items.\n\t* @return committed uint - The amount of items left.\n\t* @return borrow bool - True if the item is to be returned in the future.\n\t* @return startDate uint - Start date of the event.\n\t* @return endDate uint - End date of the event.\n\t* @return ipfs string - The IPFS hash containing additional information about event.\n\t* @return owner address - The owner of the event.\n\n\t* @notice Requires that the events exist.\n\t*/\n\t\n\tfunction provideAssistanceDetails(uint _id)\n\t\tpublic\n\t\tview\n\t    returns(\n\t\t    string title,\n\t\t    string category,\n\t    \tstring item,\n\t    \tuint amount,\n\t    \tuint committed,\n\t    \tbool borrow,\n\t    \tuint minimum,\n\t    \tuint endDate,\n\t    \tstring ipfs,\n\t    \taddress owner\n    \t) {\n\t    require(_id < giveHelp.length);\n\t    GiveHelp memory _event = giveHelp[_id];\n\t\treturn(\n\t\t\t_event.title,\n\t\t\t_event.category,\n\t\t\t_event.item,\n\t\t\t_event.amount,\n\t\t\t_event.committed,\n\t\t\t_event.borrow,\n\t\t\t_event.minimum,\n\t\t\t_event.endDate,\n\t\t\t_event.ipfs,\n\t\t\t_event.owner\n\t\t);\n\t}\n\t\n    /**\n\t* @dev Function to show information about call for help event.\n\t* @param _id uint - Event ID.\n\t* @return title string - The title of the event.\n\t* @return category string - The category of needed item.\n\t* @return item string - The name of the item.\n\t* @return amount uint - The amount of items needed.\n\t* @return commited uint - The amount of items currently committed.\n\t* @return borrow bool - True if the item is to be returned in the future.\n\t* @return startDate uint - Start date of the event.\n\t* @return endDate uint - End date of the event.\n\t* @return ipfs string - The IPFS hash containing additional information about event.\n\t* @return owner address - The owner of the event.\n\n\t* @notice Requires that the events exist.\n\t*/\n\t\n\tfunction callForHelpDetails(uint _id)\n\t\tpublic\n\t\tview\n\t    returns(\n\t\t    string title,\n\t\t    string category,\n\t    \tstring item,\n\t    \tuint amount,\n\t    \tuint committed,\n\t    \tbool borrow,\n\t    \tuint minumum,\n\t    \tuint endDate,\n\t    \tstring ipfs,\n\t    \taddress owner\n    \t) {\n\t    require(_id < needHelp.length);\n\t    NeedHelp memory _event = needHelp[_id];\n\t\treturn(\n\t\t\t_event.title,\n\t\t\t_event.category,\n\t\t\t_event.item,\n\t\t\t_event.amount,\n\t\t\t_event.committed,\n\t\t\t_event.borrow,\n\t\t\t_event.minimum,\n\t\t\t_event.endDate,\n\t\t\t_event.ipfs,\n\t\t\t_event.owner\n\t\t);\n\t}\n\t\n\t/**\n\t* @dev Function to give item to the needed asstistance pool.\n\t* @param _eventId - The ID of the Call for Help Event.\n\t* @param _commit - The amount of the item to commit.\n\t\n    * @notice Requires that the event exist.\n    * @notice Requires that the commit is greater than 0.\n    * @notice Requires that the amount of items to give is <= total needed items in the pool.\n    * @notice Requires that the amount of items to give is <= current needed items in the pool.\n    * @notice Requires that the giver is not the creator of the event.\n    * @notice Requires that the events hasn't ended yet.\n\t*/\n\t\n\tfunction pledge(uint _eventId, uint _commit)\n\t    whenNotPaused()\n\t\tpublic\n\t\t\n\t{   require(registered[msg.sender].registered == true && registered[msg.sender].pending == false, \"You are Not Registered\");\n\t    require(_eventId < needHelp.length);\n\t\tNeedHelp memory _event = needHelp[_eventId];\n\t\t\n\t\trequire(_commit > 0);\n\t\trequire(_commit <= needHelp[_eventId].amount && _commit <= needHelp[_eventId].amount.sub(needHelp[_eventId].committed));\n\t\t\n\t\t if((needHelp[_eventId].amount - needHelp[_eventId].committed) >= needHelp[_eventId].minimum){\n\t      require(_commit >= needHelp[_eventId].minimum);\n\t    }\n\t\trequire(msg.sender != needHelp[_eventId].owner);\n\t\trequire(needHelp[_eventId].endDate > now);\n\t\t\n\t\t\n\t\tneedHelp[_eventId].committed = needHelp[_eventId].committed.add(_commit);\n\t\tif (registered[msg.sender].rating <= 57){\n\t\t    uint _addedRating = 3;\n\t\n\t\t}\n\t\telse{\n\t\t    _addedRating = 60 - registered[msg.sender].rating;\n\t\t}\n\t\tregistered[msg.sender].rating = registered[msg.sender].rating.add(_addedRating);\n\t\temit Pledged(msg.sender,registered[msg.sender].name, registered[needHelp[_eventId].owner].name,now, _eventId,needHelp[_eventId].item, _commit, needHelp[_eventId].owner,needHelp[_eventId].endDate,needHelp[_eventId].borrow, _addedRating);\n\t}\n\t\n\t\n\t/**\n\t* @dev Function to take item from the given asstistance pool.\n\t* @param _eventId - The ID of the Assistance Event.\n\t* @param _take - The amount of the item to take.\n\t\n    * @notice Requires that the event exist.\n    * @notice Requires that the sender rating is greater than or equal to 10.\n    * @notice Requires that the amount to take is greater than 0.\n    * @notice Requires that the amount to take is greater than minimum.\n    * @notice Requires that the amount of items to take is <= current available items in the pool.\n    * @notice Requires that the taker is not the creator of the event.\n    * @notice Requires that the events hasn't ended yet.\n\t*/\n\t\n\tfunction take(uint _eventId, uint _take)\n\t    whenNotPaused()\n\t\tpublic\n\t\t\n\t{\trequire(registered[msg.sender].registered == true && registered[msg.sender].pending == false, \"You are Not Registered\");\n\t    require(_eventId < giveHelp.length);\n\t  \n\t\tGiveHelp memory _event = giveHelp[_eventId];\n\t\t\n\t\trequire(registered[msg.sender].rating > 10);\n\t    require(_take > 0 && _take <= giveHelp[_eventId].committed);\n\t    \n\t    if(giveHelp[_eventId].committed >= giveHelp[_eventId].minimum){\n\t      require(_take >= giveHelp[_eventId].minimum);\n\t    }\n\t\trequire(msg.sender != giveHelp[_eventId].owner);\n\t    require(giveHelp[_eventId].endDate > now);\n\t\t\n\t\tgiveHelp[_eventId].committed = giveHelp[_eventId].committed.sub(_take);\n\t\n\t\tif (registered[msg.sender].rating >= 13){\n\t\t    uint _subtractRating = 3;\n\t\t}\n\t\t\n\t\telse{\n\t\t    _subtractRating = registered[msg.sender].rating - 10;\n\t\t}\n\t\t\n\t\tregistered[msg.sender].rating = registered[msg.sender].rating.sub(_subtractRating);\n\t\temit Taken(msg.sender,registered[msg.sender].name, registered[giveHelp[_eventId].owner].name,now, _eventId,giveHelp[_eventId].item,_take, giveHelp[_eventId].owner,giveHelp[_eventId].endDate,giveHelp[_eventId].borrow, _subtractRating);\n\t}\n\t\n\n\n\t/**\n\t* @dev Function to show events of the specified address.\n\t* @param _owner address - The address to query the events of.\n\t* @return uint[] - Array of events IDs.\n\t*/\n\tfunction needsOf(address _owner) public view returns(uint[]) {\n\t\treturn neededEvents[_owner];\n\t}\n\t\n\tfunction assistsOf(address _owner) public view returns(uint[]) {\n\t\treturn givenEvents[_owner];\n\t}\n\n\n\t/**\n\t* @dev Function returns number of all events.\n\t* @return uint - Number of events.\n\t*/\n\tfunction getNeededCount() public view returns(uint) {\n\t\treturn needHelp.length;\n\t}\n\t\n\tfunction getAssistCount() public view returns(uint) {\n\t\treturn giveHelp.length;\n\t}\n\t\n\n\t\n}",
  "sourcePath": "C:\\Users\\jfpad\\sheltermoon\\contracts\\Shelter..sol",
  "compiler": {
    "name": "solc",
    "version": "0.4.24+commit.e67f0147.Emscripten.clang"
  },
  "schemaVersion": "3.2.0",
  "updatedAt": "2022-10-11T09:52:12.188Z",
  "networkType": "ethereum",
  "devdoc": {
    "methods": {
      "approval(address,bool)": {
        "details": "Function to Accept/Reject or Revoke Registration .",
        "params": {
          "_accepted": "- If true Ethereum Address Registration is accepted.",
          "_applicant": "address - The Ethereum Address of the applicant."
        }
      },
      "callForHelp(string,string,string,uint256,bool,uint256,uint256,string)": {
        "details": "Function creates the event to Call For Help.",
        "params": {
          "_amount": "uint - The total amount of items needed.",
          "_borrow": "bool - True if the items is expected to be returned in the future.",
          "_category": "string - The category of the item.",
          "_endDate": "- End date of the event.",
          "_ipfs": "- The IPFS hash containing additional information about the event.",
          "_item": "string - The name of item.",
          "_minimumAmount": "- minimum amount to pledge.",
          "_title": "string - The title of the event."
        }
      },
      "callForHelpDetails(uint256)": {
        "details": "Function to show information about call for help event.",
        "params": {
          "_id": "uint - Event ID."
        },
        "return": "title string - The title of the event.category string - The category of needed item.item string - The name of the item.amount uint - The amount of items needed.commited uint - The amount of items currently committed.borrow bool - True if the item is to be returned in the future.startDate uint - Start date of the event.endDate uint - End date of the event.ipfs string - The IPFS hash containing additional information about event.owner address - The owner of the event."
      },
      "getMemberStatus(address)": {
        "details": "Function to show information about the member.",
        "params": {
          "_owner": "address - The Ethereum Address of the member."
        },
        "return": "_name string - The name of the member._country string - The country where the member is located._city string - The city where the member is located._ipfs string - The IPFS hash containing additional information about event._pending bool - If true account has a pending registration._registered bool - If true account is registered._time uint - time of registration._rating uint - The rating of the account."
      },
      "getNeededCount()": {
        "details": "Function returns number of all events.",
        "return": "uint - Number of events."
      },
      "needsOf(address)": {
        "details": "Function to show events of the specified address.",
        "params": {
          "_owner": "address - The address to query the events of."
        },
        "return": "uint[] - Array of events IDs."
      },
      "pause()": {
        "details": "called by the owner to pause, triggers stopped state"
      },
      "pledge(uint256,uint256)": {
        "details": "Function to give item to the needed asstistance pool.",
        "params": {
          "_commit": "- The amount of the item to commit.",
          "_eventId": "- The ID of the Call for Help Event."
        }
      },
      "provideAssistance(string,string,string,uint256,bool,uint256,uint256,string)": {
        "details": "Function creates the event to Provide Assistance.",
        "params": {
          "_amount": "uint - The total amount of items to be given.",
          "_borrow": "bool - True if the items is expected to be returned in the future.",
          "_category": "string - The category of the item.",
          "_endDate": "- End date of the event.",
          "_ipfs": "- The IPFS hash containing additional information about the event.",
          "_item": "string - The name of item.",
          "_minimumAmount": "- minimum amount to take.",
          "_title": "string - The title of the event."
        }
      },
      "provideAssistanceDetails(uint256)": {
        "details": "Function to show information about give assitance event.",
        "params": {
          "_id": "uint - Event ID."
        },
        "return": "title string - The title of the event.category string - The category of needed item.item string - The name of the item.amount uint - The total amount of items.committed uint - The amount of items left.borrow bool - True if the item is to be returned in the future.startDate uint - Start date of the event.endDate uint - End date of the event.ipfs string - The IPFS hash containing additional information about event.owner address - The owner of the event."
      },
      "register(string,string,string,string)": {
        "details": "Function Request Registration.",
        "params": {
          "_city": "string - The city where the  requester is located.",
          "_country": "string - The country where the requester is located.",
          "_ipfs": "- The IPFS hash containing additional information about the  requester.",
          "_name": "string - Name of regisrant."
        }
      },
      "renounceOwnership()": {
        "details": "Allows the current owner to relinquish control of the contract."
      },
      "take(uint256,uint256)": {
        "details": "Function to take item from the given asstistance pool.",
        "params": {
          "_eventId": "- The ID of the Assistance Event.",
          "_take": "- The amount of the item to take."
        }
      },
      "transferOwnership(address)": {
        "details": "Allows the current owner to transfer control of the contract to a newOwner.",
        "params": {
          "_newOwner": "The address to transfer ownership to."
        }
      },
      "unpause()": {
        "details": "called by the owner to unpause, returns to normal state"
      }
    },
    "title": "Shelter"
  },
  "userdoc": {
    "methods": {
      "approval(address,bool)": {
        "notice": "Requires that the contract is not paused.Requires that the approver is the owner of contract.Requires that the applicant address does not have a pending registration."
      },
      "callForHelp(string,string,string,uint256,bool,uint256,uint256,string)": {
        "notice": "Requires that the contract is not paused.Requires that the sender is registered.Requires that the event time is in the future.Requires that the sender rating is greater than or equal to 20.Requires that the amount is greater than 0."
      },
      "callForHelpDetails(uint256)": {
        "notice": "Requires that the events exist."
      },
      "pledge(uint256,uint256)": {
        "notice": "Requires that the event exist.Requires that the commit is greater than 0.Requires that the amount of items to give is <= total needed items in the pool.Requires that the amount of items to give is <= current needed items in the pool.Requires that the giver is not the creator of the event.Requires that the events hasn't ended yet."
      },
      "provideAssistance(string,string,string,uint256,bool,uint256,uint256,string)": {
        "notice": "Requires that the contract is not paused.Requires that the sender is registered.Requires that the event time is in the future.Requires that the amount is greater than 0."
      },
      "provideAssistanceDetails(uint256)": {
        "notice": "Requires that the events exist."
      },
      "register(string,string,string,string)": {
        "notice": "Requires that the contract is not paused.Requires that the applicant address is not yet registered & does not have a pending registration."
      },
      "renounceOwnership()": {
        "notice": "Renouncing to ownership will leave the contract without an owner. It will not be possible to call the functions with the `onlyOwner` modifier anymore."
      },
      "take(uint256,uint256)": {
        "notice": "Requires that the event exist.Requires that the sender rating is greater than or equal to 10.Requires that the amount to take is greater than 0.Requires that the amount to take is greater than minimum.Requires that the amount of items to take is <= current available items in the pool.Requires that the taker is not the creator of the event.Requires that the events hasn't ended yet."
      }
    }
  }
}