{
  "contractName": "KadenaGive",
  "abi": [
    {
      "constant": false,
      "inputs": [
        {
          "name": "_hospitalName",
          "type": "string"
        },
        {
          "name": "_entityType",
          "type": "string"
        },
        {
          "name": "_country",
          "type": "string"
        },
        {
          "name": "_city",
          "type": "string"
        },
        {
          "name": "_ipfs",
          "type": "string"
        }
      ],
      "name": "registerHospital",
      "outputs": [],
      "payable": false,
      "stateMutability": "nonpayable",
      "type": "function"
    },
    {
      "constant": false,
      "inputs": [],
      "name": "unpause",
      "outputs": [],
      "payable": false,
      "stateMutability": "nonpayable",
      "type": "function"
    },
    {
      "constant": true,
      "inputs": [
        {
          "name": "account",
          "type": "address"
        }
      ],
      "name": "isPauser",
      "outputs": [
        {
          "name": "",
          "type": "bool"
        }
      ],
      "payable": false,
      "stateMutability": "view",
      "type": "function"
    },
    {
      "constant": true,
      "inputs": [],
      "name": "paused",
      "outputs": [
        {
          "name": "",
          "type": "bool"
        }
      ],
      "payable": false,
      "stateMutability": "view",
      "type": "function"
    },
    {
      "constant": false,
      "inputs": [],
      "name": "renouncePauser",
      "outputs": [],
      "payable": false,
      "stateMutability": "nonpayable",
      "type": "function"
    },
    {
      "constant": false,
      "inputs": [],
      "name": "renounceOwnership",
      "outputs": [],
      "payable": false,
      "stateMutability": "nonpayable",
      "type": "function"
    },
    {
      "constant": false,
      "inputs": [
        {
          "name": "account",
          "type": "address"
        }
      ],
      "name": "addPauser",
      "outputs": [],
      "payable": false,
      "stateMutability": "nonpayable",
      "type": "function"
    },
    {
      "constant": false,
      "inputs": [],
      "name": "pause",
      "outputs": [],
      "payable": false,
      "stateMutability": "nonpayable",
      "type": "function"
    },
    {
      "constant": true,
      "inputs": [],
      "name": "owner",
      "outputs": [
        {
          "name": "",
          "type": "address"
        }
      ],
      "payable": false,
      "stateMutability": "view",
      "type": "function"
    },
    {
      "constant": true,
      "inputs": [],
      "name": "isOwner",
      "outputs": [
        {
          "name": "",
          "type": "bool"
        }
      ],
      "payable": false,
      "stateMutability": "view",
      "type": "function"
    },
    {
      "constant": true,
      "inputs": [
        {
          "name": "_owner",
          "type": "address"
        }
      ],
      "name": "getHospitalStatus",
      "outputs": [
        {
          "name": "_hospitalName",
          "type": "string"
        },
        {
          "name": "_entityType",
          "type": "string"
        },
        {
          "name": "_country",
          "type": "string"
        },
        {
          "name": "_city",
          "type": "string"
        },
        {
          "name": "_ipfs",
          "type": "string"
        },
        {
          "name": "_pending",
          "type": "bool"
        },
        {
          "name": "_registered",
          "type": "bool"
        },
        {
          "name": "_time",
          "type": "uint256"
        },
        {
          "name": "_rating",
          "type": "uint256"
        }
      ],
      "payable": false,
      "stateMutability": "view",
      "type": "function"
    },
    {
      "constant": false,
      "inputs": [
        {
          "name": "_applicant",
          "type": "address"
        },
        {
          "name": "_accepted",
          "type": "bool"
        }
      ],
      "name": "register",
      "outputs": [],
      "payable": false,
      "stateMutability": "nonpayable",
      "type": "function"
    },
    {
      "constant": true,
      "inputs": [
        {
          "name": "",
          "type": "address"
        }
      ],
      "name": "registered",
      "outputs": [
        {
          "name": "owner",
          "type": "address"
        },
        {
          "name": "name",
          "type": "string"
        },
        {
          "name": "entityType",
          "type": "string"
        },
        {
          "name": "country",
          "type": "string"
        },
        {
          "name": "city",
          "type": "string"
        },
        {
          "name": "ipfs",
          "type": "string"
        },
        {
          "name": "time",
          "type": "uint256"
        },
        {
          "name": "pending",
          "type": "bool"
        },
        {
          "name": "registered",
          "type": "bool"
        },
        {
          "name": "rating",
          "type": "uint256"
        }
      ],
      "payable": false,
      "stateMutability": "view",
      "type": "function"
    },
    {
      "constant": true,
      "inputs": [
        {
          "name": "",
          "type": "uint256"
        }
      ],
      "name": "entity",
      "outputs": [
        {
          "name": "owner",
          "type": "address"
        },
        {
          "name": "name",
          "type": "string"
        },
        {
          "name": "entityType",
          "type": "string"
        },
        {
          "name": "country",
          "type": "string"
        },
        {
          "name": "city",
          "type": "string"
        },
        {
          "name": "ipfs",
          "type": "string"
        },
        {
          "name": "time",
          "type": "uint256"
        },
        {
          "name": "pending",
          "type": "bool"
        },
        {
          "name": "registered",
          "type": "bool"
        },
        {
          "name": "rating",
          "type": "uint256"
        }
      ],
      "payable": false,
      "stateMutability": "view",
      "type": "function"
    },
    {
      "constant": false,
      "inputs": [
        {
          "name": "newOwner",
          "type": "address"
        }
      ],
      "name": "transferOwnership",
      "outputs": [],
      "payable": false,
      "stateMutability": "nonpayable",
      "type": "function"
    },
    {
      "constant": true,
      "inputs": [],
      "name": "getHospitalCount",
      "outputs": [
        {
          "name": "",
          "type": "uint256"
        }
      ],
      "payable": false,
      "stateMutability": "view",
      "type": "function"
    },
    {
      "anonymous": false,
      "inputs": [
        {
          "indexed": true,
          "name": "ownerGive",
          "type": "address"
        },
        {
          "indexed": false,
          "name": "eventId",
          "type": "uint256"
        },
        {
          "indexed": false,
          "name": "name",
          "type": "string"
        },
        {
          "indexed": false,
          "name": "title",
          "type": "string"
        },
        {
          "indexed": false,
          "name": "item",
          "type": "string"
        },
        {
          "indexed": false,
          "name": "amount",
          "type": "uint256"
        },
        {
          "indexed": false,
          "name": "borrow",
          "type": "bool"
        },
        {
          "indexed": false,
          "name": "endDate",
          "type": "uint256"
        },
        {
          "indexed": false,
          "name": "ipfs",
          "type": "string"
        }
      ],
      "name": "LendAHand",
      "type": "event"
    },
    {
      "anonymous": false,
      "inputs": [
        {
          "indexed": true,
          "name": "takenBy",
          "type": "address"
        },
        {
          "indexed": false,
          "name": "receiver",
          "type": "string"
        },
        {
          "indexed": false,
          "name": "sender",
          "type": "string"
        },
        {
          "indexed": false,
          "name": "date",
          "type": "uint256"
        },
        {
          "indexed": true,
          "name": "eventId",
          "type": "uint256"
        },
        {
          "indexed": false,
          "name": "item",
          "type": "string"
        },
        {
          "indexed": false,
          "name": "received",
          "type": "uint256"
        },
        {
          "indexed": true,
          "name": "tookFrom",
          "type": "address"
        },
        {
          "indexed": false,
          "name": "endDate",
          "type": "uint256"
        },
        {
          "indexed": false,
          "name": "borrow",
          "type": "bool"
        },
        {
          "indexed": false,
          "name": "addedRating",
          "type": "uint256"
        }
      ],
      "name": "Taken",
      "type": "event"
    },
    {
      "anonymous": false,
      "inputs": [
        {
          "indexed": false,
          "name": "account",
          "type": "address"
        }
      ],
      "name": "Paused",
      "type": "event"
    },
    {
      "anonymous": false,
      "inputs": [
        {
          "indexed": false,
          "name": "account",
          "type": "address"
        }
      ],
      "name": "Unpaused",
      "type": "event"
    },
    {
      "anonymous": false,
      "inputs": [
        {
          "indexed": true,
          "name": "account",
          "type": "address"
        }
      ],
      "name": "PauserAdded",
      "type": "event"
    },
    {
      "anonymous": false,
      "inputs": [
        {
          "indexed": true,
          "name": "account",
          "type": "address"
        }
      ],
      "name": "PauserRemoved",
      "type": "event"
    },
    {
      "anonymous": false,
      "inputs": [
        {
          "indexed": true,
          "name": "owner",
          "type": "address"
        },
        {
          "indexed": false,
          "name": "name",
          "type": "string"
        },
        {
          "indexed": false,
          "name": "entityType",
          "type": "string"
        },
        {
          "indexed": false,
          "name": "country",
          "type": "string"
        },
        {
          "indexed": false,
          "name": "city",
          "type": "string"
        },
        {
          "indexed": false,
          "name": "ipfs",
          "type": "string"
        },
        {
          "indexed": false,
          "name": "time",
          "type": "uint256"
        },
        {
          "indexed": false,
          "name": "pending",
          "type": "bool"
        },
        {
          "indexed": false,
          "name": "registered",
          "type": "bool"
        }
      ],
      "name": "RegistrationRequest",
      "type": "event"
    },
    {
      "anonymous": false,
      "inputs": [
        {
          "indexed": false,
          "name": "Admin",
          "type": "address"
        },
        {
          "indexed": true,
          "name": "applicant",
          "type": "address"
        },
        {
          "indexed": false,
          "name": "registeredAs",
          "type": "string"
        },
        {
          "indexed": false,
          "name": "entityType",
          "type": "string"
        },
        {
          "indexed": false,
          "name": "time",
          "type": "uint256"
        },
        {
          "indexed": false,
          "name": "pending",
          "type": "bool"
        },
        {
          "indexed": true,
          "name": "registrationStatus",
          "type": "bool"
        },
        {
          "indexed": false,
          "name": "rating",
          "type": "uint256"
        }
      ],
      "name": "Registration",
      "type": "event"
    },
    {
      "anonymous": false,
      "inputs": [
        {
          "indexed": true,
          "name": "previousOwner",
          "type": "address"
        },
        {
          "indexed": true,
          "name": "newOwner",
          "type": "address"
        }
      ],
      "name": "OwnershipTransferred",
      "type": "event"
    },
    {
      "constant": false,
      "inputs": [
        {
          "name": "_title",
          "type": "string"
        },
        {
          "name": "_category",
          "type": "string"
        },
        {
          "name": "_item",
          "type": "string"
        },
        {
          "name": "_amount",
          "type": "uint256"
        },
        {
          "name": "_borrow",
          "type": "bool"
        },
        {
          "name": "_minimumAmount",
          "type": "uint256"
        },
        {
          "name": "_endDate",
          "type": "uint256"
        },
        {
          "name": "_ipfs",
          "type": "string"
        }
      ],
      "name": "provideAssistance",
      "outputs": [],
      "payable": false,
      "stateMutability": "nonpayable",
      "type": "function"
    },
    {
      "constant": true,
      "inputs": [
        {
          "name": "_id",
          "type": "uint256"
        }
      ],
      "name": "provideAssistanceDetails",
      "outputs": [
        {
          "name": "title",
          "type": "string"
        },
        {
          "name": "category",
          "type": "string"
        },
        {
          "name": "item",
          "type": "string"
        },
        {
          "name": "amount",
          "type": "uint256"
        },
        {
          "name": "committed",
          "type": "uint256"
        },
        {
          "name": "borrow",
          "type": "bool"
        },
        {
          "name": "minimum",
          "type": "uint256"
        },
        {
          "name": "endDate",
          "type": "uint256"
        },
        {
          "name": "ipfs",
          "type": "string"
        },
        {
          "name": "owner",
          "type": "address"
        }
      ],
      "payable": false,
      "stateMutability": "view",
      "type": "function"
    },
    {
      "constant": false,
      "inputs": [
        {
          "name": "_eventId",
          "type": "uint256"
        },
        {
          "name": "_take",
          "type": "uint256"
        }
      ],
      "name": "take",
      "outputs": [],
      "payable": false,
      "stateMutability": "nonpayable",
      "type": "function"
    },
    {
      "constant": true,
      "inputs": [
        {
          "name": "_owner",
          "type": "address"
        }
      ],
      "name": "assistsOf",
      "outputs": [
        {
          "name": "",
          "type": "uint256[]"
        }
      ],
      "payable": false,
      "stateMutability": "view",
      "type": "function"
    },
    {
      "constant": true,
      "inputs": [],
      "name": "getAssistCount",
      "outputs": [
        {
          "name": "",
          "type": "uint256"
        }
      ],
      "payable": false,
      "stateMutability": "view",
      "type": "function"
    }
  ],
  "bytecode": "0x6080604052336000806101000a81548173ffffffffffffffffffffffffffffffffffffffff021916908373ffffffffffffffffffffffffffffffffffffffff1602179055506000809054906101000a900473ffffffffffffffffffffffffffffffffffffffff1673ffffffffffffffffffffffffffffffffffffffff16600073ffffffffffffffffffffffffffffffffffffffff167f8be0079c531659141344cd1fd0a4f28419497f9722a3daafe3b4186f6b6457e060405160405180910390a3620000da33620000fb640100000000026401000000009004565b6000600460006101000a81548160ff02191690831515021790555062000378565b6200011f816003620001656401000000000262005617179091906401000000009004565b8073ffffffffffffffffffffffffffffffffffffffff167f6719d08c1888103bea251a4ed56406bd0c3e69723c8a1686e017e7bbe159b6f860405160405180910390a250565b62000180828262000254640100000000026401000000009004565b151515620001f6576040517f08c379a000000000000000000000000000000000000000000000000000000000815260040180806020018281038252601f8152602001807f526f6c65733a206163636f756e7420616c72656164792068617320726f6c650081525060200191505060405180910390fd5b60018260000160008373ffffffffffffffffffffffffffffffffffffffff1673ffffffffffffffffffffffffffffffffffffffff16815260200190815260200160002060006101000a81548160ff0219169083151502179055505050565b60008073ffffffffffffffffffffffffffffffffffffffff168273ffffffffffffffffffffffffffffffffffffffff161415151562000321576040517f08c379a00000000000000000000000000000000000000000000000000000000081526004018080602001828103825260228152602001807f526f6c65733a206163636f756e7420697320746865207a65726f20616464726581526020017f737300000000000000000000000000000000000000000000000000000000000081525060400191505060405180910390fd5b8260000160008373ffffffffffffffffffffffffffffffffffffffff1673ffffffffffffffffffffffffffffffffffffffff16815260200190815260200160002060009054906101000a900460ff16905092915050565b61592680620003886000396000f3fe60806040526004361061011d576000357c0100000000000000000000000000000000000000000000000000000000900463ffffffff1680631d0f8168146101225780631dd01a36146104465780633f4ba83a1461047157806346fbf68e146104885780635c975abb146104f15780636ef8d66d14610520578063715018a61461053757806382dc1ec41461054e5780638456cb591461059f5780638da5cb5b146105b65780638f32d59b1461060d578063933689021461063c578063978b7c021461088e57806397faf4dc146108d3578063ab01b46914610b71578063b2dd5c0714610bce578063b42ba2a214610e9f578063d52834391461115a578063e729779414611200578063f2fde38b146114b8578063fe45a81d14611509575b600080fd5b34801561012e57600080fd5b50610444600480360360a081101561014557600080fd5b810190808035906020019064010000000081111561016257600080fd5b82018360208201111561017457600080fd5b8035906020019184600183028401116401000000008311171561019657600080fd5b91908080601f016020809104026020016040519081016040528093929190818152602001838380828437600081840152601f19601f820116905080830192505050505050509192919290803590602001906401000000008111156101f957600080fd5b82018360208201111561020b57600080fd5b8035906020019184600183028401116401000000008311171561022d57600080fd5b91908080601f016020809104026020016040519081016040528093929190818152602001838380828437600081840152601f19601f8201169050808301925050505050505091929192908035906020019064010000000081111561029057600080fd5b8201836020820111156102a257600080fd5b803590602001918460018302840111640100000000831117156102c457600080fd5b91908080601f016020809104026020016040519081016040528093929190818152602001838380828437600081840152601f19601f8201169050808301925050505050505091929192908035906020019064010000000081111561032757600080fd5b82018360208201111561033957600080fd5b8035906020019184600183028401116401000000008311171561035b57600080fd5b91908080601f016020809104026020016040519081016040528093929190818152602001838380828437600081840152601f19601f820116905080830192505050505050509192919290803590602001906401000000008111156103be57600080fd5b8201836020820111156103d057600080fd5b803590602001918460018302840111640100000000831117156103f257600080fd5b91908080601f016020809104026020016040519081016040528093929190818152602001838380828437600081840152601f19601f820116905080830192505050505050509192919290505050611534565b005b34801561045257600080fd5b5061045b611ca8565b6040518082815260200191505060405180910390f35b34801561047d57600080fd5b50610486611cb5565b005b34801561049457600080fd5b506104d7600480360360208110156104ab57600080fd5b81019080803573ffffffffffffffffffffffffffffffffffffffff169060200190929190505050611e5c565b604051808215151515815260200191505060405180910390f35b3480156104fd57600080fd5b50610506611e79565b604051808215151515815260200191505060405180910390f35b34801561052c57600080fd5b50610535611e90565b005b34801561054357600080fd5b5061054c611e9b565b005b34801561055a57600080fd5b5061059d6004803603602081101561057157600080fd5b81019080803573ffffffffffffffffffffffffffffffffffffffff169060200190929190505050611fd6565b005b3480156105ab57600080fd5b506105b4612085565b005b3480156105c257600080fd5b506105cb61222d565b604051808273ffffffffffffffffffffffffffffffffffffffff1673ffffffffffffffffffffffffffffffffffffffff16815260200191505060405180910390f35b34801561061957600080fd5b50610622612256565b604051808215151515815260200191505060405180910390f35b34801561064857600080fd5b506106756004803603602081101561065f57600080fd5b81019080803590602001909291905050506122ad565b604051808060200180602001806020018b81526020018a815260200189151515158152602001888152602001878152602001806020018673ffffffffffffffffffffffffffffffffffffffff1673ffffffffffffffffffffffffffffffffffffffff16815260200185810385528f818151815260200191508051906020019080838360005b838110156107155780820151818401526020810190506106fa565b50505050905090810190601f1680156107425780820380516001836020036101000a031916815260200191505b5085810384528e818151815260200191508051906020019080838360005b8381101561077b578082015181840152602081019050610760565b50505050905090810190601f1680156107a85780820380516001836020036101000a031916815260200191505b5085810383528d818151815260200191508051906020019080838360005b838110156107e15780820151818401526020810190506107c6565b50505050905090810190601f16801561080e5780820380516001836020036101000a031916815260200191505b50858103825287818151815260200191508051906020019080838360005b8381101561084757808201518184015260208101905061082c565b50505050905090810190601f1680156108745780820380516001836020036101000a031916815260200191505b509e50505050505050505050505050505060405180910390f35b34801561089a57600080fd5b506108d1600480360360408110156108b157600080fd5b81019080803590602001909291908035906020019092919050505061272b565b005b3480156108df57600080fd5b50610922600480360360208110156108f657600080fd5b81019080803573ffffffffffffffffffffffffffffffffffffffff1690602001909291905050506133c0565b6040518080602001806020018060200180602001806020018a1515151581526020018915151515815260200188815260200187815260200186810386528f818151815260200191508051906020019080838360005b83811015610992578082015181840152602081019050610977565b50505050905090810190601f1680156109bf5780820380516001836020036101000a031916815260200191505b5086810385528e818151815260200191508051906020019080838360005b838110156109f85780820151818401526020810190506109dd565b50505050905090810190601f168015610a255780820380516001836020036101000a031916815260200191505b5086810384528d818151815260200191508051906020019080838360005b83811015610a5e578082015181840152602081019050610a43565b50505050905090810190601f168015610a8b5780820380516001836020036101000a031916815260200191505b5086810383528c818151815260200191508051906020019080838360005b83811015610ac4578082015181840152602081019050610aa9565b50505050905090810190601f168015610af15780820380516001836020036101000a031916815260200191505b5086810382528b818151815260200191508051906020019080838360005b83811015610b2a578082015181840152602081019050610b0f565b50505050905090810190601f168015610b575780820380516001836020036101000a031916815260200191505b509e50505050505050505050505050505060405180910390f35b348015610b7d57600080fd5b50610bcc60048036036040811015610b9457600080fd5b81019080803573ffffffffffffffffffffffffffffffffffffffff16906020019092919080351515906020019092919050505061384c565b005b348015610bda57600080fd5b50610c1d60048036036020811015610bf157600080fd5b81019080803573ffffffffffffffffffffffffffffffffffffffff169060200190929190505050613f4f565b604051808b73ffffffffffffffffffffffffffffffffffffffff1673ffffffffffffffffffffffffffffffffffffffff16815260200180602001806020018060200180602001806020018a8152602001891515151581526020018815151515815260200187815260200186810386528f818151815260200191508051906020019080838360005b83811015610cbf578082015181840152602081019050610ca4565b50505050905090810190601f168015610cec5780820380516001836020036101000a031916815260200191505b5086810385528e818151815260200191508051906020019080838360005b83811015610d25578082015181840152602081019050610d0a565b50505050905090810190601f168015610d525780820380516001836020036101000a031916815260200191505b5086810384528d818151815260200191508051906020019080838360005b83811015610d8b578082015181840152602081019050610d70565b50505050905090810190601f168015610db85780820380516001836020036101000a031916815260200191505b5086810383528c818151815260200191508051906020019080838360005b83811015610df1578082015181840152602081019050610dd6565b50505050905090810190601f168015610e1e5780820380516001836020036101000a031916815260200191505b5086810382528b818151815260200191508051906020019080838360005b83811015610e57578082015181840152602081019050610e3c565b50505050905090810190601f168015610e845780820380516001836020036101000a031916815260200191505b509f5050505050505050505050505050505060405180910390f35b348015610eab57600080fd5b50610ed860048036036020811015610ec257600080fd5b81019080803590602001909291905050506142d5565b604051808b73ffffffffffffffffffffffffffffffffffffffff1673ffffffffffffffffffffffffffffffffffffffff16815260200180602001806020018060200180602001806020018a8152602001891515151581526020018815151515815260200187815260200186810386528f818151815260200191508051906020019080838360005b83811015610f7a578082015181840152602081019050610f5f565b50505050905090810190601f168015610fa75780820380516001836020036101000a031916815260200191505b5086810385528e818151815260200191508051906020019080838360005b83811015610fe0578082015181840152602081019050610fc5565b50505050905090810190601f16801561100d5780820380516001836020036101000a031916815260200191505b5086810384528d818151815260200191508051906020019080838360005b8381101561104657808201518184015260208101905061102b565b50505050905090810190601f1680156110735780820380516001836020036101000a031916815260200191505b5086810383528c818151815260200191508051906020019080838360005b838110156110ac578082015181840152602081019050611091565b50505050905090810190601f1680156110d95780820380516001836020036101000a031916815260200191505b5086810382528b818151815260200191508051906020019080838360005b838110156111125780820151818401526020810190506110f7565b50505050905090810190601f16801561113f5780820380516001836020036101000a031916815260200191505b509f5050505050505050505050505050505060405180910390f35b34801561116657600080fd5b506111a96004803603602081101561117d57600080fd5b81019080803573ffffffffffffffffffffffffffffffffffffffff16906020019092919050505061466a565b6040518080602001828103825283818151815260200191508051906020019060200280838360005b838110156111ec5780820151818401526020810190506111d1565b505050509050019250505060405180910390f35b34801561120c57600080fd5b506114b6600480360361010081101561122457600080fd5b810190808035906020019064010000000081111561124157600080fd5b82018360208201111561125357600080fd5b8035906020019184600183028401116401000000008311171561127557600080fd5b91908080601f016020809104026020016040519081016040528093929190818152602001838380828437600081840152601f19601f820116905080830192505050505050509192919290803590602001906401000000008111156112d857600080fd5b8201836020820111156112ea57600080fd5b8035906020019184600183028401116401000000008311171561130c57600080fd5b91908080601f016020809104026020016040519081016040528093929190818152602001838380828437600081840152601f19601f8201169050808301925050505050505091929192908035906020019064010000000081111561136f57600080fd5b82018360208201111561138157600080fd5b803590602001918460018302840111640100000000831117156113a357600080fd5b91908080601f016020809104026020016040519081016040528093929190818152602001838380828437600081840152601f19601f8201169050808301925050505050505091929192908035906020019092919080351515906020019092919080359060200190929190803590602001909291908035906020019064010000000081111561143057600080fd5b82018360208201111561144257600080fd5b8035906020019184600183028401116401000000008311171561146457600080fd5b91908080601f016020809104026020016040519081016040528093929190818152602001838380828437600081840152601f19601f820116905080830192505050505050509192919290505050614701565b005b3480156114c457600080fd5b50611507600480360360208110156114db57600080fd5b81019080803573ffffffffffffffffffffffffffffffffffffffff16906020019092919050505061500b565b005b34801561151557600080fd5b5061151e615093565b6040518082815260200191505060405180910390f35b600260003373ffffffffffffffffffffffffffffffffffffffff1673ffffffffffffffffffffffffffffffffffffffff16815260200190815260200160002060070160019054906101000a900460ff161580156115de5750600260003373ffffffffffffffffffffffffffffffffffffffff1673ffffffffffffffffffffffffffffffffffffffff16815260200190815260200160002060070160009054906101000a900460ff16155b1515611678576040517f08c379a000000000000000000000000000000000000000000000000000000000815260040180806020018281038252602f8152602001807f596f75206172652052656769737465726564206f7220686176652070656e646981526020017f6e6720726567697374726174696f6e000000000000000000000000000000000081525060400191505060405180910390fd5b6116806156f4565b610140604051908101604052803373ffffffffffffffffffffffffffffffffffffffff1681526020018781526020018681526020018581526020018481526020018381526020014281526020016001151581526020016000151581526020016000815250905033600260003373ffffffffffffffffffffffffffffffffffffffff1673ffffffffffffffffffffffffffffffffffffffff16815260200190815260200160002060000160006101000a81548173ffffffffffffffffffffffffffffffffffffffff021916908373ffffffffffffffffffffffffffffffffffffffff16021790555085600260003373ffffffffffffffffffffffffffffffffffffffff1673ffffffffffffffffffffffffffffffffffffffff16815260200190815260200160002060010190805190602001906117bd929190615762565b5084600260003373ffffffffffffffffffffffffffffffffffffffff1673ffffffffffffffffffffffffffffffffffffffff1681526020019081526020016000206002019080519060200190611814929190615762565b5083600260003373ffffffffffffffffffffffffffffffffffffffff1673ffffffffffffffffffffffffffffffffffffffff168152602001908152602001600020600301908051906020019061186b929190615762565b5082600260003373ffffffffffffffffffffffffffffffffffffffff1673ffffffffffffffffffffffffffffffffffffffff16815260200190815260200160002060040190805190602001906118c2929190615762565b5081600260003373ffffffffffffffffffffffffffffffffffffffff1673ffffffffffffffffffffffffffffffffffffffff1681526020019081526020016000206005019080519060200190611919929190615762565b5042600260003373ffffffffffffffffffffffffffffffffffffffff1673ffffffffffffffffffffffffffffffffffffffff168152602001908152602001600020600601819055506001600260003373ffffffffffffffffffffffffffffffffffffffff1673ffffffffffffffffffffffffffffffffffffffff16815260200190815260200160002060070160006101000a81548160ff0219169083151502179055506000600260003373ffffffffffffffffffffffffffffffffffffffff1673ffffffffffffffffffffffffffffffffffffffff16815260200190815260200160002060070160016101000a81548160ff0219169083151502179055503373ffffffffffffffffffffffffffffffffffffffff167f0402ff60c4b5114778c6d2060192c413b82fe5c47a112944a93c83b7edb26a3b87878787874260016000604051808060200180602001806020018060200180602001898152602001881515151581526020018715151515815260200186810386528e818151815260200191508051906020019080838360005b83811015611ac3578082015181840152602081019050611aa8565b50505050905090810190601f168015611af05780820380516001836020036101000a031916815260200191505b5086810385528d818151815260200191508051906020019080838360005b83811015611b29578082015181840152602081019050611b0e565b50505050905090810190601f168015611b565780820380516001836020036101000a031916815260200191505b5086810384528c818151815260200191508051906020019080838360005b83811015611b8f578082015181840152602081019050611b74565b50505050905090810190601f168015611bbc5780820380516001836020036101000a031916815260200191505b5086810383528b818151815260200191508051906020019080838360005b83811015611bf5578082015181840152602081019050611bda565b50505050905090810190601f168015611c225780820380516001836020036101000a031916815260200191505b5086810382528a818151815260200191508051906020019080838360005b83811015611c5b578082015181840152602081019050611c40565b50505050905090810190601f168015611c885780820380516001836020036101000a031916815260200191505b509d505050505050505050505050505060405180910390a2505050505050565b6000600580549050905090565b611cbe33611e5c565b1515611d58576040517f08c379a00000000000000000000000000000000000000000000000000000000081526004018080602001828103825260308152602001807f506175736572526f6c653a2063616c6c657220646f6573206e6f74206861766581526020017f207468652050617573657220726f6c650000000000000000000000000000000081525060400191505060405180910390fd5b600460009054906101000a900460ff161515611ddc576040517f08c379a00000000000000000000000000000000000000000000000000000000081526004018080602001828103825260148152602001807f5061757361626c653a206e6f742070617573656400000000000000000000000081525060200191505060405180910390fd5b6000600460006101000a81548160ff0219169083151502179055507f5db9ee0a495bf2e6ff9c91a7834c1ba4fdd244a5e8aa4e537bd38aeae4b073aa33604051808273ffffffffffffffffffffffffffffffffffffffff1673ffffffffffffffffffffffffffffffffffffffff16815260200191505060405180910390a1565b6000611e728260036150a090919063ffffffff16565b9050919050565b6000600460009054906101000a900460ff16905090565b611e99336151c3565b565b611ea3612256565b1515611f17576040517f08c379a00000000000000000000000000000000000000000000000000000000081526004018080602001828103825260208152602001807f4f776e61626c653a2063616c6c6572206973206e6f7420746865206f776e657281525060200191505060405180910390fd5b600073ffffffffffffffffffffffffffffffffffffffff166000809054906101000a900473ffffffffffffffffffffffffffffffffffffffff1673ffffffffffffffffffffffffffffffffffffffff167f8be0079c531659141344cd1fd0a4f28419497f9722a3daafe3b4186f6b6457e060405160405180910390a360008060006101000a81548173ffffffffffffffffffffffffffffffffffffffff021916908373ffffffffffffffffffffffffffffffffffffffff160217905550565b611fdf33611e5c565b1515612079576040517f08c379a00000000000000000000000000000000000000000000000000000000081526004018080602001828103825260308152602001807f506175736572526f6c653a2063616c6c657220646f6573206e6f74206861766581526020017f207468652050617573657220726f6c650000000000000000000000000000000081525060400191505060405180910390fd5b6120828161521d565b50565b61208e33611e5c565b1515612128576040517f08c379a00000000000000000000000000000000000000000000000000000000081526004018080602001828103825260308152602001807f506175736572526f6c653a2063616c6c657220646f6573206e6f74206861766581526020017f207468652050617573657220726f6c650000000000000000000000000000000081525060400191505060405180910390fd5b600460009054906101000a900460ff161515156121ad576040517f08c379a00000000000000000000000000000000000000000000000000000000081526004018080602001828103825260108152602001807f5061757361626c653a207061757365640000000000000000000000000000000081525060200191505060405180910390fd5b6001600460006101000a81548160ff0219169083151502179055507f62e78cea01bee320cd4e420270b5ea74000d11b0c9f74754ebdbfc544b05a25833604051808273ffffffffffffffffffffffffffffffffffffffff1673ffffffffffffffffffffffffffffffffffffffff16815260200191505060405180910390a1565b60008060009054906101000a900473ffffffffffffffffffffffffffffffffffffffff16905090565b60008060009054906101000a900473ffffffffffffffffffffffffffffffffffffffff1673ffffffffffffffffffffffffffffffffffffffff163373ffffffffffffffffffffffffffffffffffffffff1614905090565b60608060606000806000806000606060006005805490508b1015156122d157600080fd5b6122d96157e2565b60058c8154811015156122e857fe5b90600052602060002090600b020161016060405190810160405290816000820160009054906101000a900473ffffffffffffffffffffffffffffffffffffffff1673ffffffffffffffffffffffffffffffffffffffff1673ffffffffffffffffffffffffffffffffffffffff168152602001600182018054600181600116156101000203166002900480601f0160208091040260200160405190810160405280929190818152602001828054600181600116156101000203166002900480156123f25780601f106123c7576101008083540402835291602001916123f2565b820191906000526020600020905b8154815290600101906020018083116123d557829003601f168201915b50505050508152602001600282018054600181600116156101000203166002900480601f0160208091040260200160405190810160405280929190818152602001828054600181600116156101000203166002900480156124945780601f1061246957610100808354040283529160200191612494565b820191906000526020600020905b81548152906001019060200180831161247757829003601f168201915b50505050508152602001600382018054600181600116156101000203166002900480601f0160208091040260200160405190810160405280929190818152602001828054600181600116156101000203166002900480156125365780601f1061250b57610100808354040283529160200191612536565b820191906000526020600020905b81548152906001019060200180831161251957829003601f168201915b50505050508152602001600482018054600181600116156101000203166002900480601f0160208091040260200160405190810160405280929190818152602001828054600181600116156101000203166002900480156125d85780601f106125ad576101008083540402835291602001916125d8565b820191906000526020600020905b8154815290600101906020018083116125bb57829003601f168201915b5050505050815260200160058201548152602001600682015481526020016007820160009054906101000a900460ff161515151581526020016008820154815260200160098201548152602001600a82018054600181600116156101000203166002900480601f0160208091040260200160405190810160405280929190818152602001828054600181600116156101000203166002900480156126bd5780601f10612692576101008083540402835291602001916126bd565b820191906000526020600020905b8154815290600101906020018083116126a057829003601f168201915b50505050508152505090508060400151816060015182608001518360a001518460c001518560e0015186610100015187610120015188610140015189600001518999508898508797508191509a509a509a509a509a509a509a509a509a509a50509193959799509193959799565b600460009054906101000a900460ff161515156127b0576040517f08c379a00000000000000000000000000000000000000000000000000000000081526004018080602001828103825260108152602001807f5061757361626c653a207061757365640000000000000000000000000000000081525060200191505060405180910390fd5b60011515600260003373ffffffffffffffffffffffffffffffffffffffff1673ffffffffffffffffffffffffffffffffffffffff16815260200190815260200160002060070160019054906101000a900460ff161515148015612866575060001515600260003373ffffffffffffffffffffffffffffffffffffffff1673ffffffffffffffffffffffffffffffffffffffff16815260200190815260200160002060070160009054906101000a900460ff161515145b15156128da576040517f08c379a00000000000000000000000000000000000000000000000000000000081526004018080602001828103825260168152602001807f596f7520617265204e6f7420526567697374657265640000000000000000000081525060200191505060405180910390fd5b600580549050821015156128ed57600080fd5b6128f56157e2565b60058381548110151561290457fe5b90600052602060002090600b020161016060405190810160405290816000820160009054906101000a900473ffffffffffffffffffffffffffffffffffffffff1673ffffffffffffffffffffffffffffffffffffffff1673ffffffffffffffffffffffffffffffffffffffff168152602001600182018054600181600116156101000203166002900480601f016020809104026020016040519081016040528092919081815260200182805460018160011615610100020316600290048015612a0e5780601f106129e357610100808354040283529160200191612a0e565b820191906000526020600020905b8154815290600101906020018083116129f157829003601f168201915b50505050508152602001600282018054600181600116156101000203166002900480601f016020809104026020016040519081016040528092919081815260200182805460018160011615610100020316600290048015612ab05780601f10612a8557610100808354040283529160200191612ab0565b820191906000526020600020905b815481529060010190602001808311612a9357829003601f168201915b50505050508152602001600382018054600181600116156101000203166002900480601f016020809104026020016040519081016040528092919081815260200182805460018160011615610100020316600290048015612b525780601f10612b2757610100808354040283529160200191612b52565b820191906000526020600020905b815481529060010190602001808311612b3557829003601f168201915b50505050508152602001600482018054600181600116156101000203166002900480601f016020809104026020016040519081016040528092919081815260200182805460018160011615610100020316600290048015612bf45780601f10612bc957610100808354040283529160200191612bf4565b820191906000526020600020905b815481529060010190602001808311612bd757829003601f168201915b5050505050815260200160058201548152602001600682015481526020016007820160009054906101000a900460ff161515151581526020016008820154815260200160098201548152602001600a82018054600181600116156101000203166002900480601f016020809104026020016040519081016040528092919081815260200182805460018160011615610100020316600290048015612cd95780601f10612cae57610100808354040283529160200191612cd9565b820191906000526020600020905b815481529060010190602001808311612cbc57829003601f168201915b5050505050815250509050600a600260003373ffffffffffffffffffffffffffffffffffffffff1673ffffffffffffffffffffffffffffffffffffffff16815260200190815260200160002060080154111515612d3557600080fd5b600082118015612d655750600583815481101515612d4f57fe5b90600052602060002090600b0201600601548211155b1515612d7057600080fd5b600583815481101515612d7f57fe5b90600052602060002090600b020160000160009054906101000a900473ffffffffffffffffffffffffffffffffffffffff1673ffffffffffffffffffffffffffffffffffffffff163373ffffffffffffffffffffffffffffffffffffffff1614151515612deb57600080fd5b42600584815481101515612dfb57fe5b90600052602060002090600b020160090154111515612e1957600080fd5b600583815481101515612e2857fe5b90600052602060002090600b020160080154600584815481101515612e4957fe5b90600052602060002090600b020160060154101515612e9257600583815481101515612e7157fe5b90600052602060002090600b0201600801548210151515612e9157600080fd5b5b612ec582600585815481101515612ea557fe5b90600052602060002090600b02016006015461527790919063ffffffff16565b600584815481101515612ed457fe5b90600052602060002090600b0201600601819055506000600d600260003373ffffffffffffffffffffffffffffffffffffffff1673ffffffffffffffffffffffffffffffffffffffff16815260200190815260200160002060080154101515612f405760039050612f89565b600a600260003373ffffffffffffffffffffffffffffffffffffffff1673ffffffffffffffffffffffffffffffffffffffff168152602001908152602001600020600801540390505b612fde81600260003373ffffffffffffffffffffffffffffffffffffffff1673ffffffffffffffffffffffffffffffffffffffff1681526020019081526020016000206008015461527790919063ffffffff16565b600260003373ffffffffffffffffffffffffffffffffffffffff1673ffffffffffffffffffffffffffffffffffffffff1681526020019081526020016000206008018190555060058481548110151561303357fe5b90600052602060002090600b020160000160009054906101000a900473ffffffffffffffffffffffffffffffffffffffff1673ffffffffffffffffffffffffffffffffffffffff16843373ffffffffffffffffffffffffffffffffffffffff167ff61741ddb770bbec4972ca0d1fc15e1e0645c44a0d1af42552bf97315de2972b600260003373ffffffffffffffffffffffffffffffffffffffff1673ffffffffffffffffffffffffffffffffffffffff1681526020019081526020016000206001016002600060058b81548110151561310957fe5b90600052602060002090600b020160000160009054906101000a900473ffffffffffffffffffffffffffffffffffffffff1673ffffffffffffffffffffffffffffffffffffffff1673ffffffffffffffffffffffffffffffffffffffff1681526020019081526020016000206001014260058b81548110151561318857fe5b90600052602060002090600b02016004018a60058d8154811015156131a957fe5b90600052602060002090600b02016009015460058e8154811015156131ca57fe5b90600052602060002090600b020160070160009054906101000a900460ff168b604051808060200180602001898152602001806020018881526020018781526020018615151515815260200185815260200184810384528c81815460018160011615610100020316600290048152602001915080546001816001161561010002031660029004801561329d5780601f106132725761010080835404028352916020019161329d565b820191906000526020600020905b81548152906001019060200180831161328057829003601f168201915b505084810383528b8181546001816001161561010002031660029004815260200191508054600181600116156101000203166002900480156133205780601f106132f557610100808354040283529160200191613320565b820191906000526020600020905b81548152906001019060200180831161330357829003601f168201915b50508481038252898181546001816001161561010002031660029004815260200191508054600181600116156101000203166002900480156133a35780601f10613378576101008083540402835291602001916133a3565b820191906000526020600020905b81548152906001019060200180831161338657829003601f168201915b50509b50505050505050505050505060405180910390a450505050565b60608060608060606000806000806133d66156f4565b600260008c73ffffffffffffffffffffffffffffffffffffffff1673ffffffffffffffffffffffffffffffffffffffff16815260200190815260200160002061014060405190810160405290816000820160009054906101000a900473ffffffffffffffffffffffffffffffffffffffff1673ffffffffffffffffffffffffffffffffffffffff1673ffffffffffffffffffffffffffffffffffffffff168152602001600182018054600181600116156101000203166002900480601f0160208091040260200160405190810160405280929190818152602001828054600181600116156101000203166002900480156135115780601f106134e657610100808354040283529160200191613511565b820191906000526020600020905b8154815290600101906020018083116134f457829003601f168201915b50505050508152602001600282018054600181600116156101000203166002900480601f0160208091040260200160405190810160405280929190818152602001828054600181600116156101000203166002900480156135b35780601f10613588576101008083540402835291602001916135b3565b820191906000526020600020905b81548152906001019060200180831161359657829003601f168201915b50505050508152602001600382018054600181600116156101000203166002900480601f0160208091040260200160405190810160405280929190818152602001828054600181600116156101000203166002900480156136555780601f1061362a57610100808354040283529160200191613655565b820191906000526020600020905b81548152906001019060200180831161363857829003601f168201915b50505050508152602001600482018054600181600116156101000203166002900480601f0160208091040260200160405190810160405280929190818152602001828054600181600116156101000203166002900480156136f75780601f106136cc576101008083540402835291602001916136f7565b820191906000526020600020905b8154815290600101906020018083116136da57829003601f168201915b50505050508152602001600582018054600181600116156101000203166002900480601f0160208091040260200160405190810160405280929190818152602001828054600181600116156101000203166002900480156137995780601f1061376e57610100808354040283529160200191613799565b820191906000526020600020905b81548152906001019060200180831161377c57829003601f168201915b50505050508152602001600682015481526020016007820160009054906101000a900460ff161515151581526020016007820160019054906101000a900460ff16151515158152602001600882015481525050905080602001518160400151826060015183608001518460a001518560e001518661010001518760c00151886101200151889850879750869650859550849450995099509950995099509950995099509950509193959799909294969850565b613854612256565b15156138c8576040517f08c379a00000000000000000000000000000000000000000000000000000000081526004018080602001828103825260208152602001807f4f776e61626c653a2063616c6c6572206973206e6f7420746865206f776e657281525060200191505060405180910390fd5b8015613adc57600260008373ffffffffffffffffffffffffffffffffffffffff1673ffffffffffffffffffffffffffffffffffffffff16815260200190815260200160002060070160009054906101000a900460ff161515613992576040517f08c379a00000000000000000000000000000000000000000000000000000000081526004018080602001828103825260128152602001807f537461747573206e6f742050656e64696e67000000000000000000000000000081525060200191505060405180910390fd5b42600260008473ffffffffffffffffffffffffffffffffffffffff1673ffffffffffffffffffffffffffffffffffffffff168152602001908152602001600020600601819055506000600260008473ffffffffffffffffffffffffffffffffffffffff1673ffffffffffffffffffffffffffffffffffffffff16815260200190815260200160002060070160006101000a81548160ff0219169083151502179055506001600260008473ffffffffffffffffffffffffffffffffffffffff1673ffffffffffffffffffffffffffffffffffffffff16815260200190815260200160002060070160016101000a81548160ff0219169083151502179055506023600260008473ffffffffffffffffffffffffffffffffffffffff1673ffffffffffffffffffffffffffffffffffffffff16815260200190815260200160002060080181905550613bda565b42600260008473ffffffffffffffffffffffffffffffffffffffff1673ffffffffffffffffffffffffffffffffffffffff168152602001908152602001600020600601819055506000600260008473ffffffffffffffffffffffffffffffffffffffff1673ffffffffffffffffffffffffffffffffffffffff16815260200190815260200160002060070160006101000a81548160ff0219169083151502179055506000600260008473ffffffffffffffffffffffffffffffffffffffff1673ffffffffffffffffffffffffffffffffffffffff16815260200190815260200160002060070160016101000a81548160ff0219169083151502179055505b600260008373ffffffffffffffffffffffffffffffffffffffff1673ffffffffffffffffffffffffffffffffffffffff16815260200190815260200160002060070160019054906101000a900460ff161515600260008473ffffffffffffffffffffffffffffffffffffffff1673ffffffffffffffffffffffffffffffffffffffff16815260200190815260200160002060000160009054906101000a900473ffffffffffffffffffffffffffffffffffffffff1673ffffffffffffffffffffffffffffffffffffffff167fba36970dcbe5845620db5e75839cf6e99d4c1ee1341d0f4499e16fdf1fa2641d33600260008773ffffffffffffffffffffffffffffffffffffffff1673ffffffffffffffffffffffffffffffffffffffff168152602001908152602001600020600101600260008873ffffffffffffffffffffffffffffffffffffffff1673ffffffffffffffffffffffffffffffffffffffff16815260200190815260200160002060020142600260008a73ffffffffffffffffffffffffffffffffffffffff1673ffffffffffffffffffffffffffffffffffffffff16815260200190815260200160002060070160009054906101000a900460ff16600260008b73ffffffffffffffffffffffffffffffffffffffff1673ffffffffffffffffffffffffffffffffffffffff16815260200190815260200160002060080154604051808773ffffffffffffffffffffffffffffffffffffffff1673ffffffffffffffffffffffffffffffffffffffff168152602001806020018060200186815260200185151515158152602001848152602001838103835288818154600181600116156101000203166002900481526020019150805460018160011615610100020316600290048015613eb45780601f10613e8957610100808354040283529160200191613eb4565b820191906000526020600020905b815481529060010190602001808311613e9757829003601f168201915b5050838103825287818154600181600116156101000203166002900481526020019150805460018160011615610100020316600290048015613f375780601f10613f0c57610100808354040283529160200191613f37565b820191906000526020600020905b815481529060010190602001808311613f1a57829003601f168201915b50509850505050505050505060405180910390a35050565b60026020528060005260406000206000915090508060000160009054906101000a900473ffffffffffffffffffffffffffffffffffffffff1690806001018054600181600116156101000203166002900480601f0160208091040260200160405190810160405280929190818152602001828054600181600116156101000203166002900480156140215780601f10613ff657610100808354040283529160200191614021565b820191906000526020600020905b81548152906001019060200180831161400457829003601f168201915b505050505090806002018054600181600116156101000203166002900480601f0160208091040260200160405190810160405280929190818152602001828054600181600116156101000203166002900480156140bf5780601f10614094576101008083540402835291602001916140bf565b820191906000526020600020905b8154815290600101906020018083116140a257829003601f168201915b505050505090806003018054600181600116156101000203166002900480601f01602080910402602001604051908101604052809291908181526020018280546001816001161561010002031660029004801561415d5780601f106141325761010080835404028352916020019161415d565b820191906000526020600020905b81548152906001019060200180831161414057829003601f168201915b505050505090806004018054600181600116156101000203166002900480601f0160208091040260200160405190810160405280929190818152602001828054600181600116156101000203166002900480156141fb5780601f106141d0576101008083540402835291602001916141fb565b820191906000526020600020905b8154815290600101906020018083116141de57829003601f168201915b505050505090806005018054600181600116156101000203166002900480601f0160208091040260200160405190810160405280929190818152602001828054600181600116156101000203166002900480156142995780601f1061426e57610100808354040283529160200191614299565b820191906000526020600020905b81548152906001019060200180831161427c57829003601f168201915b5050505050908060060154908060070160009054906101000a900460ff16908060070160019054906101000a900460ff1690806008015490508a565b6001818154811015156142e457fe5b90600052602060002090600902016000915090508060000160009054906101000a900473ffffffffffffffffffffffffffffffffffffffff1690806001018054600181600116156101000203166002900480601f0160208091040260200160405190810160405280929190818152602001828054600181600116156101000203166002900480156143b65780601f1061438b576101008083540402835291602001916143b6565b820191906000526020600020905b81548152906001019060200180831161439957829003601f168201915b505050505090806002018054600181600116156101000203166002900480601f0160208091040260200160405190810160405280929190818152602001828054600181600116156101000203166002900480156144545780601f1061442957610100808354040283529160200191614454565b820191906000526020600020905b81548152906001019060200180831161443757829003601f168201915b505050505090806003018054600181600116156101000203166002900480601f0160208091040260200160405190810160405280929190818152602001828054600181600116156101000203166002900480156144f25780601f106144c7576101008083540402835291602001916144f2565b820191906000526020600020905b8154815290600101906020018083116144d557829003601f168201915b505050505090806004018054600181600116156101000203166002900480601f0160208091040260200160405190810160405280929190818152602001828054600181600116156101000203166002900480156145905780601f1061456557610100808354040283529160200191614590565b820191906000526020600020905b81548152906001019060200180831161457357829003601f168201915b505050505090806005018054600181600116156101000203166002900480601f01602080910402602001604051908101604052809291908181526020018280546001816001161561010002031660029004801561462e5780601f106146035761010080835404028352916020019161462e565b820191906000526020600020905b81548152906001019060200180831161461157829003601f168201915b5050505050908060060154908060070160009054906101000a900460ff16908060070160019054906101000a900460ff1690806008015490508a565b6060600660008373ffffffffffffffffffffffffffffffffffffffff1673ffffffffffffffffffffffffffffffffffffffff1681526020019081526020016000208054806020026020016040519081016040528092919081815260200182805480156146f557602002820191906000526020600020905b8154815260200190600101908083116146e1575b50505050509050919050565b600460009054906101000a900460ff16151515614786576040517f08c379a00000000000000000000000000000000000000000000000000000000081526004018080602001828103825260108152602001807f5061757361626c653a207061757365640000000000000000000000000000000081525060200191505060405180910390fd5b60011515600260003373ffffffffffffffffffffffffffffffffffffffff1673ffffffffffffffffffffffffffffffffffffffff16815260200190815260200160002060070160019054906101000a900460ff16151514801561483c575060001515600260003373ffffffffffffffffffffffffffffffffffffffff1673ffffffffffffffffffffffffffffffffffffffff16815260200190815260200160002060070160009054906101000a900460ff161515145b15156148b0576040517f08c379a00000000000000000000000000000000000000000000000000000000081526004018080602001828103825260168152602001807f596f7520617265204e6f7420526567697374657265640000000000000000000081525060200191505060405180910390fd5b81421015156148be57600080fd5b6000851180156148ce5750848311155b15156148d957600080fd5b6148e16157e2565b610160604051908101604052803373ffffffffffffffffffffffffffffffffffffffff168152602001600260003373ffffffffffffffffffffffffffffffffffffffff1673ffffffffffffffffffffffffffffffffffffffff1681526020019081526020016000206001018054600181600116156101000203166002900480601f0160208091040260200160405190810160405280929190818152602001828054600181600116156101000203166002900480156149e05780601f106149b5576101008083540402835291602001916149e0565b820191906000526020600020905b8154815290600101906020018083116149c357829003601f168201915b505050505081526020018a815260200189815260200188815260200187815260200187815260200186151581526020018581526020018481526020018381525090506005819080600181540180825580915050906001820390600052602060002090600b02016000909192909190915060008201518160000160006101000a81548173ffffffffffffffffffffffffffffffffffffffff021916908373ffffffffffffffffffffffffffffffffffffffff1602179055506020820151816001019080519060200190614ab3929190615855565b506040820151816002019080519060200190614ad0929190615855565b506060820151816003019080519060200190614aed929190615855565b506080820151816004019080519060200190614b0a929190615855565b5060a0820151816005015560c0820151816006015560e08201518160070160006101000a81548160ff0219169083151502179055506101008201518160080155610120820151816009015561014082015181600a019080519060200190614b72929190615855565b505050506000614b91600160058054905061527790919063ffffffff16565b90506000600660003373ffffffffffffffffffffffffffffffffffffffff1673ffffffffffffffffffffffffffffffffffffffff1681526020019081526020016000208290806001815401808255809150509060018203906000526020600020016000909192909190915055506037600260003373ffffffffffffffffffffffffffffffffffffffff1673ffffffffffffffffffffffffffffffffffffffff168152602001908152602001600020600801541015614c525760059050614c9b565b600260003373ffffffffffffffffffffffffffffffffffffffff1673ffffffffffffffffffffffffffffffffffffffff16815260200190815260200160002060080154603c0390505b603c600260003373ffffffffffffffffffffffffffffffffffffffff1673ffffffffffffffffffffffffffffffffffffffff168152602001908152602001600020600801541015614d8257614d3b81600260003373ffffffffffffffffffffffffffffffffffffffff1673ffffffffffffffffffffffffffffffffffffffff1681526020019081526020016000206008015461530290919063ffffffff16565b600260003373ffffffffffffffffffffffffffffffffffffffff1673ffffffffffffffffffffffffffffffffffffffff168152602001908152602001600020600801819055505b3373ffffffffffffffffffffffffffffffffffffffff167ffeff7f76b593426c8cc209f9a2376e12a8d92986d406b56cad817fb70e0b3b0083600260003373ffffffffffffffffffffffffffffffffffffffff1673ffffffffffffffffffffffffffffffffffffffff1681526020019081526020016000206001018e8d8d8d8c8c60405180898152602001806020018060200180602001888152602001871515151581526020018681526020018060200185810385528c818154600181600116156101000203166002900481526020019150805460018160011615610100020316600290048015614eb45780601f10614e8957610100808354040283529160200191614eb4565b820191906000526020600020905b815481529060010190602001808311614e9757829003601f168201915b505085810384528b818151815260200191508051906020019080838360005b83811015614eee578082015181840152602081019050614ed3565b50505050905090810190601f168015614f1b5780820380516001836020036101000a031916815260200191505b5085810383528a818151815260200191508051906020019080838360005b83811015614f54578082015181840152602081019050614f39565b50505050905090810190601f168015614f815780820380516001836020036101000a031916815260200191505b50858103825286818151815260200191508051906020019080838360005b83811015614fba578082015181840152602081019050614f9f565b50505050905090810190601f168015614fe75780820380516001836020036101000a031916815260200191505b509c5050505050505050505050505060405180910390a25050505050505050505050565b615013612256565b1515615087576040517f08c379a00000000000000000000000000000000000000000000000000000000081526004018080602001828103825260208152602001807f4f776e61626c653a2063616c6c6572206973206e6f7420746865206f776e657281525060200191505060405180910390fd5b6150908161538c565b50565b6000600180549050905090565b60008073ffffffffffffffffffffffffffffffffffffffff168273ffffffffffffffffffffffffffffffffffffffff161415151561516c576040517f08c379a00000000000000000000000000000000000000000000000000000000081526004018080602001828103825260228152602001807f526f6c65733a206163636f756e7420697320746865207a65726f20616464726581526020017f737300000000000000000000000000000000000000000000000000000000000081525060400191505060405180910390fd5b8260000160008373ffffffffffffffffffffffffffffffffffffffff1673ffffffffffffffffffffffffffffffffffffffff16815260200190815260200160002060009054906101000a900460ff16905092915050565b6151d781600361551590919063ffffffff16565b8073ffffffffffffffffffffffffffffffffffffffff167fcd265ebaf09df2871cc7bd4133404a235ba12eff2041bb89d9c714a2621c7c7e60405160405180910390a250565b61523181600361561790919063ffffffff16565b8073ffffffffffffffffffffffffffffffffffffffff167f6719d08c1888103bea251a4ed56406bd0c3e69723c8a1686e017e7bbe159b6f860405160405180910390a250565b60008282111515156152f1576040517f08c379a000000000000000000000000000000000000000000000000000000000815260040180806020018281038252601e8152602001807f536166654d6174683a207375627472616374696f6e206f766572666c6f77000081525060200191505060405180910390fd5b600082840390508091505092915050565b6000808284019050838110151515615382576040517f08c379a000000000000000000000000000000000000000000000000000000000815260040180806020018281038252601b8152602001807f536166654d6174683a206164646974696f6e206f766572666c6f77000000000081525060200191505060405180910390fd5b8091505092915050565b600073ffffffffffffffffffffffffffffffffffffffff168173ffffffffffffffffffffffffffffffffffffffff1614151515615457576040517f08c379a00000000000000000000000000000000000000000000000000000000081526004018080602001828103825260268152602001807f4f776e61626c653a206e6577206f776e657220697320746865207a65726f206181526020017f646472657373000000000000000000000000000000000000000000000000000081525060400191505060405180910390fd5b8073ffffffffffffffffffffffffffffffffffffffff166000809054906101000a900473ffffffffffffffffffffffffffffffffffffffff1673ffffffffffffffffffffffffffffffffffffffff167f8be0079c531659141344cd1fd0a4f28419497f9722a3daafe3b4186f6b6457e060405160405180910390a3806000806101000a81548173ffffffffffffffffffffffffffffffffffffffff021916908373ffffffffffffffffffffffffffffffffffffffff16021790555050565b61551f82826150a0565b15156155b9576040517f08c379a00000000000000000000000000000000000000000000000000000000081526004018080602001828103825260218152602001807f526f6c65733a206163636f756e7420646f6573206e6f74206861766520726f6c81526020017f650000000000000000000000000000000000000000000000000000000000000081525060400191505060405180910390fd5b60008260000160008373ffffffffffffffffffffffffffffffffffffffff1673ffffffffffffffffffffffffffffffffffffffff16815260200190815260200160002060006101000a81548160ff0219169083151502179055505050565b61562182826150a0565b151515615696576040517f08c379a000000000000000000000000000000000000000000000000000000000815260040180806020018281038252601f8152602001807f526f6c65733a206163636f756e7420616c72656164792068617320726f6c650081525060200191505060405180910390fd5b60018260000160008373ffffffffffffffffffffffffffffffffffffffff1673ffffffffffffffffffffffffffffffffffffffff16815260200190815260200160002060006101000a81548160ff0219169083151502179055505050565b61014060405190810160405280600073ffffffffffffffffffffffffffffffffffffffff168152602001606081526020016060815260200160608152602001606081526020016060815260200160008152602001600015158152602001600015158152602001600081525090565b828054600181600116156101000203166002900490600052602060002090601f016020900481019282601f106157a357805160ff19168380011785556157d1565b828001600101855582156157d1579182015b828111156157d05782518255916020019190600101906157b5565b5b5090506157de91906158d5565b5090565b61016060405190810160405280600073ffffffffffffffffffffffffffffffffffffffff1681526020016060815260200160608152602001606081526020016060815260200160008152602001600081526020016000151581526020016000815260200160008152602001606081525090565b828054600181600116156101000203166002900490600052602060002090601f016020900481019282601f1061589657805160ff19168380011785556158c4565b828001600101855582156158c4579182015b828111156158c35782518255916020019190600101906158a8565b5b5090506158d191906158d5565b5090565b6158f791905b808211156158f35760008160009055506001016158db565b5090565b9056fea165627a7a72305820da5028a9794bfdda3f1c8e71fd37c2c973ec3ee2b294bcad42aceb95de1159f10029",
  "source": "pragma solidity ^0.5.0;\r\n\r\nimport 'openzeppelin-solidity/contracts/lifecycle/Pausable.sol';\r\nimport 'openzeppelin-solidity/contracts/math/SafeMath.sol';\r\nimport './KadenaRegistration.sol';\r\n\r\n// SPDX-License-Identifier: MIT\r\n/**\r\n* @title KadenaGive\r\n* @dev Is a platform that Hospitals could utilize to connect & form alliance with other hospitals.\r\n* Registered Hopitals in Kadena could call help & post/borrow essential items that they need at the moment or will be needing in the near future.\r\n* Registered Hospital that has extra essential items could also post/give items that they think will be helpful to other hospitals.\r\n* Every registered hospital in Kadena has a rating that corresponds to their actions on the platform.\r\n* Some features/functions will be unavailable to a registered hospital if their rating drops a certain point.\r\n*/\r\n\r\ncontract KadenaGive is KadenaRegistration, Pausable{\r\n\tusing SafeMath for uint;\r\n\r\n\tstruct GiveHelp {\r\n\t\taddress owner;\r\n\t\tstring entity;\r\n\t\tstring title;\r\n\t\tstring category;\r\n\t\tstring item;\r\n\t\tuint amount;\r\n\t\tuint committed;\r\n\t\tbool borrow;\r\n\t\tuint minimum;\r\n\t\tuint endDate;\r\n\t\tstring ipfs;\r\n\t\r\n\t}\r\n\t\r\n  \r\n\tGiveHelp[] private giveHelp;\r\n\tmapping(address => uint256[]) private givenEvents;\r\n\r\n    event LendAHand(address indexed ownerGive, uint eventId, string name,string title, string item, uint amount, bool borrow, uint endDate, string ipfs);\r\n    event Taken(address indexed takenBy, string receiver , string sender,uint date, uint indexed eventId,string item,uint received, address indexed tookFrom,uint endDate,bool borrow, uint addedRating);\r\n\r\n\r\n    /**\r\n\t* @dev Function creates the event to Provide Assistance.\r\n\t* @param _title string - The title of the event.\r\n\t* @param _category string - The category of the item.\r\n\t* @param _item string - The name of item.\r\n\t* @param _amount uint - The total amount of items to be given.\r\n\t* @param _borrow bool - True if the items is expected to be returned in the future.\r\n\t* @param _minimumAmount - minimum amount to take.\r\n\t* @param _endDate - End date of the event.\r\n\t* @param _ipfs - The IPFS hash containing additional information about the event.\r\n\r\n\t* @notice Requires that the contract is not paused.\r\n    * @notice Requires that the sender is registered.\r\n\t* @notice Requires that the event time is in the future.\r\n    * @notice Requires that the amount is greater than 0.\r\n\t*/\r\n\t\r\n\tfunction provideAssistance(\r\n\t\tstring memory _title,\r\n\t\tstring memory _category,\r\n\t\tstring memory _item,\r\n\t\tuint _amount,\r\n\t\tbool _borrow,\r\n\t\tuint _minimumAmount,\r\n\t\tuint _endDate,\r\n\t\tstring memory _ipfs\r\n\t)\r\n    whenNotPaused()\r\n    Registered()\r\n\t\tpublic\r\n\t{\r\n\t    require(now < _endDate);\r\n\t    require(_amount > 0 && _minimumAmount <= _amount);\r\n   \r\n\t    GiveHelp memory _event = GiveHelp({\r\n\t\t\towner: msg.sender,\r\n\t\t\tentity: registered[msg.sender].name,\r\n\t\t\ttitle: _title,\r\n\t\t\tcategory: _category,\r\n\t\t\titem: _item,\r\n\t\t\tamount: _amount,\r\n\t\t\tcommitted:_amount,\r\n\t\t\tborrow: _borrow,\r\n\t\t    minimum: _minimumAmount,\r\n\t\t\tendDate: _endDate,\r\n\t\t\tipfs: _ipfs\r\n\t\t});\r\n\t\tgiveHelp.push(_event);\r\n      \tuint _eventId = giveHelp.length.sub(1);\r\n      \tuint _addedRating;\r\n\t\tgivenEvents[msg.sender].push(_eventId);\r\n\t\t\r\n\t\tif(registered[msg.sender].rating < 55){\r\n\t\t    _addedRating = 5;\r\n\t\t}\r\n\t\telse {\r\n\t\t    _addedRating = 60 - registered[msg.sender].rating;\r\n\t\t}\r\n\t    \r\n\t\tif(registered[msg.sender].rating < 60){\r\n\t\tregistered[msg.sender].rating = registered[msg.sender].rating.add(_addedRating);\r\n\t\t    \r\n\t\t}\r\n\t    emit LendAHand(msg.sender, _eventId,registered[msg.sender].name,_title,_item, _amount, _borrow,_endDate,_ipfs);    \r\n  \r\n\t}\r\n\t\r\n\t/**\r\n\t* @dev Function to show information about give assitance event.\r\n\t* @param _id uint - Event ID.\r\n\t* return title string - The title of the event.\r\n\t* return category string - The category of needed item.\r\n\t* return item string - The name of the item.\r\n\t* return amount uint - The total amount of items.\r\n\t* return committed uint - The amount of items left.\r\n\t* return borrow bool - True if the item is to be returned in the future.\r\n\t* return minimum uint - Minimum amount an entity could take.\r\n\t* return endDate uint - End date of the event.\r\n\t* return ipfs string - The IPFS hash containing additional information about event.\r\n\t* return owner address - The owner of the event.\r\n\r\n\t* @notice Requires that the events exist.\r\n\t*/\r\n\t\r\n\tfunction provideAssistanceDetails(uint _id)\r\n\t\tpublic\r\n\t\tview\r\n\t    returns(\r\n\t\t    string memory title,\r\n\t\t    string memory category,\r\n\t    \tstring memory item,\r\n\t    \tuint amount,\r\n\t    \tuint committed,\r\n\t    \tbool borrow,\r\n\t    \tuint minimum,\r\n\t    \tuint endDate,\r\n\t    \tstring memory ipfs,\r\n\t    \taddress owner\r\n    \t) {\r\n\t    require(_id < giveHelp.length);\r\n\t    GiveHelp memory _event = giveHelp[_id];\r\n\t\treturn(\r\n\t\t\t_event.title,\r\n\t\t\t_event.category,\r\n\t\t\t_event.item,\r\n\t\t\t_event.amount,\r\n\t\t\t_event.committed,\r\n\t\t\t_event.borrow,\r\n\t\t    _event.minimum,\r\n\t\t\t_event.endDate,\r\n\t\t\t_event.ipfs,\r\n\t\t\t_event.owner\r\n\t\t);\r\n\t}\r\n\t\r\n   \r\n    \t\r\n    /**\r\n\t* @dev Function to take item from the given asstistance pool.\r\n\t* @param _eventId - The ID of the Assistance Event.\r\n\t* @param _take - The amount of the item to take.\r\n\t\r\n    * @notice Requires that the event exist.\r\n    * @notice Requires that the sender rating is greater than or equal to 10.\r\n    * @notice Requires that the amount to take is greater than 0.\r\n    * @notice Requires that the amount to take is greater than minimum.\r\n    * @notice Requires that the amount of items to take is <= current available items in the pool.\r\n    * @notice Requires that the taker is not the creator of the event.\r\n    * @notice Requires that the events hasn't ended yet.\r\n\t*/\r\n\t\r\n\tfunction take(uint _eventId, uint _take)\r\n\t    whenNotPaused()\r\n\t    Registered()\r\n\t\tpublic\r\n\t\t\r\n\t{\r\n\t    require(_eventId < giveHelp.length);\r\n\t    \r\n\t    GiveHelp memory _event = giveHelp[_eventId];\r\n\t\t\r\n\t\trequire(registered[msg.sender].rating > 10);\r\n\t    require(_take > 0 && _take <= giveHelp[_eventId].committed);\r\n\t    require(msg.sender != giveHelp[_eventId].owner);\r\n\t    require(giveHelp[_eventId].endDate > now);\r\n\t    \r\n\t    if(giveHelp[_eventId].committed >= giveHelp[_eventId].minimum){\r\n\t      require(_take >= giveHelp[_eventId].minimum);\r\n\t    }\r\n\t    \r\n\t\tgiveHelp[_eventId].committed = giveHelp[_eventId].committed.sub(_take);\r\n\t    uint _subtractRating;\r\n\t\tif (registered[msg.sender].rating >= 13){\r\n\t\t     _subtractRating = 3;\r\n\t\t}\r\n\t\t\r\n\t\telse{\r\n\t\t    _subtractRating = registered[msg.sender].rating - 10;\r\n\t\t}\r\n\t\t\r\n\t\tregistered[msg.sender].rating = registered[msg.sender].rating.sub(_subtractRating);\r\n\t\temit Taken(msg.sender,registered[msg.sender].name, registered[giveHelp[_eventId].owner].name,now, _eventId,giveHelp[_eventId].item,_take, giveHelp[_eventId].owner,giveHelp[_eventId].endDate,giveHelp[_eventId].borrow, _subtractRating);\r\n\t}\r\n\t\r\n\t\r\n\r\n\t\r\n\tfunction assistsOf(address _owner) public view returns(uint[] memory) {\r\n\t\treturn givenEvents[_owner];\r\n\t}\r\n\r\n\r\n\t/**\r\n\t* @dev Function returns number of all events.\r\n\t* @return uint - Number of events.\r\n\t*/\r\n\t\r\n\tfunction getAssistCount() public view returns(uint) {\r\n\t\treturn giveHelp.length;\r\n\t}\r\n\t\r\n\r\n}",
  "sourcePath": "C:\\Users\\jfpad\\kadena\\contracts\\KadenaGive.sol",
  "compiler": {
    "name": "solc",
    "version": "0.5.0+commit.1d4f565a.Emscripten.clang"
  },
  "schemaVersion": "3.2.0",
  "updatedAt": "2020-05-28T11:57:06.636Z",
  "networkType": "ethereum",
  "devdoc": {
    "details": "Is a platform that Hospitals could utilize to connect & form alliance with other hospitals.\r Registered Hopitals in Kadena could call help & post/borrow essential items that they need at the moment or will be needing in the near future.\r Registered Hospital that has extra essential items could also post/give items that they think will be helpful to other hospitals.\r Every registered hospital in Kadena has a rating that corresponds to their actions on the platform.\r Some features/functions will be unavailable to a registered hospital if their rating drops a certain point.\r",
    "methods": {
      "getAssistCount()": {
        "details": "Function returns number of all events.\r",
        "return": "uint - Number of events.\r"
      },
      "getHospitalStatus(address)": {
        "details": "Function to show information about the hospital.\r",
        "params": {
          "_owner": "address - The Ethereum Address of the hospital.\r return _hospitalName string - The name of the hospital.\r return _country string - The country where the hospital is located.\r return _city string - The city where the hospital is located.\r return _ipfs string - The IPFS hash containing additional information about event.\r return _pending bool - If true account has a pending registration.\r return _registered bool - If true account is registered.\r return _time uint - time of registration.\r return _rating uint - The rating of the account.\r"
        }
      },
      "isOwner()": {
        "details": "Returns true if the caller is the current owner."
      },
      "owner()": {
        "details": "Returns the address of the current owner."
      },
      "pause()": {
        "details": "Called by a pauser to pause, triggers stopped state."
      },
      "paused()": {
        "details": "Returns true if the contract is paused, and false otherwise."
      },
      "provideAssistance(string,string,string,uint256,bool,uint256,uint256,string)": {
        "details": "Function creates the event to Provide Assistance.\r",
        "params": {
          "_amount": "uint - The total amount of items to be given.\r",
          "_borrow": "bool - True if the items is expected to be returned in the future.\r",
          "_category": "string - The category of the item.\r",
          "_endDate": "- End date of the event.\r",
          "_ipfs": "- The IPFS hash containing additional information about the event.\r",
          "_item": "string - The name of item.\r",
          "_minimumAmount": "- minimum amount to take.\r",
          "_title": "string - The title of the event.\r"
        }
      },
      "provideAssistanceDetails(uint256)": {
        "details": "Function to show information about give assitance event.\r",
        "params": {
          "_id": "uint - Event ID.\r return title string - The title of the event.\r return category string - The category of needed item.\r return item string - The name of the item.\r return amount uint - The total amount of items.\r return committed uint - The amount of items left.\r return borrow bool - True if the item is to be returned in the future.\r return minimum uint - Minimum amount an entity could take.\r return endDate uint - End date of the event.\r return ipfs string - The IPFS hash containing additional information about event.\r return owner address - The owner of the event.\r"
        }
      },
      "register(address,bool)": {
        "details": "Function to Accept/Reject or Revoke Registration .\r",
        "params": {
          "_accepted": "- If true Ethereum Address Registration is accepted.\r",
          "_applicant": "address - The Ethereum Address of the applicant.\r"
        }
      },
      "registerHospital(string,string,string,string,string)": {
        "details": "Function Request Hospital Registration.\r",
        "params": {
          "_city": "string - The city where the hospital is located.\r",
          "_country": "string - The country where the hospital is located.\r",
          "_hospitalName": "string - Name of Hospital.\r",
          "_ipfs": "- The IPFS hash containing additional information about the Hospital.\r"
        }
      },
      "renounceOwnership()": {
        "details": "Leaves the contract without owner. It will not be possible to call `onlyOwner` functions anymore. Can only be called by the current owner.     * > Note: Renouncing ownership will leave the contract without an owner, thereby removing any functionality that is only available to the owner."
      },
      "take(uint256,uint256)": {
        "details": "Function to take item from the given asstistance pool.\r",
        "params": {
          "_eventId": "- The ID of the Assistance Event.\r",
          "_take": "- The amount of the item to take.\r"
        }
      },
      "transferOwnership(address)": {
        "details": "Transfers ownership of the contract to a new account (`newOwner`). Can only be called by the current owner."
      },
      "unpause()": {
        "details": "Called by a pauser to unpause, returns to normal state."
      }
    },
    "title": "KadenaGive\r"
  },
  "userdoc": {
    "methods": {
      "provideAssistance(string,string,string,uint256,bool,uint256,uint256,string)": {
        "notice": "Requires that the contract is not paused.\rRequires that the sender is registered.\rRequires that the event time is in the future.\rRequires that the amount is greater than 0.\r"
      },
      "provideAssistanceDetails(uint256)": {
        "notice": "Requires that the events exist.\r"
      },
      "register(address,bool)": {
        "notice": "Requires that the contract is not paused.\rRequires that the approver is the owner of contract.\rRequires that the applicant address does not have a pending registration.\r"
      },
      "registerHospital(string,string,string,string,string)": {
        "notice": "Requires that the contract is not paused.\rRequires that the applicant address is not yet registered & does not have a pending registration.\r"
      },
      "take(uint256,uint256)": {
        "notice": "Requires that the event exist.\rRequires that the sender rating is greater than or equal to 10.\rRequires that the amount to take is greater than 0.\rRequires that the amount to take is greater than minimum.\rRequires that the amount of items to take is <= current available items in the pool.\rRequires that the taker is not the creator of the event.\rRequires that the events hasn't ended yet.\r"
      }
    }
  }
}