{
  "contractName": "KadenaNeed",
  "abi": [
    {
      "constant": false,
      "inputs": [
        {
          "name": "_hospitalName",
          "type": "string"
        },
        {
          "name": "_entityType",
          "type": "string"
        },
        {
          "name": "_country",
          "type": "string"
        },
        {
          "name": "_city",
          "type": "string"
        },
        {
          "name": "_ipfs",
          "type": "string"
        }
      ],
      "name": "registerHospital",
      "outputs": [],
      "payable": false,
      "stateMutability": "nonpayable",
      "type": "function"
    },
    {
      "constant": false,
      "inputs": [],
      "name": "unpause",
      "outputs": [],
      "payable": false,
      "stateMutability": "nonpayable",
      "type": "function"
    },
    {
      "constant": true,
      "inputs": [
        {
          "name": "account",
          "type": "address"
        }
      ],
      "name": "isPauser",
      "outputs": [
        {
          "name": "",
          "type": "bool"
        }
      ],
      "payable": false,
      "stateMutability": "view",
      "type": "function"
    },
    {
      "constant": true,
      "inputs": [],
      "name": "paused",
      "outputs": [
        {
          "name": "",
          "type": "bool"
        }
      ],
      "payable": false,
      "stateMutability": "view",
      "type": "function"
    },
    {
      "constant": false,
      "inputs": [],
      "name": "renouncePauser",
      "outputs": [],
      "payable": false,
      "stateMutability": "nonpayable",
      "type": "function"
    },
    {
      "constant": false,
      "inputs": [],
      "name": "renounceOwnership",
      "outputs": [],
      "payable": false,
      "stateMutability": "nonpayable",
      "type": "function"
    },
    {
      "constant": false,
      "inputs": [
        {
          "name": "account",
          "type": "address"
        }
      ],
      "name": "addPauser",
      "outputs": [],
      "payable": false,
      "stateMutability": "nonpayable",
      "type": "function"
    },
    {
      "constant": false,
      "inputs": [],
      "name": "pause",
      "outputs": [],
      "payable": false,
      "stateMutability": "nonpayable",
      "type": "function"
    },
    {
      "constant": true,
      "inputs": [],
      "name": "owner",
      "outputs": [
        {
          "name": "",
          "type": "address"
        }
      ],
      "payable": false,
      "stateMutability": "view",
      "type": "function"
    },
    {
      "constant": true,
      "inputs": [],
      "name": "isOwner",
      "outputs": [
        {
          "name": "",
          "type": "bool"
        }
      ],
      "payable": false,
      "stateMutability": "view",
      "type": "function"
    },
    {
      "constant": true,
      "inputs": [
        {
          "name": "_owner",
          "type": "address"
        }
      ],
      "name": "getHospitalStatus",
      "outputs": [
        {
          "name": "_hospitalName",
          "type": "string"
        },
        {
          "name": "_entityType",
          "type": "string"
        },
        {
          "name": "_country",
          "type": "string"
        },
        {
          "name": "_city",
          "type": "string"
        },
        {
          "name": "_ipfs",
          "type": "string"
        },
        {
          "name": "_pending",
          "type": "bool"
        },
        {
          "name": "_registered",
          "type": "bool"
        },
        {
          "name": "_time",
          "type": "uint256"
        },
        {
          "name": "_rating",
          "type": "uint256"
        }
      ],
      "payable": false,
      "stateMutability": "view",
      "type": "function"
    },
    {
      "constant": false,
      "inputs": [
        {
          "name": "_applicant",
          "type": "address"
        },
        {
          "name": "_accepted",
          "type": "bool"
        }
      ],
      "name": "register",
      "outputs": [],
      "payable": false,
      "stateMutability": "nonpayable",
      "type": "function"
    },
    {
      "constant": true,
      "inputs": [
        {
          "name": "",
          "type": "address"
        }
      ],
      "name": "registered",
      "outputs": [
        {
          "name": "owner",
          "type": "address"
        },
        {
          "name": "name",
          "type": "string"
        },
        {
          "name": "entityType",
          "type": "string"
        },
        {
          "name": "country",
          "type": "string"
        },
        {
          "name": "city",
          "type": "string"
        },
        {
          "name": "ipfs",
          "type": "string"
        },
        {
          "name": "time",
          "type": "uint256"
        },
        {
          "name": "pending",
          "type": "bool"
        },
        {
          "name": "registered",
          "type": "bool"
        },
        {
          "name": "rating",
          "type": "uint256"
        }
      ],
      "payable": false,
      "stateMutability": "view",
      "type": "function"
    },
    {
      "constant": true,
      "inputs": [
        {
          "name": "",
          "type": "uint256"
        }
      ],
      "name": "entity",
      "outputs": [
        {
          "name": "owner",
          "type": "address"
        },
        {
          "name": "name",
          "type": "string"
        },
        {
          "name": "entityType",
          "type": "string"
        },
        {
          "name": "country",
          "type": "string"
        },
        {
          "name": "city",
          "type": "string"
        },
        {
          "name": "ipfs",
          "type": "string"
        },
        {
          "name": "time",
          "type": "uint256"
        },
        {
          "name": "pending",
          "type": "bool"
        },
        {
          "name": "registered",
          "type": "bool"
        },
        {
          "name": "rating",
          "type": "uint256"
        }
      ],
      "payable": false,
      "stateMutability": "view",
      "type": "function"
    },
    {
      "constant": false,
      "inputs": [
        {
          "name": "newOwner",
          "type": "address"
        }
      ],
      "name": "transferOwnership",
      "outputs": [],
      "payable": false,
      "stateMutability": "nonpayable",
      "type": "function"
    },
    {
      "constant": true,
      "inputs": [],
      "name": "getHospitalCount",
      "outputs": [
        {
          "name": "",
          "type": "uint256"
        }
      ],
      "payable": false,
      "stateMutability": "view",
      "type": "function"
    },
    {
      "anonymous": false,
      "inputs": [
        {
          "indexed": true,
          "name": "ownerNeed",
          "type": "address"
        },
        {
          "indexed": false,
          "name": "eventId",
          "type": "uint256"
        },
        {
          "indexed": false,
          "name": "hospital",
          "type": "string"
        },
        {
          "indexed": false,
          "name": "title",
          "type": "string"
        },
        {
          "indexed": false,
          "name": "item",
          "type": "string"
        },
        {
          "indexed": false,
          "name": "amount",
          "type": "uint256"
        },
        {
          "indexed": false,
          "name": "borrow",
          "type": "bool"
        },
        {
          "indexed": false,
          "name": "endDate",
          "type": "uint256"
        },
        {
          "indexed": false,
          "name": "ipfs",
          "type": "string"
        }
      ],
      "name": "NeedAHand",
      "type": "event"
    },
    {
      "anonymous": false,
      "inputs": [
        {
          "indexed": true,
          "name": "pledgedBy",
          "type": "address"
        },
        {
          "indexed": false,
          "name": "sender",
          "type": "string"
        },
        {
          "indexed": false,
          "name": "receiver",
          "type": "string"
        },
        {
          "indexed": false,
          "name": "date",
          "type": "uint256"
        },
        {
          "indexed": true,
          "name": "eventId",
          "type": "uint256"
        },
        {
          "indexed": false,
          "name": "item",
          "type": "string"
        },
        {
          "indexed": false,
          "name": "committed",
          "type": "uint256"
        },
        {
          "indexed": true,
          "name": "pledgeTo",
          "type": "address"
        },
        {
          "indexed": false,
          "name": "endDate",
          "type": "uint256"
        },
        {
          "indexed": false,
          "name": "borrow",
          "type": "bool"
        },
        {
          "indexed": false,
          "name": "addedRating",
          "type": "uint256"
        }
      ],
      "name": "Pledged",
      "type": "event"
    },
    {
      "anonymous": false,
      "inputs": [
        {
          "indexed": false,
          "name": "account",
          "type": "address"
        }
      ],
      "name": "Paused",
      "type": "event"
    },
    {
      "anonymous": false,
      "inputs": [
        {
          "indexed": false,
          "name": "account",
          "type": "address"
        }
      ],
      "name": "Unpaused",
      "type": "event"
    },
    {
      "anonymous": false,
      "inputs": [
        {
          "indexed": true,
          "name": "account",
          "type": "address"
        }
      ],
      "name": "PauserAdded",
      "type": "event"
    },
    {
      "anonymous": false,
      "inputs": [
        {
          "indexed": true,
          "name": "account",
          "type": "address"
        }
      ],
      "name": "PauserRemoved",
      "type": "event"
    },
    {
      "anonymous": false,
      "inputs": [
        {
          "indexed": true,
          "name": "owner",
          "type": "address"
        },
        {
          "indexed": false,
          "name": "name",
          "type": "string"
        },
        {
          "indexed": false,
          "name": "entityType",
          "type": "string"
        },
        {
          "indexed": false,
          "name": "country",
          "type": "string"
        },
        {
          "indexed": false,
          "name": "city",
          "type": "string"
        },
        {
          "indexed": false,
          "name": "ipfs",
          "type": "string"
        },
        {
          "indexed": false,
          "name": "time",
          "type": "uint256"
        },
        {
          "indexed": false,
          "name": "pending",
          "type": "bool"
        },
        {
          "indexed": false,
          "name": "registered",
          "type": "bool"
        }
      ],
      "name": "RegistrationRequest",
      "type": "event"
    },
    {
      "anonymous": false,
      "inputs": [
        {
          "indexed": false,
          "name": "Admin",
          "type": "address"
        },
        {
          "indexed": true,
          "name": "applicant",
          "type": "address"
        },
        {
          "indexed": false,
          "name": "registeredAs",
          "type": "string"
        },
        {
          "indexed": false,
          "name": "entityType",
          "type": "string"
        },
        {
          "indexed": false,
          "name": "time",
          "type": "uint256"
        },
        {
          "indexed": false,
          "name": "pending",
          "type": "bool"
        },
        {
          "indexed": true,
          "name": "registrationStatus",
          "type": "bool"
        },
        {
          "indexed": false,
          "name": "rating",
          "type": "uint256"
        }
      ],
      "name": "Registration",
      "type": "event"
    },
    {
      "anonymous": false,
      "inputs": [
        {
          "indexed": true,
          "name": "previousOwner",
          "type": "address"
        },
        {
          "indexed": true,
          "name": "newOwner",
          "type": "address"
        }
      ],
      "name": "OwnershipTransferred",
      "type": "event"
    },
    {
      "constant": false,
      "inputs": [
        {
          "name": "_title",
          "type": "string"
        },
        {
          "name": "_category",
          "type": "string"
        },
        {
          "name": "_item",
          "type": "string"
        },
        {
          "name": "_amount",
          "type": "uint256"
        },
        {
          "name": "_borrow",
          "type": "bool"
        },
        {
          "name": "_minimumAmount",
          "type": "uint256"
        },
        {
          "name": "_endDate",
          "type": "uint256"
        },
        {
          "name": "_ipfs",
          "type": "string"
        }
      ],
      "name": "callForHelp",
      "outputs": [],
      "payable": false,
      "stateMutability": "nonpayable",
      "type": "function"
    },
    {
      "constant": true,
      "inputs": [
        {
          "name": "_id",
          "type": "uint256"
        }
      ],
      "name": "callForHelpDetails",
      "outputs": [
        {
          "name": "title",
          "type": "string"
        },
        {
          "name": "category",
          "type": "string"
        },
        {
          "name": "item",
          "type": "string"
        },
        {
          "name": "amount",
          "type": "uint256"
        },
        {
          "name": "committed",
          "type": "uint256"
        },
        {
          "name": "borrow",
          "type": "bool"
        },
        {
          "name": "minumum",
          "type": "uint256"
        },
        {
          "name": "endDate",
          "type": "uint256"
        },
        {
          "name": "ipfs",
          "type": "string"
        },
        {
          "name": "owner",
          "type": "address"
        }
      ],
      "payable": false,
      "stateMutability": "view",
      "type": "function"
    },
    {
      "constant": false,
      "inputs": [
        {
          "name": "_eventId",
          "type": "uint256"
        },
        {
          "name": "_commit",
          "type": "uint256"
        }
      ],
      "name": "pledge",
      "outputs": [],
      "payable": false,
      "stateMutability": "nonpayable",
      "type": "function"
    },
    {
      "constant": true,
      "inputs": [
        {
          "name": "_owner",
          "type": "address"
        }
      ],
      "name": "needsOf",
      "outputs": [
        {
          "name": "",
          "type": "uint256[]"
        }
      ],
      "payable": false,
      "stateMutability": "view",
      "type": "function"
    },
    {
      "constant": true,
      "inputs": [],
      "name": "getNeededCount",
      "outputs": [
        {
          "name": "",
          "type": "uint256"
        }
      ],
      "payable": false,
      "stateMutability": "view",
      "type": "function"
    }
  ],
  "bytecode": "0x6080604052336000806101000a81548173ffffffffffffffffffffffffffffffffffffffff021916908373ffffffffffffffffffffffffffffffffffffffff1602179055506000809054906101000a900473ffffffffffffffffffffffffffffffffffffffff1673ffffffffffffffffffffffffffffffffffffffff16600073ffffffffffffffffffffffffffffffffffffffff167f8be0079c531659141344cd1fd0a4f28419497f9722a3daafe3b4186f6b6457e060405160405180910390a3620000da33620000fb640100000000026401000000009004565b6000600460006101000a81548160ff02191690831515021790555062000378565b6200011f816003620001656401000000000262005724179091906401000000009004565b8073ffffffffffffffffffffffffffffffffffffffff167f6719d08c1888103bea251a4ed56406bd0c3e69723c8a1686e017e7bbe159b6f860405160405180910390a250565b62000180828262000254640100000000026401000000009004565b151515620001f6576040517f08c379a000000000000000000000000000000000000000000000000000000000815260040180806020018281038252601f8152602001807f526f6c65733a206163636f756e7420616c72656164792068617320726f6c650081525060200191505060405180910390fd5b60018260000160008373ffffffffffffffffffffffffffffffffffffffff1673ffffffffffffffffffffffffffffffffffffffff16815260200190815260200160002060006101000a81548160ff0219169083151502179055505050565b60008073ffffffffffffffffffffffffffffffffffffffff168273ffffffffffffffffffffffffffffffffffffffff161415151562000321576040517f08c379a00000000000000000000000000000000000000000000000000000000081526004018080602001828103825260228152602001807f526f6c65733a206163636f756e7420697320746865207a65726f20616464726581526020017f737300000000000000000000000000000000000000000000000000000000000081525060400191505060405180910390fd5b8260000160008373ffffffffffffffffffffffffffffffffffffffff1673ffffffffffffffffffffffffffffffffffffffff16815260200190815260200160002060009054906101000a900460ff16905092915050565b615a3380620003886000396000f3fe60806040526004361061011d576000357c0100000000000000000000000000000000000000000000000000000000900463ffffffff16806306e3e9fb146101225780631d0f8168146101c85780633f4ba83a146104ec57806346fbf68e146105035780634a9b5d051461056c578063509a72e9146107be578063591413c314610a765780635c975abb14610aa15780636ef8d66d14610ad0578063715018a614610ae757806382dc1ec414610afe5780638456cb5914610b4f5780638da5cb5b14610b665780638f32d59b14610bbd57806397faf4dc14610bec578063ab01b46914610e8a578063b2dd5c0714610ee7578063b42ba2a2146111b8578063f2fde38b14611473578063fde327be146114c4578063fe45a81d14611509575b600080fd5b34801561012e57600080fd5b506101716004803603602081101561014557600080fd5b81019080803573ffffffffffffffffffffffffffffffffffffffff169060200190929190505050611534565b6040518080602001828103825283818151815260200191508051906020019060200280838360005b838110156101b4578082015181840152602081019050610199565b505050509050019250505060405180910390f35b3480156101d457600080fd5b506104ea600480360360a08110156101eb57600080fd5b810190808035906020019064010000000081111561020857600080fd5b82018360208201111561021a57600080fd5b8035906020019184600183028401116401000000008311171561023c57600080fd5b91908080601f016020809104026020016040519081016040528093929190818152602001838380828437600081840152601f19601f8201169050808301925050505050505091929192908035906020019064010000000081111561029f57600080fd5b8201836020820111156102b157600080fd5b803590602001918460018302840111640100000000831117156102d357600080fd5b91908080601f016020809104026020016040519081016040528093929190818152602001838380828437600081840152601f19601f8201169050808301925050505050505091929192908035906020019064010000000081111561033657600080fd5b82018360208201111561034857600080fd5b8035906020019184600183028401116401000000008311171561036a57600080fd5b91908080601f016020809104026020016040519081016040528093929190818152602001838380828437600081840152601f19601f820116905080830192505050505050509192919290803590602001906401000000008111156103cd57600080fd5b8201836020820111156103df57600080fd5b8035906020019184600183028401116401000000008311171561040157600080fd5b91908080601f016020809104026020016040519081016040528093929190818152602001838380828437600081840152601f19601f8201169050808301925050505050505091929192908035906020019064010000000081111561046457600080fd5b82018360208201111561047657600080fd5b8035906020019184600183028401116401000000008311171561049857600080fd5b91908080601f016020809104026020016040519081016040528093929190818152602001838380828437600081840152601f19601f8201169050808301925050505050505091929192905050506115cb565b005b3480156104f857600080fd5b50610501611d3f565b005b34801561050f57600080fd5b506105526004803603602081101561052657600080fd5b81019080803573ffffffffffffffffffffffffffffffffffffffff169060200190929190505050611ee6565b604051808215151515815260200191505060405180910390f35b34801561057857600080fd5b506105a56004803603602081101561058f57600080fd5b8101908080359060200190929190505050611f03565b604051808060200180602001806020018b81526020018a815260200189151515158152602001888152602001878152602001806020018673ffffffffffffffffffffffffffffffffffffffff1673ffffffffffffffffffffffffffffffffffffffff16815260200185810385528f818151815260200191508051906020019080838360005b8381101561064557808201518184015260208101905061062a565b50505050905090810190601f1680156106725780820380516001836020036101000a031916815260200191505b5085810384528e818151815260200191508051906020019080838360005b838110156106ab578082015181840152602081019050610690565b50505050905090810190601f1680156106d85780820380516001836020036101000a031916815260200191505b5085810383528d818151815260200191508051906020019080838360005b838110156107115780820151818401526020810190506106f6565b50505050905090810190601f16801561073e5780820380516001836020036101000a031916815260200191505b50858103825287818151815260200191508051906020019080838360005b8381101561077757808201518184015260208101905061075c565b50505050905090810190601f1680156107a45780820380516001836020036101000a031916815260200191505b509e50505050505050505050505050505060405180910390f35b3480156107ca57600080fd5b50610a7460048036036101008110156107e257600080fd5b81019080803590602001906401000000008111156107ff57600080fd5b82018360208201111561081157600080fd5b8035906020019184600183028401116401000000008311171561083357600080fd5b91908080601f016020809104026020016040519081016040528093929190818152602001838380828437600081840152601f19601f8201169050808301925050505050505091929192908035906020019064010000000081111561089657600080fd5b8201836020820111156108a857600080fd5b803590602001918460018302840111640100000000831117156108ca57600080fd5b91908080601f016020809104026020016040519081016040528093929190818152602001838380828437600081840152601f19601f8201169050808301925050505050505091929192908035906020019064010000000081111561092d57600080fd5b82018360208201111561093f57600080fd5b8035906020019184600183028401116401000000008311171561096157600080fd5b91908080601f016020809104026020016040519081016040528093929190818152602001838380828437600081840152601f19601f820116905080830192505050505050509192919290803590602001909291908035151590602001909291908035906020019092919080359060200190929190803590602001906401000000008111156109ee57600080fd5b820183602082011115610a0057600080fd5b80359060200191846001830284011164010000000083111715610a2257600080fd5b91908080601f016020809104026020016040519081016040528093929190818152602001838380828437600081840152601f19601f820116905080830192505050505050509192919290505050612381565b005b348015610a8257600080fd5b50610a8b612c92565b6040518082815260200191505060405180910390f35b348015610aad57600080fd5b50610ab6612c9f565b604051808215151515815260200191505060405180910390f35b348015610adc57600080fd5b50610ae5612cb6565b005b348015610af357600080fd5b50610afc612cc1565b005b348015610b0a57600080fd5b50610b4d60048036036020811015610b2157600080fd5b81019080803573ffffffffffffffffffffffffffffffffffffffff169060200190929190505050612dfc565b005b348015610b5b57600080fd5b50610b64612eab565b005b348015610b7257600080fd5b50610b7b613053565b604051808273ffffffffffffffffffffffffffffffffffffffff1673ffffffffffffffffffffffffffffffffffffffff16815260200191505060405180910390f35b348015610bc957600080fd5b50610bd261307c565b604051808215151515815260200191505060405180910390f35b348015610bf857600080fd5b50610c3b60048036036020811015610c0f57600080fd5b81019080803573ffffffffffffffffffffffffffffffffffffffff1690602001909291905050506130d3565b6040518080602001806020018060200180602001806020018a1515151581526020018915151515815260200188815260200187815260200186810386528f818151815260200191508051906020019080838360005b83811015610cab578082015181840152602081019050610c90565b50505050905090810190601f168015610cd85780820380516001836020036101000a031916815260200191505b5086810385528e818151815260200191508051906020019080838360005b83811015610d11578082015181840152602081019050610cf6565b50505050905090810190601f168015610d3e5780820380516001836020036101000a031916815260200191505b5086810384528d818151815260200191508051906020019080838360005b83811015610d77578082015181840152602081019050610d5c565b50505050905090810190601f168015610da45780820380516001836020036101000a031916815260200191505b5086810383528c818151815260200191508051906020019080838360005b83811015610ddd578082015181840152602081019050610dc2565b50505050905090810190601f168015610e0a5780820380516001836020036101000a031916815260200191505b5086810382528b818151815260200191508051906020019080838360005b83811015610e43578082015181840152602081019050610e28565b50505050905090810190601f168015610e705780820380516001836020036101000a031916815260200191505b509e50505050505050505050505050505060405180910390f35b348015610e9657600080fd5b50610ee560048036036040811015610ead57600080fd5b81019080803573ffffffffffffffffffffffffffffffffffffffff16906020019092919080351515906020019092919050505061355f565b005b348015610ef357600080fd5b50610f3660048036036020811015610f0a57600080fd5b81019080803573ffffffffffffffffffffffffffffffffffffffff169060200190929190505050613c62565b604051808b73ffffffffffffffffffffffffffffffffffffffff1673ffffffffffffffffffffffffffffffffffffffff16815260200180602001806020018060200180602001806020018a8152602001891515151581526020018815151515815260200187815260200186810386528f818151815260200191508051906020019080838360005b83811015610fd8578082015181840152602081019050610fbd565b50505050905090810190601f1680156110055780820380516001836020036101000a031916815260200191505b5086810385528e818151815260200191508051906020019080838360005b8381101561103e578082015181840152602081019050611023565b50505050905090810190601f16801561106b5780820380516001836020036101000a031916815260200191505b5086810384528d818151815260200191508051906020019080838360005b838110156110a4578082015181840152602081019050611089565b50505050905090810190601f1680156110d15780820380516001836020036101000a031916815260200191505b5086810383528c818151815260200191508051906020019080838360005b8381101561110a5780820151818401526020810190506110ef565b50505050905090810190601f1680156111375780820380516001836020036101000a031916815260200191505b5086810382528b818151815260200191508051906020019080838360005b83811015611170578082015181840152602081019050611155565b50505050905090810190601f16801561119d5780820380516001836020036101000a031916815260200191505b509f5050505050505050505050505050505060405180910390f35b3480156111c457600080fd5b506111f1600480360360208110156111db57600080fd5b8101908080359060200190929190505050613fe8565b604051808b73ffffffffffffffffffffffffffffffffffffffff1673ffffffffffffffffffffffffffffffffffffffff16815260200180602001806020018060200180602001806020018a8152602001891515151581526020018815151515815260200187815260200186810386528f818151815260200191508051906020019080838360005b83811015611293578082015181840152602081019050611278565b50505050905090810190601f1680156112c05780820380516001836020036101000a031916815260200191505b5086810385528e818151815260200191508051906020019080838360005b838110156112f95780820151818401526020810190506112de565b50505050905090810190601f1680156113265780820380516001836020036101000a031916815260200191505b5086810384528d818151815260200191508051906020019080838360005b8381101561135f578082015181840152602081019050611344565b50505050905090810190601f16801561138c5780820380516001836020036101000a031916815260200191505b5086810383528c818151815260200191508051906020019080838360005b838110156113c55780820151818401526020810190506113aa565b50505050905090810190601f1680156113f25780820380516001836020036101000a031916815260200191505b5086810382528b818151815260200191508051906020019080838360005b8381101561142b578082015181840152602081019050611410565b50505050905090810190601f1680156114585780820380516001836020036101000a031916815260200191505b509f5050505050505050505050505050505060405180910390f35b34801561147f57600080fd5b506114c26004803603602081101561149657600080fd5b81019080803573ffffffffffffffffffffffffffffffffffffffff16906020019092919050505061437d565b005b3480156114d057600080fd5b50611507600480360360408110156114e757600080fd5b810190808035906020019092919080359060200190929190505050614405565b005b34801561151557600080fd5b5061151e6151a0565b6040518082815260200191505060405180910390f35b6060600660008373ffffffffffffffffffffffffffffffffffffffff1673ffffffffffffffffffffffffffffffffffffffff1681526020019081526020016000208054806020026020016040519081016040528092919081815260200182805480156115bf57602002820191906000526020600020905b8154815260200190600101908083116115ab575b50505050509050919050565b600260003373ffffffffffffffffffffffffffffffffffffffff1673ffffffffffffffffffffffffffffffffffffffff16815260200190815260200160002060070160019054906101000a900460ff161580156116755750600260003373ffffffffffffffffffffffffffffffffffffffff1673ffffffffffffffffffffffffffffffffffffffff16815260200190815260200160002060070160009054906101000a900460ff16155b151561170f576040517f08c379a000000000000000000000000000000000000000000000000000000000815260040180806020018281038252602f8152602001807f596f75206172652052656769737465726564206f7220686176652070656e646981526020017f6e6720726567697374726174696f6e000000000000000000000000000000000081525060400191505060405180910390fd5b611717615801565b610140604051908101604052803373ffffffffffffffffffffffffffffffffffffffff1681526020018781526020018681526020018581526020018481526020018381526020014281526020016001151581526020016000151581526020016000815250905033600260003373ffffffffffffffffffffffffffffffffffffffff1673ffffffffffffffffffffffffffffffffffffffff16815260200190815260200160002060000160006101000a81548173ffffffffffffffffffffffffffffffffffffffff021916908373ffffffffffffffffffffffffffffffffffffffff16021790555085600260003373ffffffffffffffffffffffffffffffffffffffff1673ffffffffffffffffffffffffffffffffffffffff168152602001908152602001600020600101908051906020019061185492919061586f565b5084600260003373ffffffffffffffffffffffffffffffffffffffff1673ffffffffffffffffffffffffffffffffffffffff16815260200190815260200160002060020190805190602001906118ab92919061586f565b5083600260003373ffffffffffffffffffffffffffffffffffffffff1673ffffffffffffffffffffffffffffffffffffffff168152602001908152602001600020600301908051906020019061190292919061586f565b5082600260003373ffffffffffffffffffffffffffffffffffffffff1673ffffffffffffffffffffffffffffffffffffffff168152602001908152602001600020600401908051906020019061195992919061586f565b5081600260003373ffffffffffffffffffffffffffffffffffffffff1673ffffffffffffffffffffffffffffffffffffffff16815260200190815260200160002060050190805190602001906119b092919061586f565b5042600260003373ffffffffffffffffffffffffffffffffffffffff1673ffffffffffffffffffffffffffffffffffffffff168152602001908152602001600020600601819055506001600260003373ffffffffffffffffffffffffffffffffffffffff1673ffffffffffffffffffffffffffffffffffffffff16815260200190815260200160002060070160006101000a81548160ff0219169083151502179055506000600260003373ffffffffffffffffffffffffffffffffffffffff1673ffffffffffffffffffffffffffffffffffffffff16815260200190815260200160002060070160016101000a81548160ff0219169083151502179055503373ffffffffffffffffffffffffffffffffffffffff167f0402ff60c4b5114778c6d2060192c413b82fe5c47a112944a93c83b7edb26a3b87878787874260016000604051808060200180602001806020018060200180602001898152602001881515151581526020018715151515815260200186810386528e818151815260200191508051906020019080838360005b83811015611b5a578082015181840152602081019050611b3f565b50505050905090810190601f168015611b875780820380516001836020036101000a031916815260200191505b5086810385528d818151815260200191508051906020019080838360005b83811015611bc0578082015181840152602081019050611ba5565b50505050905090810190601f168015611bed5780820380516001836020036101000a031916815260200191505b5086810384528c818151815260200191508051906020019080838360005b83811015611c26578082015181840152602081019050611c0b565b50505050905090810190601f168015611c535780820380516001836020036101000a031916815260200191505b5086810383528b818151815260200191508051906020019080838360005b83811015611c8c578082015181840152602081019050611c71565b50505050905090810190601f168015611cb95780820380516001836020036101000a031916815260200191505b5086810382528a818151815260200191508051906020019080838360005b83811015611cf2578082015181840152602081019050611cd7565b50505050905090810190601f168015611d1f5780820380516001836020036101000a031916815260200191505b509d505050505050505050505050505060405180910390a2505050505050565b611d4833611ee6565b1515611de2576040517f08c379a00000000000000000000000000000000000000000000000000000000081526004018080602001828103825260308152602001807f506175736572526f6c653a2063616c6c657220646f6573206e6f74206861766581526020017f207468652050617573657220726f6c650000000000000000000000000000000081525060400191505060405180910390fd5b600460009054906101000a900460ff161515611e66576040517f08c379a00000000000000000000000000000000000000000000000000000000081526004018080602001828103825260148152602001807f5061757361626c653a206e6f742070617573656400000000000000000000000081525060200191505060405180910390fd5b6000600460006101000a81548160ff0219169083151502179055507f5db9ee0a495bf2e6ff9c91a7834c1ba4fdd244a5e8aa4e537bd38aeae4b073aa33604051808273ffffffffffffffffffffffffffffffffffffffff1673ffffffffffffffffffffffffffffffffffffffff16815260200191505060405180910390a1565b6000611efc8260036151ad90919063ffffffff16565b9050919050565b60608060606000806000806000606060006005805490508b101515611f2757600080fd5b611f2f6158ef565b60058c815481101515611f3e57fe5b90600052602060002090600b020161016060405190810160405290816000820160009054906101000a900473ffffffffffffffffffffffffffffffffffffffff1673ffffffffffffffffffffffffffffffffffffffff1673ffffffffffffffffffffffffffffffffffffffff168152602001600182018054600181600116156101000203166002900480601f0160208091040260200160405190810160405280929190818152602001828054600181600116156101000203166002900480156120485780601f1061201d57610100808354040283529160200191612048565b820191906000526020600020905b81548152906001019060200180831161202b57829003601f168201915b50505050508152602001600282018054600181600116156101000203166002900480601f0160208091040260200160405190810160405280929190818152602001828054600181600116156101000203166002900480156120ea5780601f106120bf576101008083540402835291602001916120ea565b820191906000526020600020905b8154815290600101906020018083116120cd57829003601f168201915b50505050508152602001600382018054600181600116156101000203166002900480601f01602080910402602001604051908101604052809291908181526020018280546001816001161561010002031660029004801561218c5780601f106121615761010080835404028352916020019161218c565b820191906000526020600020905b81548152906001019060200180831161216f57829003601f168201915b50505050508152602001600482018054600181600116156101000203166002900480601f01602080910402602001604051908101604052809291908181526020018280546001816001161561010002031660029004801561222e5780601f106122035761010080835404028352916020019161222e565b820191906000526020600020905b81548152906001019060200180831161221157829003601f168201915b5050505050815260200160058201548152602001600682015481526020016007820160009054906101000a900460ff161515151581526020016008820154815260200160098201548152602001600a82018054600181600116156101000203166002900480601f0160208091040260200160405190810160405280929190818152602001828054600181600116156101000203166002900480156123135780601f106122e857610100808354040283529160200191612313565b820191906000526020600020905b8154815290600101906020018083116122f657829003601f168201915b50505050508152505090508060400151816060015182608001518360a001518460c001518560e0015186610100015187610120015188610140015189600001518999508898508797508191509a509a509a509a509a509a509a509a509a509a50509193959799509193959799565b600460009054906101000a900460ff16151515612406576040517f08c379a00000000000000000000000000000000000000000000000000000000081526004018080602001828103825260108152602001807f5061757361626c653a207061757365640000000000000000000000000000000081525060200191505060405180910390fd5b60011515600260003373ffffffffffffffffffffffffffffffffffffffff1673ffffffffffffffffffffffffffffffffffffffff16815260200190815260200160002060070160019054906101000a900460ff1615151480156124bc575060001515600260003373ffffffffffffffffffffffffffffffffffffffff1673ffffffffffffffffffffffffffffffffffffffff16815260200190815260200160002060070160009054906101000a900460ff161515145b1515612530576040517f08c379a00000000000000000000000000000000000000000000000000000000081526004018080602001828103825260168152602001807f596f7520617265204e6f7420526567697374657265640000000000000000000081525060200191505060405180910390fd5b814210151561253e57600080fd5b6014600260003373ffffffffffffffffffffffffffffffffffffffff1673ffffffffffffffffffffffffffffffffffffffff1681526020019081526020016000206008015411151561258f57600080fd5b60008511801561259f5750848311155b15156125aa57600080fd5b6125b26158ef565b610160604051908101604052803373ffffffffffffffffffffffffffffffffffffffff168152602001600260003373ffffffffffffffffffffffffffffffffffffffff1673ffffffffffffffffffffffffffffffffffffffff1681526020019081526020016000206001018054600181600116156101000203166002900480601f0160208091040260200160405190810160405280929190818152602001828054600181600116156101000203166002900480156126b15780601f10612686576101008083540402835291602001916126b1565b820191906000526020600020905b81548152906001019060200180831161269457829003601f168201915b505050505081526020018a81526020018981526020018881526020018781526020016000815260200186151581526020018581526020018481526020018381525090506005819080600181540180825580915050906001820390600052602060002090600b02016000909192909190915060008201518160000160006101000a81548173ffffffffffffffffffffffffffffffffffffffff021916908373ffffffffffffffffffffffffffffffffffffffff1602179055506020820151816001019080519060200190612785929190615962565b5060408201518160020190805190602001906127a2929190615962565b5060608201518160030190805190602001906127bf929190615962565b5060808201518160040190805190602001906127dc929190615962565b5060a0820151816005015560c0820151816006015560e08201518160070160006101000a81548160ff0219169083151502179055506101008201518160080155610120820151816009015561014082015181600a019080519060200190612844929190615962565b50505050600061286360016005805490506152d090919063ffffffff16565b90506000600660003373ffffffffffffffffffffffffffffffffffffffff1673ffffffffffffffffffffffffffffffffffffffff1681526020019081526020016000208290806001815401808255809150509060018203906000526020600020016000909192909190915055506019600260003373ffffffffffffffffffffffffffffffffffffffff1673ffffffffffffffffffffffffffffffffffffffff16815260200190815260200160002060080154101515612925576005905061296e565b6014600260003373ffffffffffffffffffffffffffffffffffffffff1673ffffffffffffffffffffffffffffffffffffffff168152602001908152602001600020600801540390505b6129c381600260003373ffffffffffffffffffffffffffffffffffffffff1673ffffffffffffffffffffffffffffffffffffffff168152602001908152602001600020600801546152d090919063ffffffff16565b600260003373ffffffffffffffffffffffffffffffffffffffff1673ffffffffffffffffffffffffffffffffffffffff168152602001908152602001600020600801819055503373ffffffffffffffffffffffffffffffffffffffff167f56af39cd797e1e26bc0c6fe90ddab891bd3b0113b5101670ca7e2249a34790fc83600260003373ffffffffffffffffffffffffffffffffffffffff1673ffffffffffffffffffffffffffffffffffffffff1681526020019081526020016000206001018e8d8d8d8c8c60405180898152602001806020018060200180602001888152602001871515151581526020018681526020018060200185810385528c818154600181600116156101000203166002900481526020019150805460018160011615610100020316600290048015612b3b5780601f10612b1057610100808354040283529160200191612b3b565b820191906000526020600020905b815481529060010190602001808311612b1e57829003601f168201915b505085810384528b818151815260200191508051906020019080838360005b83811015612b75578082015181840152602081019050612b5a565b50505050905090810190601f168015612ba25780820380516001836020036101000a031916815260200191505b5085810383528a818151815260200191508051906020019080838360005b83811015612bdb578082015181840152602081019050612bc0565b50505050905090810190601f168015612c085780820380516001836020036101000a031916815260200191505b50858103825286818151815260200191508051906020019080838360005b83811015612c41578082015181840152602081019050612c26565b50505050905090810190601f168015612c6e5780820380516001836020036101000a031916815260200191505b509c5050505050505050505050505060405180910390a25050505050505050505050565b6000600580549050905090565b6000600460009054906101000a900460ff16905090565b612cbf3361535b565b565b612cc961307c565b1515612d3d576040517f08c379a00000000000000000000000000000000000000000000000000000000081526004018080602001828103825260208152602001807f4f776e61626c653a2063616c6c6572206973206e6f7420746865206f776e657281525060200191505060405180910390fd5b600073ffffffffffffffffffffffffffffffffffffffff166000809054906101000a900473ffffffffffffffffffffffffffffffffffffffff1673ffffffffffffffffffffffffffffffffffffffff167f8be0079c531659141344cd1fd0a4f28419497f9722a3daafe3b4186f6b6457e060405160405180910390a360008060006101000a81548173ffffffffffffffffffffffffffffffffffffffff021916908373ffffffffffffffffffffffffffffffffffffffff160217905550565b612e0533611ee6565b1515612e9f576040517f08c379a00000000000000000000000000000000000000000000000000000000081526004018080602001828103825260308152602001807f506175736572526f6c653a2063616c6c657220646f6573206e6f74206861766581526020017f207468652050617573657220726f6c650000000000000000000000000000000081525060400191505060405180910390fd5b612ea8816153b5565b50565b612eb433611ee6565b1515612f4e576040517f08c379a00000000000000000000000000000000000000000000000000000000081526004018080602001828103825260308152602001807f506175736572526f6c653a2063616c6c657220646f6573206e6f74206861766581526020017f207468652050617573657220726f6c650000000000000000000000000000000081525060400191505060405180910390fd5b600460009054906101000a900460ff16151515612fd3576040517f08c379a00000000000000000000000000000000000000000000000000000000081526004018080602001828103825260108152602001807f5061757361626c653a207061757365640000000000000000000000000000000081525060200191505060405180910390fd5b6001600460006101000a81548160ff0219169083151502179055507f62e78cea01bee320cd4e420270b5ea74000d11b0c9f74754ebdbfc544b05a25833604051808273ffffffffffffffffffffffffffffffffffffffff1673ffffffffffffffffffffffffffffffffffffffff16815260200191505060405180910390a1565b60008060009054906101000a900473ffffffffffffffffffffffffffffffffffffffff16905090565b60008060009054906101000a900473ffffffffffffffffffffffffffffffffffffffff1673ffffffffffffffffffffffffffffffffffffffff163373ffffffffffffffffffffffffffffffffffffffff1614905090565b60608060608060606000806000806130e9615801565b600260008c73ffffffffffffffffffffffffffffffffffffffff1673ffffffffffffffffffffffffffffffffffffffff16815260200190815260200160002061014060405190810160405290816000820160009054906101000a900473ffffffffffffffffffffffffffffffffffffffff1673ffffffffffffffffffffffffffffffffffffffff1673ffffffffffffffffffffffffffffffffffffffff168152602001600182018054600181600116156101000203166002900480601f0160208091040260200160405190810160405280929190818152602001828054600181600116156101000203166002900480156132245780601f106131f957610100808354040283529160200191613224565b820191906000526020600020905b81548152906001019060200180831161320757829003601f168201915b50505050508152602001600282018054600181600116156101000203166002900480601f0160208091040260200160405190810160405280929190818152602001828054600181600116156101000203166002900480156132c65780601f1061329b576101008083540402835291602001916132c6565b820191906000526020600020905b8154815290600101906020018083116132a957829003601f168201915b50505050508152602001600382018054600181600116156101000203166002900480601f0160208091040260200160405190810160405280929190818152602001828054600181600116156101000203166002900480156133685780601f1061333d57610100808354040283529160200191613368565b820191906000526020600020905b81548152906001019060200180831161334b57829003601f168201915b50505050508152602001600482018054600181600116156101000203166002900480601f01602080910402602001604051908101604052809291908181526020018280546001816001161561010002031660029004801561340a5780601f106133df5761010080835404028352916020019161340a565b820191906000526020600020905b8154815290600101906020018083116133ed57829003601f168201915b50505050508152602001600582018054600181600116156101000203166002900480601f0160208091040260200160405190810160405280929190818152602001828054600181600116156101000203166002900480156134ac5780601f10613481576101008083540402835291602001916134ac565b820191906000526020600020905b81548152906001019060200180831161348f57829003601f168201915b50505050508152602001600682015481526020016007820160009054906101000a900460ff161515151581526020016007820160019054906101000a900460ff16151515158152602001600882015481525050905080602001518160400151826060015183608001518460a001518560e001518661010001518760c00151886101200151889850879750869650859550849450995099509950995099509950995099509950509193959799909294969850565b61356761307c565b15156135db576040517f08c379a00000000000000000000000000000000000000000000000000000000081526004018080602001828103825260208152602001807f4f776e61626c653a2063616c6c6572206973206e6f7420746865206f776e657281525060200191505060405180910390fd5b80156137ef57600260008373ffffffffffffffffffffffffffffffffffffffff1673ffffffffffffffffffffffffffffffffffffffff16815260200190815260200160002060070160009054906101000a900460ff1615156136a5576040517f08c379a00000000000000000000000000000000000000000000000000000000081526004018080602001828103825260128152602001807f537461747573206e6f742050656e64696e67000000000000000000000000000081525060200191505060405180910390fd5b42600260008473ffffffffffffffffffffffffffffffffffffffff1673ffffffffffffffffffffffffffffffffffffffff168152602001908152602001600020600601819055506000600260008473ffffffffffffffffffffffffffffffffffffffff1673ffffffffffffffffffffffffffffffffffffffff16815260200190815260200160002060070160006101000a81548160ff0219169083151502179055506001600260008473ffffffffffffffffffffffffffffffffffffffff1673ffffffffffffffffffffffffffffffffffffffff16815260200190815260200160002060070160016101000a81548160ff0219169083151502179055506023600260008473ffffffffffffffffffffffffffffffffffffffff1673ffffffffffffffffffffffffffffffffffffffff168152602001908152602001600020600801819055506138ed565b42600260008473ffffffffffffffffffffffffffffffffffffffff1673ffffffffffffffffffffffffffffffffffffffff168152602001908152602001600020600601819055506000600260008473ffffffffffffffffffffffffffffffffffffffff1673ffffffffffffffffffffffffffffffffffffffff16815260200190815260200160002060070160006101000a81548160ff0219169083151502179055506000600260008473ffffffffffffffffffffffffffffffffffffffff1673ffffffffffffffffffffffffffffffffffffffff16815260200190815260200160002060070160016101000a81548160ff0219169083151502179055505b600260008373ffffffffffffffffffffffffffffffffffffffff1673ffffffffffffffffffffffffffffffffffffffff16815260200190815260200160002060070160019054906101000a900460ff161515600260008473ffffffffffffffffffffffffffffffffffffffff1673ffffffffffffffffffffffffffffffffffffffff16815260200190815260200160002060000160009054906101000a900473ffffffffffffffffffffffffffffffffffffffff1673ffffffffffffffffffffffffffffffffffffffff167fba36970dcbe5845620db5e75839cf6e99d4c1ee1341d0f4499e16fdf1fa2641d33600260008773ffffffffffffffffffffffffffffffffffffffff1673ffffffffffffffffffffffffffffffffffffffff168152602001908152602001600020600101600260008873ffffffffffffffffffffffffffffffffffffffff1673ffffffffffffffffffffffffffffffffffffffff16815260200190815260200160002060020142600260008a73ffffffffffffffffffffffffffffffffffffffff1673ffffffffffffffffffffffffffffffffffffffff16815260200190815260200160002060070160009054906101000a900460ff16600260008b73ffffffffffffffffffffffffffffffffffffffff1673ffffffffffffffffffffffffffffffffffffffff16815260200190815260200160002060080154604051808773ffffffffffffffffffffffffffffffffffffffff1673ffffffffffffffffffffffffffffffffffffffff168152602001806020018060200186815260200185151515158152602001848152602001838103835288818154600181600116156101000203166002900481526020019150805460018160011615610100020316600290048015613bc75780601f10613b9c57610100808354040283529160200191613bc7565b820191906000526020600020905b815481529060010190602001808311613baa57829003601f168201915b5050838103825287818154600181600116156101000203166002900481526020019150805460018160011615610100020316600290048015613c4a5780601f10613c1f57610100808354040283529160200191613c4a565b820191906000526020600020905b815481529060010190602001808311613c2d57829003601f168201915b50509850505050505050505060405180910390a35050565b60026020528060005260406000206000915090508060000160009054906101000a900473ffffffffffffffffffffffffffffffffffffffff1690806001018054600181600116156101000203166002900480601f016020809104026020016040519081016040528092919081815260200182805460018160011615610100020316600290048015613d345780601f10613d0957610100808354040283529160200191613d34565b820191906000526020600020905b815481529060010190602001808311613d1757829003601f168201915b505050505090806002018054600181600116156101000203166002900480601f016020809104026020016040519081016040528092919081815260200182805460018160011615610100020316600290048015613dd25780601f10613da757610100808354040283529160200191613dd2565b820191906000526020600020905b815481529060010190602001808311613db557829003601f168201915b505050505090806003018054600181600116156101000203166002900480601f016020809104026020016040519081016040528092919081815260200182805460018160011615610100020316600290048015613e705780601f10613e4557610100808354040283529160200191613e70565b820191906000526020600020905b815481529060010190602001808311613e5357829003601f168201915b505050505090806004018054600181600116156101000203166002900480601f016020809104026020016040519081016040528092919081815260200182805460018160011615610100020316600290048015613f0e5780601f10613ee357610100808354040283529160200191613f0e565b820191906000526020600020905b815481529060010190602001808311613ef157829003601f168201915b505050505090806005018054600181600116156101000203166002900480601f016020809104026020016040519081016040528092919081815260200182805460018160011615610100020316600290048015613fac5780601f10613f8157610100808354040283529160200191613fac565b820191906000526020600020905b815481529060010190602001808311613f8f57829003601f168201915b5050505050908060060154908060070160009054906101000a900460ff16908060070160019054906101000a900460ff1690806008015490508a565b600181815481101515613ff757fe5b90600052602060002090600902016000915090508060000160009054906101000a900473ffffffffffffffffffffffffffffffffffffffff1690806001018054600181600116156101000203166002900480601f0160208091040260200160405190810160405280929190818152602001828054600181600116156101000203166002900480156140c95780601f1061409e576101008083540402835291602001916140c9565b820191906000526020600020905b8154815290600101906020018083116140ac57829003601f168201915b505050505090806002018054600181600116156101000203166002900480601f0160208091040260200160405190810160405280929190818152602001828054600181600116156101000203166002900480156141675780601f1061413c57610100808354040283529160200191614167565b820191906000526020600020905b81548152906001019060200180831161414a57829003601f168201915b505050505090806003018054600181600116156101000203166002900480601f0160208091040260200160405190810160405280929190818152602001828054600181600116156101000203166002900480156142055780601f106141da57610100808354040283529160200191614205565b820191906000526020600020905b8154815290600101906020018083116141e857829003601f168201915b505050505090806004018054600181600116156101000203166002900480601f0160208091040260200160405190810160405280929190818152602001828054600181600116156101000203166002900480156142a35780601f10614278576101008083540402835291602001916142a3565b820191906000526020600020905b81548152906001019060200180831161428657829003601f168201915b505050505090806005018054600181600116156101000203166002900480601f0160208091040260200160405190810160405280929190818152602001828054600181600116156101000203166002900480156143415780601f1061431657610100808354040283529160200191614341565b820191906000526020600020905b81548152906001019060200180831161432457829003601f168201915b5050505050908060060154908060070160009054906101000a900460ff16908060070160019054906101000a900460ff1690806008015490508a565b61438561307c565b15156143f9576040517f08c379a00000000000000000000000000000000000000000000000000000000081526004018080602001828103825260208152602001807f4f776e61626c653a2063616c6c6572206973206e6f7420746865206f776e657281525060200191505060405180910390fd5b6144028161540f565b50565b600460009054906101000a900460ff1615151561448a576040517f08c379a00000000000000000000000000000000000000000000000000000000081526004018080602001828103825260108152602001807f5061757361626c653a207061757365640000000000000000000000000000000081525060200191505060405180910390fd5b60011515600260003373ffffffffffffffffffffffffffffffffffffffff1673ffffffffffffffffffffffffffffffffffffffff16815260200190815260200160002060070160019054906101000a900460ff161515148015614540575060001515600260003373ffffffffffffffffffffffffffffffffffffffff1673ffffffffffffffffffffffffffffffffffffffff16815260200190815260200160002060070160009054906101000a900460ff161515145b15156145b4576040517f08c379a00000000000000000000000000000000000000000000000000000000081526004018080602001828103825260168152602001807f596f7520617265204e6f7420526567697374657265640000000000000000000081525060200191505060405180910390fd5b600580549050821015156145c757600080fd5b6145cf6158ef565b6005838154811015156145de57fe5b90600052602060002090600b020161016060405190810160405290816000820160009054906101000a900473ffffffffffffffffffffffffffffffffffffffff1673ffffffffffffffffffffffffffffffffffffffff1673ffffffffffffffffffffffffffffffffffffffff168152602001600182018054600181600116156101000203166002900480601f0160208091040260200160405190810160405280929190818152602001828054600181600116156101000203166002900480156146e85780601f106146bd576101008083540402835291602001916146e8565b820191906000526020600020905b8154815290600101906020018083116146cb57829003601f168201915b50505050508152602001600282018054600181600116156101000203166002900480601f01602080910402602001604051908101604052809291908181526020018280546001816001161561010002031660029004801561478a5780601f1061475f5761010080835404028352916020019161478a565b820191906000526020600020905b81548152906001019060200180831161476d57829003601f168201915b50505050508152602001600382018054600181600116156101000203166002900480601f01602080910402602001604051908101604052809291908181526020018280546001816001161561010002031660029004801561482c5780601f106148015761010080835404028352916020019161482c565b820191906000526020600020905b81548152906001019060200180831161480f57829003601f168201915b50505050508152602001600482018054600181600116156101000203166002900480601f0160208091040260200160405190810160405280929190818152602001828054600181600116156101000203166002900480156148ce5780601f106148a3576101008083540402835291602001916148ce565b820191906000526020600020905b8154815290600101906020018083116148b157829003601f168201915b5050505050815260200160058201548152602001600682015481526020016007820160009054906101000a900460ff161515151581526020016008820154815260200160098201548152602001600a82018054600181600116156101000203166002900480601f0160208091040260200160405190810160405280929190818152602001828054600181600116156101000203166002900480156149b35780601f10614988576101008083540402835291602001916149b3565b820191906000526020600020905b81548152906001019060200180831161499657829003601f168201915b50505050508152505090506000821115156149cd57600080fd5b6005838154811015156149dc57fe5b90600052602060002090600b0201600501548211158015614a4f5750614a4b600584815481101515614a0a57fe5b90600052602060002090600b020160060154600585815481101515614a2b57fe5b90600052602060002090600b0201600501546152d090919063ffffffff16565b8211155b1515614a5a57600080fd5b600583815481101515614a6957fe5b90600052602060002090600b020160080154600584815481101515614a8a57fe5b90600052602060002090600b020160060154600585815481101515614aab57fe5b90600052602060002090600b02016005015403101515614af557600583815481101515614ad457fe5b90600052602060002090600b0201600801548210151515614af457600080fd5b5b600583815481101515614b0457fe5b90600052602060002090600b020160000160009054906101000a900473ffffffffffffffffffffffffffffffffffffffff1673ffffffffffffffffffffffffffffffffffffffff163373ffffffffffffffffffffffffffffffffffffffff1614151515614b7057600080fd5b42600584815481101515614b8057fe5b90600052602060002090600b020160090154111515614b9e57600080fd5b6000614bd383600586815481101515614bb357fe5b90600052602060002090600b02016006015461559890919063ffffffff16565b600585815481101515614be257fe5b90600052602060002090600b020160060181905550600015156007600086815260200190815260200160002060003373ffffffffffffffffffffffffffffffffffffffff1673ffffffffffffffffffffffffffffffffffffffff16815260200190815260200160002060009054906101000a900460ff1615151415614e04576039600260003373ffffffffffffffffffffffffffffffffffffffff1673ffffffffffffffffffffffffffffffffffffffff16815260200190815260200160002060080154111515614cb65760039050614cff565b600260003373ffffffffffffffffffffffffffffffffffffffff1673ffffffffffffffffffffffffffffffffffffffff16815260200190815260200160002060080154603c0390505b614d5481600260003373ffffffffffffffffffffffffffffffffffffffff1673ffffffffffffffffffffffffffffffffffffffff1681526020019081526020016000206008015461559890919063ffffffff16565b600260003373ffffffffffffffffffffffffffffffffffffffff1673ffffffffffffffffffffffffffffffffffffffff1681526020019081526020016000206008018190555060016007600086815260200190815260200160002060003373ffffffffffffffffffffffffffffffffffffffff1673ffffffffffffffffffffffffffffffffffffffff16815260200190815260200160002060006101000a81548160ff0219169083151502179055505b600584815481101515614e1357fe5b90600052602060002090600b020160000160009054906101000a900473ffffffffffffffffffffffffffffffffffffffff1673ffffffffffffffffffffffffffffffffffffffff16843373ffffffffffffffffffffffffffffffffffffffff167f2f07d9686181cfbdde1b89e2a9bdb55a4bb0eeae84f593facb7e08cde73fdb9b600260003373ffffffffffffffffffffffffffffffffffffffff1673ffffffffffffffffffffffffffffffffffffffff1681526020019081526020016000206001016002600060058b815481101515614ee957fe5b90600052602060002090600b020160000160009054906101000a900473ffffffffffffffffffffffffffffffffffffffff1673ffffffffffffffffffffffffffffffffffffffff1673ffffffffffffffffffffffffffffffffffffffff1681526020019081526020016000206001014260058b815481101515614f6857fe5b90600052602060002090600b02016004018a60058d815481101515614f8957fe5b90600052602060002090600b02016009015460058e815481101515614faa57fe5b90600052602060002090600b020160070160009054906101000a900460ff168b604051808060200180602001898152602001806020018881526020018781526020018615151515815260200185815260200184810384528c81815460018160011615610100020316600290048152602001915080546001816001161561010002031660029004801561507d5780601f106150525761010080835404028352916020019161507d565b820191906000526020600020905b81548152906001019060200180831161506057829003601f168201915b505084810383528b8181546001816001161561010002031660029004815260200191508054600181600116156101000203166002900480156151005780601f106150d557610100808354040283529160200191615100565b820191906000526020600020905b8154815290600101906020018083116150e357829003601f168201915b50508481038252898181546001816001161561010002031660029004815260200191508054600181600116156101000203166002900480156151835780601f1061515857610100808354040283529160200191615183565b820191906000526020600020905b81548152906001019060200180831161516657829003601f168201915b50509b50505050505050505050505060405180910390a450505050565b6000600180549050905090565b60008073ffffffffffffffffffffffffffffffffffffffff168273ffffffffffffffffffffffffffffffffffffffff1614151515615279576040517f08c379a00000000000000000000000000000000000000000000000000000000081526004018080602001828103825260228152602001807f526f6c65733a206163636f756e7420697320746865207a65726f20616464726581526020017f737300000000000000000000000000000000000000000000000000000000000081525060400191505060405180910390fd5b8260000160008373ffffffffffffffffffffffffffffffffffffffff1673ffffffffffffffffffffffffffffffffffffffff16815260200190815260200160002060009054906101000a900460ff16905092915050565b600082821115151561534a576040517f08c379a000000000000000000000000000000000000000000000000000000000815260040180806020018281038252601e8152602001807f536166654d6174683a207375627472616374696f6e206f766572666c6f77000081525060200191505060405180910390fd5b600082840390508091505092915050565b61536f81600361562290919063ffffffff16565b8073ffffffffffffffffffffffffffffffffffffffff167fcd265ebaf09df2871cc7bd4133404a235ba12eff2041bb89d9c714a2621c7c7e60405160405180910390a250565b6153c981600361572490919063ffffffff16565b8073ffffffffffffffffffffffffffffffffffffffff167f6719d08c1888103bea251a4ed56406bd0c3e69723c8a1686e017e7bbe159b6f860405160405180910390a250565b600073ffffffffffffffffffffffffffffffffffffffff168173ffffffffffffffffffffffffffffffffffffffff16141515156154da576040517f08c379a00000000000000000000000000000000000000000000000000000000081526004018080602001828103825260268152602001807f4f776e61626c653a206e6577206f776e657220697320746865207a65726f206181526020017f646472657373000000000000000000000000000000000000000000000000000081525060400191505060405180910390fd5b8073ffffffffffffffffffffffffffffffffffffffff166000809054906101000a900473ffffffffffffffffffffffffffffffffffffffff1673ffffffffffffffffffffffffffffffffffffffff167f8be0079c531659141344cd1fd0a4f28419497f9722a3daafe3b4186f6b6457e060405160405180910390a3806000806101000a81548173ffffffffffffffffffffffffffffffffffffffff021916908373ffffffffffffffffffffffffffffffffffffffff16021790555050565b6000808284019050838110151515615618576040517f08c379a000000000000000000000000000000000000000000000000000000000815260040180806020018281038252601b8152602001807f536166654d6174683a206164646974696f6e206f766572666c6f77000000000081525060200191505060405180910390fd5b8091505092915050565b61562c82826151ad565b15156156c6576040517f08c379a00000000000000000000000000000000000000000000000000000000081526004018080602001828103825260218152602001807f526f6c65733a206163636f756e7420646f6573206e6f74206861766520726f6c81526020017f650000000000000000000000000000000000000000000000000000000000000081525060400191505060405180910390fd5b60008260000160008373ffffffffffffffffffffffffffffffffffffffff1673ffffffffffffffffffffffffffffffffffffffff16815260200190815260200160002060006101000a81548160ff0219169083151502179055505050565b61572e82826151ad565b1515156157a3576040517f08c379a000000000000000000000000000000000000000000000000000000000815260040180806020018281038252601f8152602001807f526f6c65733a206163636f756e7420616c72656164792068617320726f6c650081525060200191505060405180910390fd5b60018260000160008373ffffffffffffffffffffffffffffffffffffffff1673ffffffffffffffffffffffffffffffffffffffff16815260200190815260200160002060006101000a81548160ff0219169083151502179055505050565b61014060405190810160405280600073ffffffffffffffffffffffffffffffffffffffff168152602001606081526020016060815260200160608152602001606081526020016060815260200160008152602001600015158152602001600015158152602001600081525090565b828054600181600116156101000203166002900490600052602060002090601f016020900481019282601f106158b057805160ff19168380011785556158de565b828001600101855582156158de579182015b828111156158dd5782518255916020019190600101906158c2565b5b5090506158eb91906159e2565b5090565b61016060405190810160405280600073ffffffffffffffffffffffffffffffffffffffff1681526020016060815260200160608152602001606081526020016060815260200160008152602001600081526020016000151581526020016000815260200160008152602001606081525090565b828054600181600116156101000203166002900490600052602060002090601f016020900481019282601f106159a357805160ff19168380011785556159d1565b828001600101855582156159d1579182015b828111156159d05782518255916020019190600101906159b5565b5b5090506159de91906159e2565b5090565b615a0491905b80821115615a005760008160009055506001016159e8565b5090565b9056fea165627a7a72305820aabb98540c8b826747525e68e76ab06163170d93cb7713e85394f38f8d24d08d0029",
  "source": "pragma solidity ^0.5.0;\r\n\r\nimport 'openzeppelin-solidity/contracts/lifecycle/Pausable.sol';\r\nimport 'openzeppelin-solidity/contracts/math/SafeMath.sol';\r\nimport './KadenaRegistration.sol';\r\n\r\n// SPDX-License-Identifier: MIT\r\n/**\r\n* @title KadenaNeed\r\n* @dev Is a platform that Hospitals could utilize to connect & form alliance with other hospitals.\r\n* Registered Hopitals in Kadena could call help & post/borrow essential items that they need at the moment or will be needing in the near future.\r\n* Registered Hospital that has extra essential items could also post/give items that they think will be helpful to other hospitals.\r\n* Every registered hospital in Kadena has a rating that corresponds to their actions on the platform.\r\n* Some features/functions will be unavailable to a registered hospital if their rating drops a certain point.\r\n*/\r\n\r\ncontract KadenaNeed is KadenaRegistration, Pausable{\r\n\tusing SafeMath for uint;\r\n\r\n\tstruct NeedHelp {\r\n\t\taddress owner;\r\n\t\tstring entity;\r\n\t\tstring title;\r\n\t\tstring category;\r\n\t\tstring item;\r\n\t\tuint amount;\r\n\t\tuint committed;\r\n\t\tbool borrow;\r\n\t\tuint minimum;\r\n\t\tuint endDate;\r\n\t\tstring ipfs;\r\n\t}\r\n\t\r\n\tNeedHelp[] private needHelp;\r\n\tmapping(address => uint256[]) private neededEvents;\r\n\tmapping(uint => mapping(address => bool)) hasPledged;\r\n\r\n    event NeedAHand(address indexed ownerNeed, uint eventId, string hospital,string title,string item, uint amount, bool borrow, uint endDate, string ipfs);\r\n    event Pledged(address indexed pledgedBy, string sender , string receiver,uint date, uint indexed eventId, string item, uint committed, address indexed pledgeTo,uint endDate,bool borrow, uint addedRating);\r\n\r\n\r\n    /**\r\n\t* @dev Function creates the event to Call For Help.\r\n\t* @param _title string - The title of the event.\r\n\t* @param _category string - The category of the item.\r\n\t* @param _item string - The name of item.\r\n\t* @param _amount uint - The total amount of items needed.\r\n\t* @param _borrow bool - True if the items is expected to be returned in the future.\r\n\t* @param _minimumAmount - minimum amount to pledge.\r\n\t* @param _endDate - End date of the event.\r\n\t* @param _ipfs - The IPFS hash containing additional information about the event.\r\n\r\n\t* @notice Requires that the contract is not paused.\r\n    * @notice Requires that the sender is registered.\r\n\t* @notice Requires that the event time is in the future.\r\n\t* @notice Requires that the sender rating is greater than or equal to 20.\r\n    * @notice Requires that the amount is greater than 0.\r\n\t*/\r\n\t\r\n\tfunction callForHelp(\r\n\t\tstring memory _title,\r\n\t\tstring memory _category,\r\n\t\tstring memory _item,\r\n\t\tuint _amount,\r\n\t\tbool _borrow,\r\n\t\tuint _minimumAmount,\r\n\t\tuint _endDate,\r\n\t\tstring memory _ipfs\r\n\t\r\n\t)\r\n    whenNotPaused()\r\n    Registered()\r\n\t\tpublic\r\n\t{\r\n\t    require(now < _endDate);\r\n\t    require(registered[msg.sender].rating > 20);\r\n\t    require(_amount > 0 && _minimumAmount <= _amount);\r\n   \r\n\tNeedHelp memory _event = NeedHelp({\r\n\t\t\towner: msg.sender,\r\n\t\t\tentity: registered[msg.sender].name,\r\n\t\t\ttitle: _title,\r\n\t\t\tcategory: _category,\r\n\t\t\titem: _item,\r\n\t\t\tamount: _amount,\r\n\t\t\tcommitted:0,\r\n\t\t\tborrow: _borrow,\r\n\t\t\tminimum: _minimumAmount,\r\n\t\t\tendDate: _endDate,\r\n\t\t\tipfs: _ipfs\r\n\t\t\t\r\n\t\t\t\r\n\t\t});\r\n\t\tneedHelp.push(_event);\r\n      \tuint _eventId = needHelp.length.sub(1);\r\n      \tuint _subtractedRating;\r\n\t\tneededEvents[msg.sender].push(_eventId);\r\n\t\t\r\n\t\tif(registered[msg.sender].rating >= 25){\r\n\t\t     _subtractedRating = 5;\r\n\t\t}\r\n\t\t\r\n\t\telse {\r\n\t\t    _subtractedRating = registered[msg.sender].rating - 20;\r\n\t\t}\r\n\t    \r\n\t\tregistered[msg.sender].rating = registered[msg.sender].rating.sub(_subtractedRating);\r\n\t\temit NeedAHand(msg.sender, _eventId,registered[msg.sender].name,_title,_item, _amount, _borrow,_endDate,_ipfs); \r\n\r\n\t}\r\n\t\r\n\r\n    /**\r\n\t* @dev Function to show information about call for help event.\r\n\t* @param _id uint - Event ID.\r\n\t* return title string - The title of the event.\r\n\t* return category string - The category of needed item.\r\n\t* return item string - The name of the item.\r\n\t* return amount uint - The amount of items needed.\r\n\t* return commited uint - The amount of items currently committed.\r\n\t* return borrow bool - True if the item is to be returned in the future.\r\n\t* return minimum uint - Minimum amount to pledge.\r\n\t* return endDate uint - End date of the event.\r\n\t* return ipfs string - The IPFS hash containing additional information about event.\r\n\t* return owner address - The owner of the event.\r\n\r\n\t* @notice Requires that the events exist.\r\n\t*/\r\n\t\r\n\tfunction callForHelpDetails(uint _id)\r\n\t\tpublic\r\n\t\tview\r\n\t    returns(\r\n\t\t    string memory title,\r\n\t\t    string memory category,\r\n\t    \tstring memory item,\r\n\t    \tuint amount,\r\n\t    \tuint committed,\r\n\t    \tbool borrow,\r\n\t    \tuint minumum,\r\n\t    \tuint endDate,\r\n\t    \tstring memory ipfs,\r\n\t    \taddress owner\r\n    \t) {\r\n\t    require(_id < needHelp.length);\r\n\t    NeedHelp memory _event = needHelp[_id];\r\n\t\treturn(\r\n\t\t\t_event.title,\r\n\t\t\t_event.category,\r\n\t\t\t_event.item,\r\n\t\t\t_event.amount,\r\n\t\t\t_event.committed,\r\n\t\t\t_event.borrow,\r\n\t\t\t_event.minimum,\r\n\t\t\t_event.endDate,\r\n\t\t\t_event.ipfs,\r\n\t\t\t_event.owner\r\n\t\t);\r\n\t}\r\n\t\r\n\t/**\r\n\t* @dev Function to give item to the needed asstistance pool.\r\n\t* @param _eventId - The ID of the Call for Help Event.\r\n\t* @param _commit - The amount of the item to commit.\r\n\t\r\n    * @notice Requires that the event exist.\r\n    * @notice Requires that the commit is greater than 0.\r\n    * @notice Requires that the amount of items to give is <= total needed items in the pool.\r\n    * @notice Requires that the amount of items to give is <= current needed items in the pool.\r\n    * @notice Requires that the giver is not the creator of the event.\r\n    * @notice Requires that the events hasn't ended yet.\r\n\t*/\r\n\t\r\n\tfunction pledge(uint _eventId, uint _commit)\r\n\t    whenNotPaused()\r\n\t    Registered()\r\n\t\tpublic\r\n\t\t\r\n\t{\r\n\t    \r\n\t\trequire(_eventId < needHelp.length);\r\n\t\tNeedHelp memory _event = needHelp[_eventId];\r\n\t\t\r\n\t\trequire(_commit > 0);\r\n\t\trequire(_commit <= needHelp[_eventId].amount && _commit <= needHelp[_eventId].amount.sub(needHelp[_eventId].committed));\r\n\t\t\r\n\t\tif((needHelp[_eventId].amount - needHelp[_eventId].committed) >= needHelp[_eventId].minimum){\r\n\t      require(_commit >= needHelp[_eventId].minimum);\r\n\t    }\r\n\t\trequire(msg.sender != needHelp[_eventId].owner);\r\n\t\trequire(needHelp[_eventId].endDate > now);\r\n\t\tuint _addedRating;\r\n\t\t\r\n\t\tneedHelp[_eventId].committed = needHelp[_eventId].committed.add(_commit);\r\n\t\t\r\n\t\tif(hasPledged[_eventId][msg.sender] == false){\r\n\t\tif (registered[msg.sender].rating <= 57){\r\n\t\t     _addedRating = 3;\r\n\t\t}\r\n\t\t\r\n\t\telse{\r\n\t\t    _addedRating = 60 - registered[msg.sender].rating;\r\n\t\t}\r\n\t\t\r\n\t\tregistered[msg.sender].rating = registered[msg.sender].rating.add(_addedRating);\r\n\t\thasPledged[_eventId][msg.sender] = true;\r\n\t\t}\r\n\t\temit Pledged(msg.sender,registered[msg.sender].name, registered[needHelp[_eventId].owner].name,now, _eventId,needHelp[_eventId].item, _commit, needHelp[_eventId].owner,needHelp[_eventId].endDate,needHelp[_eventId].borrow, _addedRating);\r\n\t}\r\n\t\r\n\r\n\t/**\r\n\t* @dev Function to show events of the specified address.\r\n\t* @param _owner address - The address to query the events of.\r\n\t* @return uint[] - Array of events IDs.\r\n\t*/\r\n\tfunction needsOf(address _owner) public view returns(uint[] memory) {\r\n\t\treturn neededEvents[_owner];\r\n\t}\r\n\r\n\r\n\t/**\r\n\t* @dev Function returns number of all events.\r\n\t* @return uint - Number of events.\r\n\t*/\r\n\tfunction getNeededCount() public view returns(uint) {\r\n\t\treturn needHelp.length;\r\n\t}\r\n\t\r\n}",
  "sourcePath": "C:\\Users\\jfpad\\kadena\\contracts\\KadenaNeed.sol",
  "compiler": {
    "name": "solc",
    "version": "0.5.0+commit.1d4f565a.Emscripten.clang"
  },
  "schemaVersion": "3.2.0",
  "updatedAt": "2020-05-28T11:57:06.613Z",
  "networkType": "ethereum",
  "devdoc": {
    "details": "Is a platform that Hospitals could utilize to connect & form alliance with other hospitals.\r Registered Hopitals in Kadena could call help & post/borrow essential items that they need at the moment or will be needing in the near future.\r Registered Hospital that has extra essential items could also post/give items that they think will be helpful to other hospitals.\r Every registered hospital in Kadena has a rating that corresponds to their actions on the platform.\r Some features/functions will be unavailable to a registered hospital if their rating drops a certain point.\r",
    "methods": {
      "callForHelp(string,string,string,uint256,bool,uint256,uint256,string)": {
        "details": "Function creates the event to Call For Help.\r",
        "params": {
          "_amount": "uint - The total amount of items needed.\r",
          "_borrow": "bool - True if the items is expected to be returned in the future.\r",
          "_category": "string - The category of the item.\r",
          "_endDate": "- End date of the event.\r",
          "_ipfs": "- The IPFS hash containing additional information about the event.\r",
          "_item": "string - The name of item.\r",
          "_minimumAmount": "- minimum amount to pledge.\r",
          "_title": "string - The title of the event.\r"
        }
      },
      "callForHelpDetails(uint256)": {
        "details": "Function to show information about call for help event.\r",
        "params": {
          "_id": "uint - Event ID.\r return title string - The title of the event.\r return category string - The category of needed item.\r return item string - The name of the item.\r return amount uint - The amount of items needed.\r return commited uint - The amount of items currently committed.\r return borrow bool - True if the item is to be returned in the future.\r return minimum uint - Minimum amount to pledge.\r return endDate uint - End date of the event.\r return ipfs string - The IPFS hash containing additional information about event.\r return owner address - The owner of the event.\r"
        }
      },
      "getHospitalStatus(address)": {
        "details": "Function to show information about the hospital.\r",
        "params": {
          "_owner": "address - The Ethereum Address of the hospital.\r return _hospitalName string - The name of the hospital.\r return _country string - The country where the hospital is located.\r return _city string - The city where the hospital is located.\r return _ipfs string - The IPFS hash containing additional information about event.\r return _pending bool - If true account has a pending registration.\r return _registered bool - If true account is registered.\r return _time uint - time of registration.\r return _rating uint - The rating of the account.\r"
        }
      },
      "getNeededCount()": {
        "details": "Function returns number of all events.\r",
        "return": "uint - Number of events.\r"
      },
      "isOwner()": {
        "details": "Returns true if the caller is the current owner."
      },
      "needsOf(address)": {
        "details": "Function to show events of the specified address.\r",
        "params": {
          "_owner": "address - The address to query the events of.\r"
        },
        "return": "uint[] - Array of events IDs.\r"
      },
      "owner()": {
        "details": "Returns the address of the current owner."
      },
      "pause()": {
        "details": "Called by a pauser to pause, triggers stopped state."
      },
      "paused()": {
        "details": "Returns true if the contract is paused, and false otherwise."
      },
      "pledge(uint256,uint256)": {
        "details": "Function to give item to the needed asstistance pool.\r",
        "params": {
          "_commit": "- The amount of the item to commit.\r",
          "_eventId": "- The ID of the Call for Help Event.\r"
        }
      },
      "register(address,bool)": {
        "details": "Function to Accept/Reject or Revoke Registration .\r",
        "params": {
          "_accepted": "- If true Ethereum Address Registration is accepted.\r",
          "_applicant": "address - The Ethereum Address of the applicant.\r"
        }
      },
      "registerHospital(string,string,string,string,string)": {
        "details": "Function Request Hospital Registration.\r",
        "params": {
          "_city": "string - The city where the hospital is located.\r",
          "_country": "string - The country where the hospital is located.\r",
          "_hospitalName": "string - Name of Hospital.\r",
          "_ipfs": "- The IPFS hash containing additional information about the Hospital.\r"
        }
      },
      "renounceOwnership()": {
        "details": "Leaves the contract without owner. It will not be possible to call `onlyOwner` functions anymore. Can only be called by the current owner.     * > Note: Renouncing ownership will leave the contract without an owner, thereby removing any functionality that is only available to the owner."
      },
      "transferOwnership(address)": {
        "details": "Transfers ownership of the contract to a new account (`newOwner`). Can only be called by the current owner."
      },
      "unpause()": {
        "details": "Called by a pauser to unpause, returns to normal state."
      }
    },
    "title": "KadenaNeed\r"
  },
  "userdoc": {
    "methods": {
      "callForHelp(string,string,string,uint256,bool,uint256,uint256,string)": {
        "notice": "Requires that the contract is not paused.\rRequires that the sender is registered.\rRequires that the event time is in the future.\rRequires that the sender rating is greater than or equal to 20.\rRequires that the amount is greater than 0.\r"
      },
      "callForHelpDetails(uint256)": {
        "notice": "Requires that the events exist.\r"
      },
      "pledge(uint256,uint256)": {
        "notice": "Requires that the event exist.\rRequires that the commit is greater than 0.\rRequires that the amount of items to give is <= total needed items in the pool.\rRequires that the amount of items to give is <= current needed items in the pool.\rRequires that the giver is not the creator of the event.\rRequires that the events hasn't ended yet.\r"
      },
      "register(address,bool)": {
        "notice": "Requires that the contract is not paused.\rRequires that the approver is the owner of contract.\rRequires that the applicant address does not have a pending registration.\r"
      },
      "registerHospital(string,string,string,string,string)": {
        "notice": "Requires that the contract is not paused.\rRequires that the applicant address is not yet registered & does not have a pending registration.\r"
      }
    }
  }
}