{
  "contractName": "KadenaRegistration",
  "abi": [
    {
      "constant": false,
      "inputs": [],
      "name": "renounceOwnership",
      "outputs": [],
      "payable": false,
      "stateMutability": "nonpayable",
      "type": "function"
    },
    {
      "constant": true,
      "inputs": [],
      "name": "owner",
      "outputs": [
        {
          "name": "",
          "type": "address"
        }
      ],
      "payable": false,
      "stateMutability": "view",
      "type": "function"
    },
    {
      "constant": true,
      "inputs": [],
      "name": "isOwner",
      "outputs": [
        {
          "name": "",
          "type": "bool"
        }
      ],
      "payable": false,
      "stateMutability": "view",
      "type": "function"
    },
    {
      "constant": true,
      "inputs": [
        {
          "name": "",
          "type": "address"
        }
      ],
      "name": "registered",
      "outputs": [
        {
          "name": "owner",
          "type": "address"
        },
        {
          "name": "name",
          "type": "string"
        },
        {
          "name": "entityType",
          "type": "string"
        },
        {
          "name": "country",
          "type": "string"
        },
        {
          "name": "city",
          "type": "string"
        },
        {
          "name": "ipfs",
          "type": "string"
        },
        {
          "name": "time",
          "type": "uint256"
        },
        {
          "name": "pending",
          "type": "bool"
        },
        {
          "name": "registered",
          "type": "bool"
        },
        {
          "name": "rating",
          "type": "uint256"
        }
      ],
      "payable": false,
      "stateMutability": "view",
      "type": "function"
    },
    {
      "constant": true,
      "inputs": [
        {
          "name": "",
          "type": "uint256"
        }
      ],
      "name": "entity",
      "outputs": [
        {
          "name": "owner",
          "type": "address"
        },
        {
          "name": "name",
          "type": "string"
        },
        {
          "name": "entityType",
          "type": "string"
        },
        {
          "name": "country",
          "type": "string"
        },
        {
          "name": "city",
          "type": "string"
        },
        {
          "name": "ipfs",
          "type": "string"
        },
        {
          "name": "time",
          "type": "uint256"
        },
        {
          "name": "pending",
          "type": "bool"
        },
        {
          "name": "registered",
          "type": "bool"
        },
        {
          "name": "rating",
          "type": "uint256"
        }
      ],
      "payable": false,
      "stateMutability": "view",
      "type": "function"
    },
    {
      "constant": false,
      "inputs": [
        {
          "name": "newOwner",
          "type": "address"
        }
      ],
      "name": "transferOwnership",
      "outputs": [],
      "payable": false,
      "stateMutability": "nonpayable",
      "type": "function"
    },
    {
      "anonymous": false,
      "inputs": [
        {
          "indexed": true,
          "name": "owner",
          "type": "address"
        },
        {
          "indexed": false,
          "name": "name",
          "type": "string"
        },
        {
          "indexed": false,
          "name": "entityType",
          "type": "string"
        },
        {
          "indexed": false,
          "name": "country",
          "type": "string"
        },
        {
          "indexed": false,
          "name": "city",
          "type": "string"
        },
        {
          "indexed": false,
          "name": "ipfs",
          "type": "string"
        },
        {
          "indexed": false,
          "name": "time",
          "type": "uint256"
        },
        {
          "indexed": false,
          "name": "pending",
          "type": "bool"
        },
        {
          "indexed": false,
          "name": "registered",
          "type": "bool"
        }
      ],
      "name": "RegistrationRequest",
      "type": "event"
    },
    {
      "anonymous": false,
      "inputs": [
        {
          "indexed": false,
          "name": "Admin",
          "type": "address"
        },
        {
          "indexed": true,
          "name": "applicant",
          "type": "address"
        },
        {
          "indexed": false,
          "name": "registeredAs",
          "type": "string"
        },
        {
          "indexed": false,
          "name": "entityType",
          "type": "string"
        },
        {
          "indexed": false,
          "name": "time",
          "type": "uint256"
        },
        {
          "indexed": false,
          "name": "pending",
          "type": "bool"
        },
        {
          "indexed": true,
          "name": "registrationStatus",
          "type": "bool"
        },
        {
          "indexed": false,
          "name": "rating",
          "type": "uint256"
        }
      ],
      "name": "Registration",
      "type": "event"
    },
    {
      "anonymous": false,
      "inputs": [
        {
          "indexed": true,
          "name": "previousOwner",
          "type": "address"
        },
        {
          "indexed": true,
          "name": "newOwner",
          "type": "address"
        }
      ],
      "name": "OwnershipTransferred",
      "type": "event"
    },
    {
      "constant": false,
      "inputs": [
        {
          "name": "_hospitalName",
          "type": "string"
        },
        {
          "name": "_entityType",
          "type": "string"
        },
        {
          "name": "_country",
          "type": "string"
        },
        {
          "name": "_city",
          "type": "string"
        },
        {
          "name": "_ipfs",
          "type": "string"
        }
      ],
      "name": "registerHospital",
      "outputs": [],
      "payable": false,
      "stateMutability": "nonpayable",
      "type": "function"
    },
    {
      "constant": false,
      "inputs": [
        {
          "name": "_applicant",
          "type": "address"
        },
        {
          "name": "_accepted",
          "type": "bool"
        }
      ],
      "name": "register",
      "outputs": [],
      "payable": false,
      "stateMutability": "nonpayable",
      "type": "function"
    },
    {
      "constant": true,
      "inputs": [
        {
          "name": "_owner",
          "type": "address"
        }
      ],
      "name": "getHospitalStatus",
      "outputs": [
        {
          "name": "_hospitalName",
          "type": "string"
        },
        {
          "name": "_entityType",
          "type": "string"
        },
        {
          "name": "_country",
          "type": "string"
        },
        {
          "name": "_city",
          "type": "string"
        },
        {
          "name": "_ipfs",
          "type": "string"
        },
        {
          "name": "_pending",
          "type": "bool"
        },
        {
          "name": "_registered",
          "type": "bool"
        },
        {
          "name": "_time",
          "type": "uint256"
        },
        {
          "name": "_rating",
          "type": "uint256"
        }
      ],
      "payable": false,
      "stateMutability": "view",
      "type": "function"
    },
    {
      "constant": true,
      "inputs": [],
      "name": "getHospitalCount",
      "outputs": [
        {
          "name": "",
          "type": "uint256"
        }
      ],
      "payable": false,
      "stateMutability": "view",
      "type": "function"
    }
  ],
  "bytecode": "0x6080604052336000806101000a81548173ffffffffffffffffffffffffffffffffffffffff021916908373ffffffffffffffffffffffffffffffffffffffff1602179055506000809054906101000a900473ffffffffffffffffffffffffffffffffffffffff1673ffffffffffffffffffffffffffffffffffffffff16600073ffffffffffffffffffffffffffffffffffffffff167f8be0079c531659141344cd1fd0a4f28419497f9722a3daafe3b4186f6b6457e060405160405180910390a3612ca3806100cf6000396000f3fe6080604052600436106100a4576000357c0100000000000000000000000000000000000000000000000000000000900463ffffffff1680631d0f8168146100a9578063715018a6146103cd5780638da5cb5b146103e45780638f32d59b1461043b57806397faf4dc1461046a578063ab01b46914610708578063b2dd5c0714610765578063b42ba2a214610a36578063f2fde38b14610cf1578063fe45a81d14610d42575b600080fd5b3480156100b557600080fd5b506103cb600480360360a08110156100cc57600080fd5b81019080803590602001906401000000008111156100e957600080fd5b8201836020820111156100fb57600080fd5b8035906020019184600183028401116401000000008311171561011d57600080fd5b91908080601f016020809104026020016040519081016040528093929190818152602001838380828437600081840152601f19601f8201169050808301925050505050505091929192908035906020019064010000000081111561018057600080fd5b82018360208201111561019257600080fd5b803590602001918460018302840111640100000000831117156101b457600080fd5b91908080601f016020809104026020016040519081016040528093929190818152602001838380828437600081840152601f19601f8201169050808301925050505050505091929192908035906020019064010000000081111561021757600080fd5b82018360208201111561022957600080fd5b8035906020019184600183028401116401000000008311171561024b57600080fd5b91908080601f016020809104026020016040519081016040528093929190818152602001838380828437600081840152601f19601f820116905080830192505050505050509192919290803590602001906401000000008111156102ae57600080fd5b8201836020820111156102c057600080fd5b803590602001918460018302840111640100000000831117156102e257600080fd5b91908080601f016020809104026020016040519081016040528093929190818152602001838380828437600081840152601f19601f8201169050808301925050505050505091929192908035906020019064010000000081111561034557600080fd5b82018360208201111561035757600080fd5b8035906020019184600183028401116401000000008311171561037957600080fd5b91908080601f016020809104026020016040519081016040528093929190818152602001838380828437600081840152601f19601f820116905080830192505050505050509192919290505050610d6d565b005b3480156103d957600080fd5b506103e26114e1565b005b3480156103f057600080fd5b506103f961161c565b604051808273ffffffffffffffffffffffffffffffffffffffff1673ffffffffffffffffffffffffffffffffffffffff16815260200191505060405180910390f35b34801561044757600080fd5b50610450611645565b604051808215151515815260200191505060405180910390f35b34801561047657600080fd5b506104b96004803603602081101561048d57600080fd5b81019080803573ffffffffffffffffffffffffffffffffffffffff16906020019092919050505061169c565b6040518080602001806020018060200180602001806020018a1515151581526020018915151515815260200188815260200187815260200186810386528f818151815260200191508051906020019080838360005b8381101561052957808201518184015260208101905061050e565b50505050905090810190601f1680156105565780820380516001836020036101000a031916815260200191505b5086810385528e818151815260200191508051906020019080838360005b8381101561058f578082015181840152602081019050610574565b50505050905090810190601f1680156105bc5780820380516001836020036101000a031916815260200191505b5086810384528d818151815260200191508051906020019080838360005b838110156105f55780820151818401526020810190506105da565b50505050905090810190601f1680156106225780820380516001836020036101000a031916815260200191505b5086810383528c818151815260200191508051906020019080838360005b8381101561065b578082015181840152602081019050610640565b50505050905090810190601f1680156106885780820380516001836020036101000a031916815260200191505b5086810382528b818151815260200191508051906020019080838360005b838110156106c15780820151818401526020810190506106a6565b50505050905090810190601f1680156106ee5780820380516001836020036101000a031916815260200191505b509e50505050505050505050505050505060405180910390f35b34801561071457600080fd5b506107636004803603604081101561072b57600080fd5b81019080803573ffffffffffffffffffffffffffffffffffffffff169060200190929190803515159060200190929190505050611b28565b005b34801561077157600080fd5b506107b46004803603602081101561078857600080fd5b81019080803573ffffffffffffffffffffffffffffffffffffffff16906020019092919050505061222b565b604051808b73ffffffffffffffffffffffffffffffffffffffff1673ffffffffffffffffffffffffffffffffffffffff16815260200180602001806020018060200180602001806020018a8152602001891515151581526020018815151515815260200187815260200186810386528f818151815260200191508051906020019080838360005b8381101561085657808201518184015260208101905061083b565b50505050905090810190601f1680156108835780820380516001836020036101000a031916815260200191505b5086810385528e818151815260200191508051906020019080838360005b838110156108bc5780820151818401526020810190506108a1565b50505050905090810190601f1680156108e95780820380516001836020036101000a031916815260200191505b5086810384528d818151815260200191508051906020019080838360005b83811015610922578082015181840152602081019050610907565b50505050905090810190601f16801561094f5780820380516001836020036101000a031916815260200191505b5086810383528c818151815260200191508051906020019080838360005b8381101561098857808201518184015260208101905061096d565b50505050905090810190601f1680156109b55780820380516001836020036101000a031916815260200191505b5086810382528b818151815260200191508051906020019080838360005b838110156109ee5780820151818401526020810190506109d3565b50505050905090810190601f168015610a1b5780820380516001836020036101000a031916815260200191505b509f5050505050505050505050505050505060405180910390f35b348015610a4257600080fd5b50610a6f60048036036020811015610a5957600080fd5b81019080803590602001909291905050506125b1565b604051808b73ffffffffffffffffffffffffffffffffffffffff1673ffffffffffffffffffffffffffffffffffffffff16815260200180602001806020018060200180602001806020018a8152602001891515151581526020018815151515815260200187815260200186810386528f818151815260200191508051906020019080838360005b83811015610b11578082015181840152602081019050610af6565b50505050905090810190601f168015610b3e5780820380516001836020036101000a031916815260200191505b5086810385528e818151815260200191508051906020019080838360005b83811015610b77578082015181840152602081019050610b5c565b50505050905090810190601f168015610ba45780820380516001836020036101000a031916815260200191505b5086810384528d818151815260200191508051906020019080838360005b83811015610bdd578082015181840152602081019050610bc2565b50505050905090810190601f168015610c0a5780820380516001836020036101000a031916815260200191505b5086810383528c818151815260200191508051906020019080838360005b83811015610c43578082015181840152602081019050610c28565b50505050905090810190601f168015610c705780820380516001836020036101000a031916815260200191505b5086810382528b818151815260200191508051906020019080838360005b83811015610ca9578082015181840152602081019050610c8e565b50505050905090810190601f168015610cd65780820380516001836020036101000a031916815260200191505b509f5050505050505050505050505050505060405180910390f35b348015610cfd57600080fd5b50610d4060048036036020811015610d1457600080fd5b81019080803573ffffffffffffffffffffffffffffffffffffffff169060200190929190505050612946565b005b348015610d4e57600080fd5b50610d576129ce565b6040518082815260200191505060405180910390f35b600260003373ffffffffffffffffffffffffffffffffffffffff1673ffffffffffffffffffffffffffffffffffffffff16815260200190815260200160002060070160019054906101000a900460ff16158015610e175750600260003373ffffffffffffffffffffffffffffffffffffffff1673ffffffffffffffffffffffffffffffffffffffff16815260200190815260200160002060070160009054906101000a900460ff16155b1515610eb1576040517f08c379a000000000000000000000000000000000000000000000000000000000815260040180806020018281038252602f8152602001807f596f75206172652052656769737465726564206f7220686176652070656e646981526020017f6e6720726567697374726174696f6e000000000000000000000000000000000081525060400191505060405180910390fd5b610eb9612b64565b610140604051908101604052803373ffffffffffffffffffffffffffffffffffffffff1681526020018781526020018681526020018581526020018481526020018381526020014281526020016001151581526020016000151581526020016000815250905033600260003373ffffffffffffffffffffffffffffffffffffffff1673ffffffffffffffffffffffffffffffffffffffff16815260200190815260200160002060000160006101000a81548173ffffffffffffffffffffffffffffffffffffffff021916908373ffffffffffffffffffffffffffffffffffffffff16021790555085600260003373ffffffffffffffffffffffffffffffffffffffff1673ffffffffffffffffffffffffffffffffffffffff1681526020019081526020016000206001019080519060200190610ff6929190612bd2565b5084600260003373ffffffffffffffffffffffffffffffffffffffff1673ffffffffffffffffffffffffffffffffffffffff168152602001908152602001600020600201908051906020019061104d929190612bd2565b5083600260003373ffffffffffffffffffffffffffffffffffffffff1673ffffffffffffffffffffffffffffffffffffffff16815260200190815260200160002060030190805190602001906110a4929190612bd2565b5082600260003373ffffffffffffffffffffffffffffffffffffffff1673ffffffffffffffffffffffffffffffffffffffff16815260200190815260200160002060040190805190602001906110fb929190612bd2565b5081600260003373ffffffffffffffffffffffffffffffffffffffff1673ffffffffffffffffffffffffffffffffffffffff1681526020019081526020016000206005019080519060200190611152929190612bd2565b5042600260003373ffffffffffffffffffffffffffffffffffffffff1673ffffffffffffffffffffffffffffffffffffffff168152602001908152602001600020600601819055506001600260003373ffffffffffffffffffffffffffffffffffffffff1673ffffffffffffffffffffffffffffffffffffffff16815260200190815260200160002060070160006101000a81548160ff0219169083151502179055506000600260003373ffffffffffffffffffffffffffffffffffffffff1673ffffffffffffffffffffffffffffffffffffffff16815260200190815260200160002060070160016101000a81548160ff0219169083151502179055503373ffffffffffffffffffffffffffffffffffffffff167f0402ff60c4b5114778c6d2060192c413b82fe5c47a112944a93c83b7edb26a3b87878787874260016000604051808060200180602001806020018060200180602001898152602001881515151581526020018715151515815260200186810386528e818151815260200191508051906020019080838360005b838110156112fc5780820151818401526020810190506112e1565b50505050905090810190601f1680156113295780820380516001836020036101000a031916815260200191505b5086810385528d818151815260200191508051906020019080838360005b83811015611362578082015181840152602081019050611347565b50505050905090810190601f16801561138f5780820380516001836020036101000a031916815260200191505b5086810384528c818151815260200191508051906020019080838360005b838110156113c85780820151818401526020810190506113ad565b50505050905090810190601f1680156113f55780820380516001836020036101000a031916815260200191505b5086810383528b818151815260200191508051906020019080838360005b8381101561142e578082015181840152602081019050611413565b50505050905090810190601f16801561145b5780820380516001836020036101000a031916815260200191505b5086810382528a818151815260200191508051906020019080838360005b83811015611494578082015181840152602081019050611479565b50505050905090810190601f1680156114c15780820380516001836020036101000a031916815260200191505b509d505050505050505050505050505060405180910390a2505050505050565b6114e9611645565b151561155d576040517f08c379a00000000000000000000000000000000000000000000000000000000081526004018080602001828103825260208152602001807f4f776e61626c653a2063616c6c6572206973206e6f7420746865206f776e657281525060200191505060405180910390fd5b600073ffffffffffffffffffffffffffffffffffffffff166000809054906101000a900473ffffffffffffffffffffffffffffffffffffffff1673ffffffffffffffffffffffffffffffffffffffff167f8be0079c531659141344cd1fd0a4f28419497f9722a3daafe3b4186f6b6457e060405160405180910390a360008060006101000a81548173ffffffffffffffffffffffffffffffffffffffff021916908373ffffffffffffffffffffffffffffffffffffffff160217905550565b60008060009054906101000a900473ffffffffffffffffffffffffffffffffffffffff16905090565b60008060009054906101000a900473ffffffffffffffffffffffffffffffffffffffff1673ffffffffffffffffffffffffffffffffffffffff163373ffffffffffffffffffffffffffffffffffffffff1614905090565b60608060608060606000806000806116b2612b64565b600260008c73ffffffffffffffffffffffffffffffffffffffff1673ffffffffffffffffffffffffffffffffffffffff16815260200190815260200160002061014060405190810160405290816000820160009054906101000a900473ffffffffffffffffffffffffffffffffffffffff1673ffffffffffffffffffffffffffffffffffffffff1673ffffffffffffffffffffffffffffffffffffffff168152602001600182018054600181600116156101000203166002900480601f0160208091040260200160405190810160405280929190818152602001828054600181600116156101000203166002900480156117ed5780601f106117c2576101008083540402835291602001916117ed565b820191906000526020600020905b8154815290600101906020018083116117d057829003601f168201915b50505050508152602001600282018054600181600116156101000203166002900480601f01602080910402602001604051908101604052809291908181526020018280546001816001161561010002031660029004801561188f5780601f106118645761010080835404028352916020019161188f565b820191906000526020600020905b81548152906001019060200180831161187257829003601f168201915b50505050508152602001600382018054600181600116156101000203166002900480601f0160208091040260200160405190810160405280929190818152602001828054600181600116156101000203166002900480156119315780601f1061190657610100808354040283529160200191611931565b820191906000526020600020905b81548152906001019060200180831161191457829003601f168201915b50505050508152602001600482018054600181600116156101000203166002900480601f0160208091040260200160405190810160405280929190818152602001828054600181600116156101000203166002900480156119d35780601f106119a8576101008083540402835291602001916119d3565b820191906000526020600020905b8154815290600101906020018083116119b657829003601f168201915b50505050508152602001600582018054600181600116156101000203166002900480601f016020809104026020016040519081016040528092919081815260200182805460018160011615610100020316600290048015611a755780601f10611a4a57610100808354040283529160200191611a75565b820191906000526020600020905b815481529060010190602001808311611a5857829003601f168201915b50505050508152602001600682015481526020016007820160009054906101000a900460ff161515151581526020016007820160019054906101000a900460ff16151515158152602001600882015481525050905080602001518160400151826060015183608001518460a001518560e001518661010001518760c00151886101200151889850879750869650859550849450995099509950995099509950995099509950509193959799909294969850565b611b30611645565b1515611ba4576040517f08c379a00000000000000000000000000000000000000000000000000000000081526004018080602001828103825260208152602001807f4f776e61626c653a2063616c6c6572206973206e6f7420746865206f776e657281525060200191505060405180910390fd5b8015611db857600260008373ffffffffffffffffffffffffffffffffffffffff1673ffffffffffffffffffffffffffffffffffffffff16815260200190815260200160002060070160009054906101000a900460ff161515611c6e576040517f08c379a00000000000000000000000000000000000000000000000000000000081526004018080602001828103825260128152602001807f537461747573206e6f742050656e64696e67000000000000000000000000000081525060200191505060405180910390fd5b42600260008473ffffffffffffffffffffffffffffffffffffffff1673ffffffffffffffffffffffffffffffffffffffff168152602001908152602001600020600601819055506000600260008473ffffffffffffffffffffffffffffffffffffffff1673ffffffffffffffffffffffffffffffffffffffff16815260200190815260200160002060070160006101000a81548160ff0219169083151502179055506001600260008473ffffffffffffffffffffffffffffffffffffffff1673ffffffffffffffffffffffffffffffffffffffff16815260200190815260200160002060070160016101000a81548160ff0219169083151502179055506023600260008473ffffffffffffffffffffffffffffffffffffffff1673ffffffffffffffffffffffffffffffffffffffff16815260200190815260200160002060080181905550611eb6565b42600260008473ffffffffffffffffffffffffffffffffffffffff1673ffffffffffffffffffffffffffffffffffffffff168152602001908152602001600020600601819055506000600260008473ffffffffffffffffffffffffffffffffffffffff1673ffffffffffffffffffffffffffffffffffffffff16815260200190815260200160002060070160006101000a81548160ff0219169083151502179055506000600260008473ffffffffffffffffffffffffffffffffffffffff1673ffffffffffffffffffffffffffffffffffffffff16815260200190815260200160002060070160016101000a81548160ff0219169083151502179055505b600260008373ffffffffffffffffffffffffffffffffffffffff1673ffffffffffffffffffffffffffffffffffffffff16815260200190815260200160002060070160019054906101000a900460ff161515600260008473ffffffffffffffffffffffffffffffffffffffff1673ffffffffffffffffffffffffffffffffffffffff16815260200190815260200160002060000160009054906101000a900473ffffffffffffffffffffffffffffffffffffffff1673ffffffffffffffffffffffffffffffffffffffff167fba36970dcbe5845620db5e75839cf6e99d4c1ee1341d0f4499e16fdf1fa2641d33600260008773ffffffffffffffffffffffffffffffffffffffff1673ffffffffffffffffffffffffffffffffffffffff168152602001908152602001600020600101600260008873ffffffffffffffffffffffffffffffffffffffff1673ffffffffffffffffffffffffffffffffffffffff16815260200190815260200160002060020142600260008a73ffffffffffffffffffffffffffffffffffffffff1673ffffffffffffffffffffffffffffffffffffffff16815260200190815260200160002060070160009054906101000a900460ff16600260008b73ffffffffffffffffffffffffffffffffffffffff1673ffffffffffffffffffffffffffffffffffffffff16815260200190815260200160002060080154604051808773ffffffffffffffffffffffffffffffffffffffff1673ffffffffffffffffffffffffffffffffffffffff1681526020018060200180602001868152602001851515151581526020018481526020018381038352888181546001816001161561010002031660029004815260200191508054600181600116156101000203166002900480156121905780601f1061216557610100808354040283529160200191612190565b820191906000526020600020905b81548152906001019060200180831161217357829003601f168201915b50508381038252878181546001816001161561010002031660029004815260200191508054600181600116156101000203166002900480156122135780601f106121e857610100808354040283529160200191612213565b820191906000526020600020905b8154815290600101906020018083116121f657829003601f168201915b50509850505050505050505060405180910390a35050565b60026020528060005260406000206000915090508060000160009054906101000a900473ffffffffffffffffffffffffffffffffffffffff1690806001018054600181600116156101000203166002900480601f0160208091040260200160405190810160405280929190818152602001828054600181600116156101000203166002900480156122fd5780601f106122d2576101008083540402835291602001916122fd565b820191906000526020600020905b8154815290600101906020018083116122e057829003601f168201915b505050505090806002018054600181600116156101000203166002900480601f01602080910402602001604051908101604052809291908181526020018280546001816001161561010002031660029004801561239b5780601f106123705761010080835404028352916020019161239b565b820191906000526020600020905b81548152906001019060200180831161237e57829003601f168201915b505050505090806003018054600181600116156101000203166002900480601f0160208091040260200160405190810160405280929190818152602001828054600181600116156101000203166002900480156124395780601f1061240e57610100808354040283529160200191612439565b820191906000526020600020905b81548152906001019060200180831161241c57829003601f168201915b505050505090806004018054600181600116156101000203166002900480601f0160208091040260200160405190810160405280929190818152602001828054600181600116156101000203166002900480156124d75780601f106124ac576101008083540402835291602001916124d7565b820191906000526020600020905b8154815290600101906020018083116124ba57829003601f168201915b505050505090806005018054600181600116156101000203166002900480601f0160208091040260200160405190810160405280929190818152602001828054600181600116156101000203166002900480156125755780601f1061254a57610100808354040283529160200191612575565b820191906000526020600020905b81548152906001019060200180831161255857829003601f168201915b5050505050908060060154908060070160009054906101000a900460ff16908060070160019054906101000a900460ff1690806008015490508a565b6001818154811015156125c057fe5b90600052602060002090600902016000915090508060000160009054906101000a900473ffffffffffffffffffffffffffffffffffffffff1690806001018054600181600116156101000203166002900480601f0160208091040260200160405190810160405280929190818152602001828054600181600116156101000203166002900480156126925780601f1061266757610100808354040283529160200191612692565b820191906000526020600020905b81548152906001019060200180831161267557829003601f168201915b505050505090806002018054600181600116156101000203166002900480601f0160208091040260200160405190810160405280929190818152602001828054600181600116156101000203166002900480156127305780601f1061270557610100808354040283529160200191612730565b820191906000526020600020905b81548152906001019060200180831161271357829003601f168201915b505050505090806003018054600181600116156101000203166002900480601f0160208091040260200160405190810160405280929190818152602001828054600181600116156101000203166002900480156127ce5780601f106127a3576101008083540402835291602001916127ce565b820191906000526020600020905b8154815290600101906020018083116127b157829003601f168201915b505050505090806004018054600181600116156101000203166002900480601f01602080910402602001604051908101604052809291908181526020018280546001816001161561010002031660029004801561286c5780601f106128415761010080835404028352916020019161286c565b820191906000526020600020905b81548152906001019060200180831161284f57829003601f168201915b505050505090806005018054600181600116156101000203166002900480601f01602080910402602001604051908101604052809291908181526020018280546001816001161561010002031660029004801561290a5780601f106128df5761010080835404028352916020019161290a565b820191906000526020600020905b8154815290600101906020018083116128ed57829003601f168201915b5050505050908060060154908060070160009054906101000a900460ff16908060070160019054906101000a900460ff1690806008015490508a565b61294e611645565b15156129c2576040517f08c379a00000000000000000000000000000000000000000000000000000000081526004018080602001828103825260208152602001807f4f776e61626c653a2063616c6c6572206973206e6f7420746865206f776e657281525060200191505060405180910390fd5b6129cb816129db565b50565b6000600180549050905090565b600073ffffffffffffffffffffffffffffffffffffffff168173ffffffffffffffffffffffffffffffffffffffff1614151515612aa6576040517f08c379a00000000000000000000000000000000000000000000000000000000081526004018080602001828103825260268152602001807f4f776e61626c653a206e6577206f776e657220697320746865207a65726f206181526020017f646472657373000000000000000000000000000000000000000000000000000081525060400191505060405180910390fd5b8073ffffffffffffffffffffffffffffffffffffffff166000809054906101000a900473ffffffffffffffffffffffffffffffffffffffff1673ffffffffffffffffffffffffffffffffffffffff167f8be0079c531659141344cd1fd0a4f28419497f9722a3daafe3b4186f6b6457e060405160405180910390a3806000806101000a81548173ffffffffffffffffffffffffffffffffffffffff021916908373ffffffffffffffffffffffffffffffffffffffff16021790555050565b61014060405190810160405280600073ffffffffffffffffffffffffffffffffffffffff168152602001606081526020016060815260200160608152602001606081526020016060815260200160008152602001600015158152602001600015158152602001600081525090565b828054600181600116156101000203166002900490600052602060002090601f016020900481019282601f10612c1357805160ff1916838001178555612c41565b82800160010185558215612c41579182015b82811115612c40578251825591602001919060010190612c25565b5b509050612c4e9190612c52565b5090565b612c7491905b80821115612c70576000816000905550600101612c58565b5090565b9056fea165627a7a723058202c57544fe7dd60f3501e5c90c022a3662b5eed70d6c2fa571a5d905750758e890029",
  "source": "pragma solidity ^0.5.0;\r\n\r\nimport 'openzeppelin-solidity/contracts/ownership/Ownable.sol';\r\nimport 'openzeppelin-solidity/contracts/math/SafeMath.sol';\r\n\r\n// SPDX-License-Identifier: MIT\r\n/**\r\n* @title KadenaRegistration\r\n* @dev Is a platform that Hospitals could utilize to connect & form alliance with other hospitals.\r\n* Registered Hopitals in Kadena could call help & post/borrow essential items that they need at the moment or will be needing in the near future.\r\n* Registered Hospital that has extra essential items could also post/give items that they think will be helpful to other hospitals.\r\n* Every registered hospital in Kadena has a rating that corresponds to their actions on the platform.\r\n* Some features/functions will be unavailable to a registered hospital if their rating drops a certain point.\r\n*/\r\n\r\ncontract KadenaRegistration is Ownable {\r\n\tusing SafeMath for uint;\r\n\r\n\tstruct Entity {\r\n\t    address owner;\r\n\t    string name;\r\n\t    string entityType;\r\n\t    string country;\r\n\t    string city;\r\n\t    string ipfs;\r\n\t    uint time;\r\n\t    bool pending;\r\n\t    bool registered;\r\n\t    uint rating;\r\n\t}\r\n\t\r\n\t\r\n    Entity[] public entity;\r\n\tmapping(address => Entity) public registered;\r\n\r\n    event RegistrationRequest(address indexed owner, string name, string entityType, string country, string city, string ipfs, uint time, bool pending, bool registered);\t\r\n    event Registration(address Admin, address indexed applicant, string registeredAs, string entityType, uint time, bool pending, bool indexed registrationStatus, uint rating);\r\n\r\n\r\n   /**\r\n\t* @dev Function Request Hospital Registration.\r\n\t* @param _hospitalName string - Name of Hospital.\r\n\t* @param _country string - The country where the hospital is located.\r\n\t* @param _city string - The city where the hospital is located.\r\n\t* @param _ipfs - The IPFS hash containing additional information about the Hospital.\r\n\r\n\t* @notice Requires that the contract is not paused.\r\n\t* @notice Requires that the applicant address is not yet registered & does not have a pending registration.\r\n\t*/\r\n    \r\nfunction registerHospital(\r\n\t\tstring memory _hospitalName,\r\n\t\tstring memory _entityType,\r\n\t    string memory _country,\r\n\t    string memory _city,\r\n\t    string memory _ipfs\r\n    \t)\r\n\t\tpublic\r\n\t\t\r\n\t{\r\n        require(!registered[msg.sender].registered && !registered[msg.sender].pending, \"You are Registered or have pending registration\");    \r\n\r\n\t\tEntity memory _registerHospital = Entity({\r\n\t\t\towner: msg.sender,\r\n\t\t\tname: _hospitalName,\r\n\t\t\tentityType: _entityType,\r\n\t\t    country: _country,\r\n\t\t\tcity: _city,\r\n\t\t\tipfs: _ipfs,\r\n\t\t\ttime: now,\r\n\t\t\tpending: true,\r\n\t\t\tregistered: false,\r\n\t\t\trating:0\r\n\t\t\t\r\n\t\t});\r\n\r\n\t\tregistered[msg.sender].owner = msg.sender;\r\n\t\tregistered[msg.sender].name = _hospitalName;\r\n\t\tregistered[msg.sender].entityType = _entityType;\r\n\t\tregistered[msg.sender].country = _country;\r\n\t\tregistered[msg.sender].city = _city;\r\n\t\tregistered[msg.sender].ipfs = _ipfs;\r\n\t\tregistered[msg.sender].time = now;\r\n\t\tregistered[msg.sender].pending = true;\r\n\t\tregistered[msg.sender].registered = false;\r\n\t\temit RegistrationRequest(msg.sender, _hospitalName, _entityType, _country, _city, _ipfs, now, true, false);\r\n\t}\r\n\t\r\n    /**\r\n\t* @dev Function to Accept/Reject or Revoke Registration .\r\n\t* @param _applicant address - The Ethereum Address of the applicant.\r\n\t* @param _accepted - If true Ethereum Address Registration is accepted.\r\n\r\n\t* @notice Requires that the contract is not paused.\r\n\t* @notice Requires that the approver is the owner of contract.\r\n\t* @notice Requires that the applicant address does not have a pending registration.\r\n\t*/\r\n\t\r\n   function register(address _applicant, bool _accepted)\r\n\t\tpublic\r\n        onlyOwner()\r\n\r\n\t{   \r\n\t    if(_accepted){\r\n        require(registered[_applicant].pending , \"Status not Pending\");\r\n        \r\n        registered[_applicant].time = now;\r\n        registered[_applicant].pending = false;\r\n        registered[_applicant].registered = true;\r\n        registered[_applicant].rating = 35;\r\n\t    }\r\n        \r\n        else{\r\n\t\tregistered[_applicant].time = now;\r\n        registered[_applicant].pending = false;\r\n        registered[_applicant].registered = false;\r\n        }\r\n        \r\n         emit Registration(msg.sender, registered[_applicant].owner,registered[_applicant].name,registered[_applicant].entityType,now,registered[_applicant].pending,registered[_applicant].registered,registered[_applicant].rating);\r\n\t}\r\n\t\r\n    /**\r\n\t* @dev Function to show information about the hospital.\r\n\t* @param _owner address - The Ethereum Address of the hospital.\r\n\t* return _hospitalName string - The name of the hospital.\r\n\t* return _country string - The country where the hospital is located.\r\n\t* return _city string - The city where the hospital is located.\r\n\t* return _ipfs string - The IPFS hash containing additional information about event.\r\n\t* return _pending bool - If true account has a pending registration.\r\n\t* return _registered bool - If true account is registered.\r\n\t* return _time uint - time of registration.\r\n\t* return _rating uint - The rating of the account.\r\n\r\n\t*/\r\n\t\r\n\tfunction getHospitalStatus(address _owner)\r\n\t    public\r\n\t    view\r\n\t    returns(\r\n\t        string memory _hospitalName,\r\n\t        string memory _entityType,\r\n\t        string memory _country,\r\n\t        string memory _city,\r\n\t        string memory _ipfs,\r\n\t        bool  _pending, \r\n\t        bool  _registered,\r\n\t        uint  _time,\r\n\t        uint  _rating\r\n\t    ){\r\n\t   Entity memory _registerhospital = registered[_owner];\r\n\t    return(\r\n\r\n\t\t    _registerhospital.name,\r\n\t\t    _registerhospital.entityType,\r\n\t\t\t_registerhospital.country,\r\n\t\t\t_registerhospital.city,\r\n\t\t\t_registerhospital.ipfs,\r\n\t\t\t_registerhospital.pending,\r\n\t\t\t_registerhospital.registered,\r\n\t\t\t_registerhospital.time,\r\n\t\t\t_registerhospital.rating\r\n\t\t\t\r\n\t\t);\r\n\t}\r\n\r\n\tmodifier Registered() {\r\n\t     require(registered[msg.sender].registered == true && registered[msg.sender].pending == false, \"You are Not Registered\");\r\n    _;\r\n\t    \r\n\t}\r\n\r\n\r\n\tfunction getHospitalCount() public view returns(uint) {\r\n\t\treturn entity.length;\r\n\t}\r\n\t\r\n}",
  "sourcePath": "C:\\Users\\jfpad\\kadena\\contracts\\KadenaRegistration.sol",
  "compiler": {
    "name": "solc",
    "version": "0.5.0+commit.1d4f565a.Emscripten.clang"
  },
  "schemaVersion": "3.2.0",
  "updatedAt": "2020-05-28T11:57:06.591Z",
  "networkType": "ethereum",
  "devdoc": {
    "details": "Is a platform that Hospitals could utilize to connect & form alliance with other hospitals.\r Registered Hopitals in Kadena could call help & post/borrow essential items that they need at the moment or will be needing in the near future.\r Registered Hospital that has extra essential items could also post/give items that they think will be helpful to other hospitals.\r Every registered hospital in Kadena has a rating that corresponds to their actions on the platform.\r Some features/functions will be unavailable to a registered hospital if their rating drops a certain point.\r",
    "methods": {
      "getHospitalStatus(address)": {
        "details": "Function to show information about the hospital.\r",
        "params": {
          "_owner": "address - The Ethereum Address of the hospital.\r return _hospitalName string - The name of the hospital.\r return _country string - The country where the hospital is located.\r return _city string - The city where the hospital is located.\r return _ipfs string - The IPFS hash containing additional information about event.\r return _pending bool - If true account has a pending registration.\r return _registered bool - If true account is registered.\r return _time uint - time of registration.\r return _rating uint - The rating of the account.\r"
        }
      },
      "isOwner()": {
        "details": "Returns true if the caller is the current owner."
      },
      "owner()": {
        "details": "Returns the address of the current owner."
      },
      "register(address,bool)": {
        "details": "Function to Accept/Reject or Revoke Registration .\r",
        "params": {
          "_accepted": "- If true Ethereum Address Registration is accepted.\r",
          "_applicant": "address - The Ethereum Address of the applicant.\r"
        }
      },
      "registerHospital(string,string,string,string,string)": {
        "details": "Function Request Hospital Registration.\r",
        "params": {
          "_city": "string - The city where the hospital is located.\r",
          "_country": "string - The country where the hospital is located.\r",
          "_hospitalName": "string - Name of Hospital.\r",
          "_ipfs": "- The IPFS hash containing additional information about the Hospital.\r"
        }
      },
      "renounceOwnership()": {
        "details": "Leaves the contract without owner. It will not be possible to call `onlyOwner` functions anymore. Can only be called by the current owner.     * > Note: Renouncing ownership will leave the contract without an owner, thereby removing any functionality that is only available to the owner."
      },
      "transferOwnership(address)": {
        "details": "Transfers ownership of the contract to a new account (`newOwner`). Can only be called by the current owner."
      }
    },
    "title": "KadenaRegistration\r"
  },
  "userdoc": {
    "methods": {
      "register(address,bool)": {
        "notice": "Requires that the contract is not paused.\rRequires that the approver is the owner of contract.\rRequires that the applicant address does not have a pending registration.\r"
      },
      "registerHospital(string,string,string,string,string)": {
        "notice": "Requires that the contract is not paused.\rRequires that the applicant address is not yet registered & does not have a pending registration.\r"
      }
    }
  }
}